{
	"sol/0523/02.sol": {
		"myToken": {
			"abi": [
				{
					"inputs": [],
					"name": "calc",
					"outputs": [
						{
							"internalType": "uint256",
							"name": "",
							"type": "uint256"
						}
					],
					"stateMutability": "nonpayable",
					"type": "function"
				},
				{
					"inputs": [],
					"name": "getResult",
					"outputs": [
						{
							"internalType": "uint256",
							"name": "",
							"type": "uint256"
						}
					],
					"stateMutability": "view",
					"type": "function"
				},
				{
					"inputs": [
						{
							"internalType": "uint256",
							"name": "userMoney",
							"type": "uint256"
						}
					],
					"name": "minusMoney",
					"outputs": [],
					"stateMutability": "nonpayable",
					"type": "function"
				},
				{
					"inputs": [],
					"name": "showUserInfo",
					"outputs": [
						{
							"internalType": "address",
							"name": "",
							"type": "address"
						}
					],
					"stateMutability": "view",
					"type": "function"
				},
				{
					"inputs": [],
					"name": "start",
					"outputs": [],
					"stateMutability": "nonpayable",
					"type": "function"
				}
			],
			"devdoc": {
				"kind": "dev",
				"methods": {},
				"version": 1
			},
			"evm": {
				"assembly": "    /* \"sol/0523/02.sol\":58:1125  contract myToken {... */\n  mstore(0x40, 0x80)\n  callvalue\n  dup1\n  iszero\n  tag_1\n  jumpi\n  0x00\n  dup1\n  revert\ntag_1:\n  pop\n  dataSize(sub_0)\n  dup1\n  dataOffset(sub_0)\n  0x00\n  codecopy\n  0x00\n  return\nstop\n\nsub_0: assembly {\n        /* \"sol/0523/02.sol\":58:1125  contract myToken {... */\n      mstore(0x40, 0x80)\n      callvalue\n      dup1\n      iszero\n      tag_1\n      jumpi\n      0x00\n      dup1\n      revert\n    tag_1:\n      pop\n      jumpi(tag_2, lt(calldatasize, 0x04))\n      shr(0xe0, calldataload(0x00))\n      dup1\n      0x547fa869\n      eq\n      tag_3\n      jumpi\n      dup1\n      0x96f1b6be\n      eq\n      tag_4\n      jumpi\n      dup1\n      0xbe9a6555\n      eq\n      tag_5\n      jumpi\n      dup1\n      0xc5254ccc\n      eq\n      tag_6\n      jumpi\n      dup1\n      0xde292789\n      eq\n      tag_7\n      jumpi\n    tag_2:\n      0x00\n      dup1\n      revert\n        /* \"sol/0523/02.sol\":490:578  function showUserInfo() public view returns (address) {... */\n    tag_3:\n      tag_8\n      tag_9\n      jump\t// in\n    tag_8:\n      mload(0x40)\n      tag_10\n      swap2\n      swap1\n      tag_11\n      jump\t// in\n    tag_10:\n      mload(0x40)\n      dup1\n      swap2\n      sub\n      swap1\n      return\n        /* \"sol/0523/02.sol\":783:926  function calc() public returns (uint) {... */\n    tag_4:\n      tag_12\n      tag_13\n      jump\t// in\n    tag_12:\n      mload(0x40)\n      tag_14\n      swap2\n      swap1\n      tag_15\n      jump\t// in\n    tag_14:\n      mload(0x40)\n      dup1\n      swap2\n      sub\n      swap1\n      return\n        /* \"sol/0523/02.sol\":232:359  function start() public {... */\n    tag_5:\n      tag_16\n      tag_17\n      jump\t// in\n    tag_16:\n      stop\n        /* \"sol/0523/02.sol\":991:1122  function minusMoney(uint userMoney) public {... */\n    tag_6:\n      tag_18\n      0x04\n      dup1\n      calldatasize\n      sub\n      dup2\n      add\n      swap1\n      tag_19\n      swap2\n      swap1\n      tag_20\n      jump\t// in\n    tag_19:\n      tag_21\n      jump\t// in\n    tag_18:\n      stop\n        /* \"sol/0523/02.sol\":634:714  function getResult() public view returns (uint) {... */\n    tag_7:\n      tag_22\n      tag_23\n      jump\t// in\n    tag_22:\n      mload(0x40)\n      tag_24\n      swap2\n      swap1\n      tag_15\n      jump\t// in\n    tag_24:\n      mload(0x40)\n      dup1\n      swap2\n      sub\n      swap1\n      return\n        /* \"sol/0523/02.sol\":490:578  function showUserInfo() public view returns (address) {... */\n    tag_9:\n        /* \"sol/0523/02.sol\":535:542  address */\n      0x00\n        /* \"sol/0523/02.sol\":562:570  userAddr */\n      dup1\n      0x00\n      swap1\n      sload\n      swap1\n      0x0100\n      exp\n      swap1\n      div\n      0xffffffffffffffffffffffffffffffffffffffff\n      and\n        /* \"sol/0523/02.sol\":555:570  return userAddr */\n      swap1\n      pop\n        /* \"sol/0523/02.sol\":490:578  function showUserInfo() public view returns (address) {... */\n      swap1\n      jump\t// out\n        /* \"sol/0523/02.sol\":783:926  function calc() public returns (uint) {... */\n    tag_13:\n        /* \"sol/0523/02.sol\":815:819  uint */\n      0x00\n        /* \"sol/0523/02.sol\":837:843  uint i */\n      dup1\n        /* \"sol/0523/02.sol\":844:845  0 */\n      0x00\n        /* \"sol/0523/02.sol\":837:845  uint i=0 */\n      swap1\n      pop\n        /* \"sol/0523/02.sol\":832:895  for (uint i=0; i<6; i++) {... */\n    tag_27:\n        /* \"sol/0523/02.sol\":849:850  6 */\n      0x06\n        /* \"sol/0523/02.sol\":847:848  i */\n      dup2\n        /* \"sol/0523/02.sol\":847:850  i<6 */\n      lt\n        /* \"sol/0523/02.sol\":832:895  for (uint i=0; i<6; i++) {... */\n      iszero\n      tag_28\n      jumpi\n        /* \"sol/0523/02.sol\":882:883  i */\n      dup1\n        /* \"sol/0523/02.sol\":872:878  result */\n      0x01\n      0x00\n        /* \"sol/0523/02.sol\":872:883  result += i */\n      dup3\n      dup3\n      sload\n      tag_30\n      swap2\n      swap1\n      tag_31\n      jump\t// in\n    tag_30:\n      swap3\n      pop\n      pop\n      dup2\n      swap1\n      sstore\n      pop\n        /* \"sol/0523/02.sol\":852:855  i++ */\n      dup1\n      dup1\n      tag_32\n      swap1\n      tag_33\n      jump\t// in\n    tag_32:\n      swap2\n      pop\n      pop\n        /* \"sol/0523/02.sol\":832:895  for (uint i=0; i<6; i++) {... */\n      jump(tag_27)\n    tag_28:\n      pop\n        /* \"sol/0523/02.sol\":912:918  result */\n      sload(0x01)\n        /* \"sol/0523/02.sol\":905:918  return result */\n      swap1\n      pop\n        /* \"sol/0523/02.sol\":783:926  function calc() public returns (uint) {... */\n      swap1\n      jump\t// out\n        /* \"sol/0523/02.sol\":232:359  function start() public {... */\n    tag_17:\n        /* \"sol/0523/02.sol\":278:288  msg.sender */\n      caller\n        /* \"sol/0523/02.sol\":267:275  userAddr */\n      0x00\n      dup1\n        /* \"sol/0523/02.sol\":267:288  userAddr = msg.sender */\n      0x0100\n      exp\n      dup2\n      sload\n      dup2\n      0xffffffffffffffffffffffffffffffffffffffff\n      mul\n      not\n      and\n      swap1\n      dup4\n      0xffffffffffffffffffffffffffffffffffffffff\n      and\n      mul\n      or\n      swap1\n      sstore\n      pop\n        /* \"sol/0523/02.sol\":348:351  100 */\n      0x64\n        /* \"sol/0523/02.sol\":339:345  result */\n      0x01\n        /* \"sol/0523/02.sol\":339:351  result = 100 */\n      dup2\n      swap1\n      sstore\n      pop\n        /* \"sol/0523/02.sol\":232:359  function start() public {... */\n      jump\t// out\n        /* \"sol/0523/02.sol\":991:1122  function minusMoney(uint userMoney) public {... */\n    tag_21:\n        /* \"sol/0523/02.sol\":1058:1067  userMoney */\n      dup1\n        /* \"sol/0523/02.sol\":1048:1054  result */\n      sload(0x01)\n        /* \"sol/0523/02.sol\":1048:1067  result >= userMoney */\n      lt\n        /* \"sol/0523/02.sol\":1045:1115  if(result >= userMoney) {... */\n      tag_36\n      jumpi\n        /* \"sol/0523/02.sol\":1094:1103  userMoney */\n      dup1\n        /* \"sol/0523/02.sol\":1084:1090  result */\n      0x01\n      0x00\n        /* \"sol/0523/02.sol\":1084:1103  result -= userMoney */\n      dup3\n      dup3\n      sload\n      tag_37\n      swap2\n      swap1\n      tag_38\n      jump\t// in\n    tag_37:\n      swap3\n      pop\n      pop\n      dup2\n      swap1\n      sstore\n      pop\n        /* \"sol/0523/02.sol\":1045:1115  if(result >= userMoney) {... */\n    tag_36:\n        /* \"sol/0523/02.sol\":991:1122  function minusMoney(uint userMoney) public {... */\n      pop\n      jump\t// out\n        /* \"sol/0523/02.sol\":634:714  function getResult() public view returns (uint) {... */\n    tag_23:\n        /* \"sol/0523/02.sol\":676:680  uint */\n      0x00\n        /* \"sol/0523/02.sol\":700:706  result */\n      sload(0x01)\n        /* \"sol/0523/02.sol\":693:706  return result */\n      swap1\n      pop\n        /* \"sol/0523/02.sol\":634:714  function getResult() public view returns (uint) {... */\n      swap1\n      jump\t// out\n        /* \"#utility.yul\":7:133   */\n    tag_40:\n        /* \"#utility.yul\":44:51   */\n      0x00\n        /* \"#utility.yul\":84:126   */\n      0xffffffffffffffffffffffffffffffffffffffff\n        /* \"#utility.yul\":77:82   */\n      dup3\n        /* \"#utility.yul\":73:127   */\n      and\n        /* \"#utility.yul\":62:127   */\n      swap1\n      pop\n        /* \"#utility.yul\":7:133   */\n      swap2\n      swap1\n      pop\n      jump\t// out\n        /* \"#utility.yul\":139:235   */\n    tag_41:\n        /* \"#utility.yul\":176:183   */\n      0x00\n        /* \"#utility.yul\":205:229   */\n      tag_54\n        /* \"#utility.yul\":223:228   */\n      dup3\n        /* \"#utility.yul\":205:229   */\n      tag_40\n      jump\t// in\n    tag_54:\n        /* \"#utility.yul\":194:229   */\n      swap1\n      pop\n        /* \"#utility.yul\":139:235   */\n      swap2\n      swap1\n      pop\n      jump\t// out\n        /* \"#utility.yul\":241:359   */\n    tag_42:\n        /* \"#utility.yul\":328:352   */\n      tag_56\n        /* \"#utility.yul\":346:351   */\n      dup2\n        /* \"#utility.yul\":328:352   */\n      tag_41\n      jump\t// in\n    tag_56:\n        /* \"#utility.yul\":323:326   */\n      dup3\n        /* \"#utility.yul\":316:353   */\n      mstore\n        /* \"#utility.yul\":241:359   */\n      pop\n      pop\n      jump\t// out\n        /* \"#utility.yul\":365:587   */\n    tag_11:\n        /* \"#utility.yul\":458:462   */\n      0x00\n        /* \"#utility.yul\":496:498   */\n      0x20\n        /* \"#utility.yul\":485:494   */\n      dup3\n        /* \"#utility.yul\":481:499   */\n      add\n        /* \"#utility.yul\":473:499   */\n      swap1\n      pop\n        /* \"#utility.yul\":509:580   */\n      tag_58\n        /* \"#utility.yul\":577:578   */\n      0x00\n        /* \"#utility.yul\":566:575   */\n      dup4\n        /* \"#utility.yul\":562:579   */\n      add\n        /* \"#utility.yul\":553:559   */\n      dup5\n        /* \"#utility.yul\":509:580   */\n      tag_42\n      jump\t// in\n    tag_58:\n        /* \"#utility.yul\":365:587   */\n      swap3\n      swap2\n      pop\n      pop\n      jump\t// out\n        /* \"#utility.yul\":593:670   */\n    tag_43:\n        /* \"#utility.yul\":630:637   */\n      0x00\n        /* \"#utility.yul\":659:664   */\n      dup2\n        /* \"#utility.yul\":648:664   */\n      swap1\n      pop\n        /* \"#utility.yul\":593:670   */\n      swap2\n      swap1\n      pop\n      jump\t// out\n        /* \"#utility.yul\":676:794   */\n    tag_44:\n        /* \"#utility.yul\":763:787   */\n      tag_61\n        /* \"#utility.yul\":781:786   */\n      dup2\n        /* \"#utility.yul\":763:787   */\n      tag_43\n      jump\t// in\n    tag_61:\n        /* \"#utility.yul\":758:761   */\n      dup3\n        /* \"#utility.yul\":751:788   */\n      mstore\n        /* \"#utility.yul\":676:794   */\n      pop\n      pop\n      jump\t// out\n        /* \"#utility.yul\":800:1022   */\n    tag_15:\n        /* \"#utility.yul\":893:897   */\n      0x00\n        /* \"#utility.yul\":931:933   */\n      0x20\n        /* \"#utility.yul\":920:929   */\n      dup3\n        /* \"#utility.yul\":916:934   */\n      add\n        /* \"#utility.yul\":908:934   */\n      swap1\n      pop\n        /* \"#utility.yul\":944:1015   */\n      tag_63\n        /* \"#utility.yul\":1012:1013   */\n      0x00\n        /* \"#utility.yul\":1001:1010   */\n      dup4\n        /* \"#utility.yul\":997:1014   */\n      add\n        /* \"#utility.yul\":988:994   */\n      dup5\n        /* \"#utility.yul\":944:1015   */\n      tag_44\n      jump\t// in\n    tag_63:\n        /* \"#utility.yul\":800:1022   */\n      swap3\n      swap2\n      pop\n      pop\n      jump\t// out\n        /* \"#utility.yul\":1109:1226   */\n    tag_46:\n        /* \"#utility.yul\":1218:1219   */\n      0x00\n        /* \"#utility.yul\":1215:1216   */\n      dup1\n        /* \"#utility.yul\":1208:1220   */\n      revert\n        /* \"#utility.yul\":1355:1477   */\n    tag_48:\n        /* \"#utility.yul\":1428:1452   */\n      tag_68\n        /* \"#utility.yul\":1446:1451   */\n      dup2\n        /* \"#utility.yul\":1428:1452   */\n      tag_43\n      jump\t// in\n    tag_68:\n        /* \"#utility.yul\":1421:1426   */\n      dup2\n        /* \"#utility.yul\":1418:1453   */\n      eq\n        /* \"#utility.yul\":1408:1471   */\n      tag_69\n      jumpi\n        /* \"#utility.yul\":1467:1468   */\n      0x00\n        /* \"#utility.yul\":1464:1465   */\n      dup1\n        /* \"#utility.yul\":1457:1469   */\n      revert\n        /* \"#utility.yul\":1408:1471   */\n    tag_69:\n        /* \"#utility.yul\":1355:1477   */\n      pop\n      jump\t// out\n        /* \"#utility.yul\":1483:1622   */\n    tag_49:\n        /* \"#utility.yul\":1529:1534   */\n      0x00\n        /* \"#utility.yul\":1567:1573   */\n      dup2\n        /* \"#utility.yul\":1554:1574   */\n      calldataload\n        /* \"#utility.yul\":1545:1574   */\n      swap1\n      pop\n        /* \"#utility.yul\":1583:1616   */\n      tag_71\n        /* \"#utility.yul\":1610:1615   */\n      dup2\n        /* \"#utility.yul\":1583:1616   */\n      tag_48\n      jump\t// in\n    tag_71:\n        /* \"#utility.yul\":1483:1622   */\n      swap3\n      swap2\n      pop\n      pop\n      jump\t// out\n        /* \"#utility.yul\":1628:1957   */\n    tag_20:\n        /* \"#utility.yul\":1687:1693   */\n      0x00\n        /* \"#utility.yul\":1736:1738   */\n      0x20\n        /* \"#utility.yul\":1724:1733   */\n      dup3\n        /* \"#utility.yul\":1715:1722   */\n      dup5\n        /* \"#utility.yul\":1711:1734   */\n      sub\n        /* \"#utility.yul\":1707:1739   */\n      slt\n        /* \"#utility.yul\":1704:1823   */\n      iszero\n      tag_73\n      jumpi\n        /* \"#utility.yul\":1742:1821   */\n      tag_74\n      tag_46\n      jump\t// in\n    tag_74:\n        /* \"#utility.yul\":1704:1823   */\n    tag_73:\n        /* \"#utility.yul\":1862:1863   */\n      0x00\n        /* \"#utility.yul\":1887:1940   */\n      tag_75\n        /* \"#utility.yul\":1932:1939   */\n      dup5\n        /* \"#utility.yul\":1923:1929   */\n      dup3\n        /* \"#utility.yul\":1912:1921   */\n      dup6\n        /* \"#utility.yul\":1908:1930   */\n      add\n        /* \"#utility.yul\":1887:1940   */\n      tag_49\n      jump\t// in\n    tag_75:\n        /* \"#utility.yul\":1877:1940   */\n      swap2\n      pop\n        /* \"#utility.yul\":1833:1950   */\n      pop\n        /* \"#utility.yul\":1628:1957   */\n      swap3\n      swap2\n      pop\n      pop\n      jump\t// out\n        /* \"#utility.yul\":1963:2143   */\n    tag_50:\n        /* \"#utility.yul\":2011:2088   */\n      0x4e487b7100000000000000000000000000000000000000000000000000000000\n        /* \"#utility.yul\":2008:2009   */\n      0x00\n        /* \"#utility.yul\":2001:2089   */\n      mstore\n        /* \"#utility.yul\":2108:2112   */\n      0x11\n        /* \"#utility.yul\":2105:2106   */\n      0x04\n        /* \"#utility.yul\":2098:2113   */\n      mstore\n        /* \"#utility.yul\":2132:2136   */\n      0x24\n        /* \"#utility.yul\":2129:2130   */\n      0x00\n        /* \"#utility.yul\":2122:2137   */\n      revert\n        /* \"#utility.yul\":2149:2340   */\n    tag_31:\n        /* \"#utility.yul\":2189:2192   */\n      0x00\n        /* \"#utility.yul\":2208:2228   */\n      tag_78\n        /* \"#utility.yul\":2226:2227   */\n      dup3\n        /* \"#utility.yul\":2208:2228   */\n      tag_43\n      jump\t// in\n    tag_78:\n        /* \"#utility.yul\":2203:2228   */\n      swap2\n      pop\n        /* \"#utility.yul\":2242:2262   */\n      tag_79\n        /* \"#utility.yul\":2260:2261   */\n      dup4\n        /* \"#utility.yul\":2242:2262   */\n      tag_43\n      jump\t// in\n    tag_79:\n        /* \"#utility.yul\":2237:2262   */\n      swap3\n      pop\n        /* \"#utility.yul\":2285:2286   */\n      dup3\n        /* \"#utility.yul\":2282:2283   */\n      dup3\n        /* \"#utility.yul\":2278:2287   */\n      add\n        /* \"#utility.yul\":2271:2287   */\n      swap1\n      pop\n        /* \"#utility.yul\":2306:2309   */\n      dup1\n        /* \"#utility.yul\":2303:2304   */\n      dup3\n        /* \"#utility.yul\":2300:2310   */\n      gt\n        /* \"#utility.yul\":2297:2333   */\n      iszero\n      tag_80\n      jumpi\n        /* \"#utility.yul\":2313:2331   */\n      tag_81\n      tag_50\n      jump\t// in\n    tag_81:\n        /* \"#utility.yul\":2297:2333   */\n    tag_80:\n        /* \"#utility.yul\":2149:2340   */\n      swap3\n      swap2\n      pop\n      pop\n      jump\t// out\n        /* \"#utility.yul\":2346:2579   */\n    tag_33:\n        /* \"#utility.yul\":2385:2388   */\n      0x00\n        /* \"#utility.yul\":2408:2432   */\n      tag_83\n        /* \"#utility.yul\":2426:2431   */\n      dup3\n        /* \"#utility.yul\":2408:2432   */\n      tag_43\n      jump\t// in\n    tag_83:\n        /* \"#utility.yul\":2399:2432   */\n      swap2\n      pop\n        /* \"#utility.yul\":2454:2520   */\n      0xffffffffffffffffffffffffffffffffffffffffffffffffffffffffffffffff\n        /* \"#utility.yul\":2447:2452   */\n      dup3\n        /* \"#utility.yul\":2444:2521   */\n      sub\n        /* \"#utility.yul\":2441:2544   */\n      tag_84\n      jumpi\n        /* \"#utility.yul\":2524:2542   */\n      tag_85\n      tag_50\n      jump\t// in\n    tag_85:\n        /* \"#utility.yul\":2441:2544   */\n    tag_84:\n        /* \"#utility.yul\":2571:2572   */\n      0x01\n        /* \"#utility.yul\":2564:2569   */\n      dup3\n        /* \"#utility.yul\":2560:2573   */\n      add\n        /* \"#utility.yul\":2553:2573   */\n      swap1\n      pop\n        /* \"#utility.yul\":2346:2579   */\n      swap2\n      swap1\n      pop\n      jump\t// out\n        /* \"#utility.yul\":2585:2779   */\n    tag_38:\n        /* \"#utility.yul\":2625:2629   */\n      0x00\n        /* \"#utility.yul\":2645:2665   */\n      tag_87\n        /* \"#utility.yul\":2663:2664   */\n      dup3\n        /* \"#utility.yul\":2645:2665   */\n      tag_43\n      jump\t// in\n    tag_87:\n        /* \"#utility.yul\":2640:2665   */\n      swap2\n      pop\n        /* \"#utility.yul\":2679:2699   */\n      tag_88\n        /* \"#utility.yul\":2697:2698   */\n      dup4\n        /* \"#utility.yul\":2679:2699   */\n      tag_43\n      jump\t// in\n    tag_88:\n        /* \"#utility.yul\":2674:2699   */\n      swap3\n      pop\n        /* \"#utility.yul\":2723:2724   */\n      dup3\n        /* \"#utility.yul\":2720:2721   */\n      dup3\n        /* \"#utility.yul\":2716:2725   */\n      sub\n        /* \"#utility.yul\":2708:2725   */\n      swap1\n      pop\n        /* \"#utility.yul\":2747:2748   */\n      dup2\n        /* \"#utility.yul\":2741:2745   */\n      dup2\n        /* \"#utility.yul\":2738:2749   */\n      gt\n        /* \"#utility.yul\":2735:2772   */\n      iszero\n      tag_89\n      jumpi\n        /* \"#utility.yul\":2752:2770   */\n      tag_90\n      tag_50\n      jump\t// in\n    tag_90:\n        /* \"#utility.yul\":2735:2772   */\n    tag_89:\n        /* \"#utility.yul\":2585:2779   */\n      swap3\n      swap2\n      pop\n      pop\n      jump\t// out\n\n    auxdata: 0xa2646970667358221220ada816bb9cdeeedc7f8b5e1d769414f0da0d674dcc2354988c0ce7b97ca4d9cc64736f6c63430008120033\n}\n",
				"bytecode": {
					"linkReferences": {},
					"object": "608060405234801561001057600080fd5b506103c8806100206000396000f3fe608060405234801561001057600080fd5b50600436106100575760003560e01c8063547fa8691461005c57806396f1b6be1461007a578063be9a655514610098578063c5254ccc146100a2578063de292789146100be575b600080fd5b6100646100dc565b6040516100719190610206565b60405180910390f35b610082610105565b60405161008f919061023a565b60405180910390f35b6100a061014b565b005b6100bc60048036038101906100b79190610286565b610195565b005b6100c66101bb565b6040516100d3919061023a565b60405180910390f35b60008060009054906101000a900473ffffffffffffffffffffffffffffffffffffffff16905090565b600080600090505b600681101561014257806001600082825461012891906102e2565b92505081905550808061013a90610316565b91505061010d565b50600154905090565b336000806101000a81548173ffffffffffffffffffffffffffffffffffffffff021916908373ffffffffffffffffffffffffffffffffffffffff1602179055506064600181905550565b80600154106101b85780600160008282546101b0919061035e565b925050819055505b50565b6000600154905090565b600073ffffffffffffffffffffffffffffffffffffffff82169050919050565b60006101f0826101c5565b9050919050565b610200816101e5565b82525050565b600060208201905061021b60008301846101f7565b92915050565b6000819050919050565b61023481610221565b82525050565b600060208201905061024f600083018461022b565b92915050565b600080fd5b61026381610221565b811461026e57600080fd5b50565b6000813590506102808161025a565b92915050565b60006020828403121561029c5761029b610255565b5b60006102aa84828501610271565b91505092915050565b7f4e487b7100000000000000000000000000000000000000000000000000000000600052601160045260246000fd5b60006102ed82610221565b91506102f883610221565b92508282019050808211156103105761030f6102b3565b5b92915050565b600061032182610221565b91507fffffffffffffffffffffffffffffffffffffffffffffffffffffffffffffffff8203610353576103526102b3565b5b600182019050919050565b600061036982610221565b915061037483610221565b925082820390508181111561038c5761038b6102b3565b5b9291505056fea2646970667358221220ada816bb9cdeeedc7f8b5e1d769414f0da0d674dcc2354988c0ce7b97ca4d9cc64736f6c63430008120033",
					"opcodes": "PUSH1 0x80 PUSH1 0x40 MSTORE CALLVALUE DUP1 ISZERO PUSH2 0x10 JUMPI PUSH1 0x0 DUP1 REVERT JUMPDEST POP PUSH2 0x3C8 DUP1 PUSH2 0x20 PUSH1 0x0 CODECOPY PUSH1 0x0 RETURN INVALID PUSH1 0x80 PUSH1 0x40 MSTORE CALLVALUE DUP1 ISZERO PUSH2 0x10 JUMPI PUSH1 0x0 DUP1 REVERT JUMPDEST POP PUSH1 0x4 CALLDATASIZE LT PUSH2 0x57 JUMPI PUSH1 0x0 CALLDATALOAD PUSH1 0xE0 SHR DUP1 PUSH4 0x547FA869 EQ PUSH2 0x5C JUMPI DUP1 PUSH4 0x96F1B6BE EQ PUSH2 0x7A JUMPI DUP1 PUSH4 0xBE9A6555 EQ PUSH2 0x98 JUMPI DUP1 PUSH4 0xC5254CCC EQ PUSH2 0xA2 JUMPI DUP1 PUSH4 0xDE292789 EQ PUSH2 0xBE JUMPI JUMPDEST PUSH1 0x0 DUP1 REVERT JUMPDEST PUSH2 0x64 PUSH2 0xDC JUMP JUMPDEST PUSH1 0x40 MLOAD PUSH2 0x71 SWAP2 SWAP1 PUSH2 0x206 JUMP JUMPDEST PUSH1 0x40 MLOAD DUP1 SWAP2 SUB SWAP1 RETURN JUMPDEST PUSH2 0x82 PUSH2 0x105 JUMP JUMPDEST PUSH1 0x40 MLOAD PUSH2 0x8F SWAP2 SWAP1 PUSH2 0x23A JUMP JUMPDEST PUSH1 0x40 MLOAD DUP1 SWAP2 SUB SWAP1 RETURN JUMPDEST PUSH2 0xA0 PUSH2 0x14B JUMP JUMPDEST STOP JUMPDEST PUSH2 0xBC PUSH1 0x4 DUP1 CALLDATASIZE SUB DUP2 ADD SWAP1 PUSH2 0xB7 SWAP2 SWAP1 PUSH2 0x286 JUMP JUMPDEST PUSH2 0x195 JUMP JUMPDEST STOP JUMPDEST PUSH2 0xC6 PUSH2 0x1BB JUMP JUMPDEST PUSH1 0x40 MLOAD PUSH2 0xD3 SWAP2 SWAP1 PUSH2 0x23A JUMP JUMPDEST PUSH1 0x40 MLOAD DUP1 SWAP2 SUB SWAP1 RETURN JUMPDEST PUSH1 0x0 DUP1 PUSH1 0x0 SWAP1 SLOAD SWAP1 PUSH2 0x100 EXP SWAP1 DIV PUSH20 0xFFFFFFFFFFFFFFFFFFFFFFFFFFFFFFFFFFFFFFFF AND SWAP1 POP SWAP1 JUMP JUMPDEST PUSH1 0x0 DUP1 PUSH1 0x0 SWAP1 POP JUMPDEST PUSH1 0x6 DUP2 LT ISZERO PUSH2 0x142 JUMPI DUP1 PUSH1 0x1 PUSH1 0x0 DUP3 DUP3 SLOAD PUSH2 0x128 SWAP2 SWAP1 PUSH2 0x2E2 JUMP JUMPDEST SWAP3 POP POP DUP2 SWAP1 SSTORE POP DUP1 DUP1 PUSH2 0x13A SWAP1 PUSH2 0x316 JUMP JUMPDEST SWAP2 POP POP PUSH2 0x10D JUMP JUMPDEST POP PUSH1 0x1 SLOAD SWAP1 POP SWAP1 JUMP JUMPDEST CALLER PUSH1 0x0 DUP1 PUSH2 0x100 EXP DUP2 SLOAD DUP2 PUSH20 0xFFFFFFFFFFFFFFFFFFFFFFFFFFFFFFFFFFFFFFFF MUL NOT AND SWAP1 DUP4 PUSH20 0xFFFFFFFFFFFFFFFFFFFFFFFFFFFFFFFFFFFFFFFF AND MUL OR SWAP1 SSTORE POP PUSH1 0x64 PUSH1 0x1 DUP2 SWAP1 SSTORE POP JUMP JUMPDEST DUP1 PUSH1 0x1 SLOAD LT PUSH2 0x1B8 JUMPI DUP1 PUSH1 0x1 PUSH1 0x0 DUP3 DUP3 SLOAD PUSH2 0x1B0 SWAP2 SWAP1 PUSH2 0x35E JUMP JUMPDEST SWAP3 POP POP DUP2 SWAP1 SSTORE POP JUMPDEST POP JUMP JUMPDEST PUSH1 0x0 PUSH1 0x1 SLOAD SWAP1 POP SWAP1 JUMP JUMPDEST PUSH1 0x0 PUSH20 0xFFFFFFFFFFFFFFFFFFFFFFFFFFFFFFFFFFFFFFFF DUP3 AND SWAP1 POP SWAP2 SWAP1 POP JUMP JUMPDEST PUSH1 0x0 PUSH2 0x1F0 DUP3 PUSH2 0x1C5 JUMP JUMPDEST SWAP1 POP SWAP2 SWAP1 POP JUMP JUMPDEST PUSH2 0x200 DUP2 PUSH2 0x1E5 JUMP JUMPDEST DUP3 MSTORE POP POP JUMP JUMPDEST PUSH1 0x0 PUSH1 0x20 DUP3 ADD SWAP1 POP PUSH2 0x21B PUSH1 0x0 DUP4 ADD DUP5 PUSH2 0x1F7 JUMP JUMPDEST SWAP3 SWAP2 POP POP JUMP JUMPDEST PUSH1 0x0 DUP2 SWAP1 POP SWAP2 SWAP1 POP JUMP JUMPDEST PUSH2 0x234 DUP2 PUSH2 0x221 JUMP JUMPDEST DUP3 MSTORE POP POP JUMP JUMPDEST PUSH1 0x0 PUSH1 0x20 DUP3 ADD SWAP1 POP PUSH2 0x24F PUSH1 0x0 DUP4 ADD DUP5 PUSH2 0x22B JUMP JUMPDEST SWAP3 SWAP2 POP POP JUMP JUMPDEST PUSH1 0x0 DUP1 REVERT JUMPDEST PUSH2 0x263 DUP2 PUSH2 0x221 JUMP JUMPDEST DUP2 EQ PUSH2 0x26E JUMPI PUSH1 0x0 DUP1 REVERT JUMPDEST POP JUMP JUMPDEST PUSH1 0x0 DUP2 CALLDATALOAD SWAP1 POP PUSH2 0x280 DUP2 PUSH2 0x25A JUMP JUMPDEST SWAP3 SWAP2 POP POP JUMP JUMPDEST PUSH1 0x0 PUSH1 0x20 DUP3 DUP5 SUB SLT ISZERO PUSH2 0x29C JUMPI PUSH2 0x29B PUSH2 0x255 JUMP JUMPDEST JUMPDEST PUSH1 0x0 PUSH2 0x2AA DUP5 DUP3 DUP6 ADD PUSH2 0x271 JUMP JUMPDEST SWAP2 POP POP SWAP3 SWAP2 POP POP JUMP JUMPDEST PUSH32 0x4E487B7100000000000000000000000000000000000000000000000000000000 PUSH1 0x0 MSTORE PUSH1 0x11 PUSH1 0x4 MSTORE PUSH1 0x24 PUSH1 0x0 REVERT JUMPDEST PUSH1 0x0 PUSH2 0x2ED DUP3 PUSH2 0x221 JUMP JUMPDEST SWAP2 POP PUSH2 0x2F8 DUP4 PUSH2 0x221 JUMP JUMPDEST SWAP3 POP DUP3 DUP3 ADD SWAP1 POP DUP1 DUP3 GT ISZERO PUSH2 0x310 JUMPI PUSH2 0x30F PUSH2 0x2B3 JUMP JUMPDEST JUMPDEST SWAP3 SWAP2 POP POP JUMP JUMPDEST PUSH1 0x0 PUSH2 0x321 DUP3 PUSH2 0x221 JUMP JUMPDEST SWAP2 POP PUSH32 0xFFFFFFFFFFFFFFFFFFFFFFFFFFFFFFFFFFFFFFFFFFFFFFFFFFFFFFFFFFFFFFFF DUP3 SUB PUSH2 0x353 JUMPI PUSH2 0x352 PUSH2 0x2B3 JUMP JUMPDEST JUMPDEST PUSH1 0x1 DUP3 ADD SWAP1 POP SWAP2 SWAP1 POP JUMP JUMPDEST PUSH1 0x0 PUSH2 0x369 DUP3 PUSH2 0x221 JUMP JUMPDEST SWAP2 POP PUSH2 0x374 DUP4 PUSH2 0x221 JUMP JUMPDEST SWAP3 POP DUP3 DUP3 SUB SWAP1 POP DUP2 DUP2 GT ISZERO PUSH2 0x38C JUMPI PUSH2 0x38B PUSH2 0x2B3 JUMP JUMPDEST JUMPDEST SWAP3 SWAP2 POP POP JUMP INVALID LOG2 PUSH5 0x6970667358 0x22 SLT KECCAK256 0xAD 0xA8 AND 0xBB SWAP13 0xDE 0xEE 0xDC PUSH32 0x8B5E1D769414F0DA0D674DCC2354988C0CE7B97CA4D9CC64736F6C6343000812 STOP CALLER "
				},
				"gasEstimates": {
					"creation": {
						"codeDepositCost": "193600",
						"executionCost": "238",
						"totalCost": "193838"
					},
					"external": {
						"calc()": "infinite",
						"getResult()": "2503",
						"minusMoney(uint256)": "infinite",
						"showUserInfo()": "2500",
						"start()": "46546"
					}
				},
				"methodIdentifiers": {
					"calc()": "96f1b6be",
					"getResult()": "de292789",
					"minusMoney(uint256)": "c5254ccc",
					"showUserInfo()": "547fa869",
					"start()": "be9a6555"
				}
			},
			"storageLayout": {
				"storage": [
					{
						"astId": 3,
						"contract": "sol/0523/02.sol:myToken",
						"label": "userAddr",
						"offset": 0,
						"slot": "0",
						"type": "t_address"
					},
					{
						"astId": 5,
						"contract": "sol/0523/02.sol:myToken",
						"label": "result",
						"offset": 0,
						"slot": "1",
						"type": "t_uint256"
					},
					{
						"astId": 7,
						"contract": "sol/0523/02.sol:myToken",
						"label": "userMoney",
						"offset": 0,
						"slot": "2",
						"type": "t_uint256"
					}
				],
				"types": {
					"t_address": {
						"encoding": "inplace",
						"label": "address",
						"numberOfBytes": "20"
					},
					"t_uint256": {
						"encoding": "inplace",
						"label": "uint256",
						"numberOfBytes": "32"
					}
				}
			},
			"userdoc": {
				"kind": "user",
				"methods": {},
				"version": 1
			}
		}
	}
}