{
	"sol/0523/03.sol": {
		"myToken": {
			"abi": [
				{
					"anonymous": false,
					"inputs": [
						{
							"indexed": false,
							"internalType": "address",
							"name": "from",
							"type": "address"
						},
						{
							"indexed": false,
							"internalType": "address",
							"name": "to",
							"type": "address"
						},
						{
							"indexed": false,
							"internalType": "uint256",
							"name": "amount",
							"type": "uint256"
						}
					],
					"name": "_transfer",
					"type": "event"
				},
				{
					"inputs": [
						{
							"internalType": "address",
							"name": "_addr",
							"type": "address"
						}
					],
					"name": "balanceOf",
					"outputs": [
						{
							"internalType": "uint256",
							"name": "",
							"type": "uint256"
						}
					],
					"stateMutability": "view",
					"type": "function"
				},
				{
					"inputs": [],
					"name": "decimal",
					"outputs": [
						{
							"internalType": "uint256",
							"name": "",
							"type": "uint256"
						}
					],
					"stateMutability": "view",
					"type": "function"
				},
				{
					"inputs": [],
					"name": "name",
					"outputs": [
						{
							"internalType": "string",
							"name": "",
							"type": "string"
						}
					],
					"stateMutability": "view",
					"type": "function"
				},
				{
					"inputs": [
						{
							"internalType": "string",
							"name": "_name",
							"type": "string"
						},
						{
							"internalType": "string",
							"name": "_symbol",
							"type": "string"
						},
						{
							"internalType": "uint256",
							"name": "_totalSupply",
							"type": "uint256"
						},
						{
							"internalType": "uint256",
							"name": "_decimal",
							"type": "uint256"
						}
					],
					"name": "start",
					"outputs": [],
					"stateMutability": "nonpayable",
					"type": "function"
				},
				{
					"inputs": [],
					"name": "symbol",
					"outputs": [
						{
							"internalType": "string",
							"name": "",
							"type": "string"
						}
					],
					"stateMutability": "view",
					"type": "function"
				},
				{
					"inputs": [],
					"name": "totalSupply",
					"outputs": [
						{
							"internalType": "uint256",
							"name": "",
							"type": "uint256"
						}
					],
					"stateMutability": "view",
					"type": "function"
				},
				{
					"inputs": [
						{
							"internalType": "address",
							"name": "_to",
							"type": "address"
						},
						{
							"internalType": "uint256",
							"name": "_amount",
							"type": "uint256"
						}
					],
					"name": "transfer",
					"outputs": [],
					"stateMutability": "nonpayable",
					"type": "function"
				}
			],
			"devdoc": {
				"kind": "dev",
				"methods": {},
				"version": 1
			},
			"evm": {
				"assembly": "    /* \"sol/0523/03.sol\":74:1952  contract myToken {... */\n  mstore(0x40, 0x80)\n  callvalue\n  dup1\n  iszero\n  tag_1\n  jumpi\n  0x00\n  dup1\n  revert\ntag_1:\n  pop\n  dataSize(sub_0)\n  dup1\n  dataOffset(sub_0)\n  0x00\n  codecopy\n  0x00\n  return\nstop\n\nsub_0: assembly {\n        /* \"sol/0523/03.sol\":74:1952  contract myToken {... */\n      mstore(0x40, 0x80)\n      callvalue\n      dup1\n      iszero\n      tag_1\n      jumpi\n      0x00\n      dup1\n      revert\n    tag_1:\n      pop\n      jumpi(tag_2, lt(calldatasize, 0x04))\n      shr(0xe0, calldataload(0x00))\n      dup1\n      0x70a08231\n      gt\n      tag_10\n      jumpi\n      dup1\n      0x70a08231\n      eq\n      tag_6\n      jumpi\n      dup1\n      0x76809ce3\n      eq\n      tag_7\n      jumpi\n      dup1\n      0x95d89b41\n      eq\n      tag_8\n      jumpi\n      dup1\n      0xa9059cbb\n      eq\n      tag_9\n      jumpi\n      jump(tag_2)\n    tag_10:\n      dup1\n      0x06fdde03\n      eq\n      tag_3\n      jumpi\n      dup1\n      0x18160ddd\n      eq\n      tag_4\n      jumpi\n      dup1\n      0x400ffb33\n      eq\n      tag_5\n      jumpi\n    tag_2:\n      0x00\n      dup1\n      revert\n        /* \"sol/0523/03.sol\":834:920  function name() public view returns(string memory) {... */\n    tag_3:\n      tag_11\n      tag_12\n      jump\t// in\n    tag_11:\n      mload(0x40)\n      tag_13\n      swap2\n      swap1\n      tag_14\n      jump\t// in\n    tag_13:\n      mload(0x40)\n      dup1\n      swap2\n      sub\n      swap1\n      return\n        /* \"sol/0523/03.sol\":1026:1117  function totalSupply() public view returns(uint) {... */\n    tag_4:\n      tag_15\n      tag_16\n      jump\t// in\n    tag_15:\n      mload(0x40)\n      tag_17\n      swap2\n      swap1\n      tag_18\n      jump\t// in\n    tag_17:\n      mload(0x40)\n      dup1\n      swap2\n      sub\n      swap1\n      return\n        /* \"sol/0523/03.sol\":514:762  function start(string memory _name, string memory _symbol, uint _totalSupply, uint _decimal) public{... */\n    tag_5:\n      tag_19\n      0x04\n      dup1\n      calldatasize\n      sub\n      dup2\n      add\n      swap1\n      tag_20\n      swap2\n      swap1\n      tag_21\n      jump\t// in\n    tag_20:\n      tag_22\n      jump\t// in\n    tag_19:\n      stop\n        /* \"sol/0523/03.sol\":1216:1317  function balanceOf(address _addr) public view returns(uint) {... */\n    tag_6:\n      tag_23\n      0x04\n      dup1\n      calldatasize\n      sub\n      dup2\n      add\n      swap1\n      tag_24\n      swap2\n      swap1\n      tag_25\n      jump\t// in\n    tag_24:\n      tag_26\n      jump\t// in\n    tag_23:\n      mload(0x40)\n      tag_27\n      swap2\n      swap1\n      tag_18\n      jump\t// in\n    tag_27:\n      mload(0x40)\n      dup1\n      swap2\n      sub\n      swap1\n      return\n        /* \"sol/0523/03.sol\":1125:1208  function decimal() public view returns(uint) {... */\n    tag_7:\n      tag_28\n      tag_29\n      jump\t// in\n    tag_28:\n      mload(0x40)\n      tag_30\n      swap2\n      swap1\n      tag_18\n      jump\t// in\n    tag_30:\n      mload(0x40)\n      dup1\n      swap2\n      sub\n      swap1\n      return\n        /* \"sol/0523/03.sol\":928:1018  function symbol() public view returns(string memory) {... */\n    tag_8:\n      tag_31\n      tag_32\n      jump\t// in\n    tag_31:\n      mload(0x40)\n      tag_33\n      swap2\n      swap1\n      tag_14\n      jump\t// in\n    tag_33:\n      mload(0x40)\n      dup1\n      swap2\n      sub\n      swap1\n      return\n        /* \"sol/0523/03.sol\":1633:1949  function transfer(address _to, uint _amount) public {... */\n    tag_9:\n      tag_34\n      0x04\n      dup1\n      calldatasize\n      sub\n      dup2\n      add\n      swap1\n      tag_35\n      swap2\n      swap1\n      tag_36\n      jump\t// in\n    tag_35:\n      tag_37\n      jump\t// in\n    tag_34:\n      stop\n        /* \"sol/0523/03.sol\":834:920  function name() public view returns(string memory) {... */\n    tag_12:\n        /* \"sol/0523/03.sol\":870:883  string memory */\n      0x60\n        /* \"sol/0523/03.sol\":903:912  tokenName */\n      0x00\n        /* \"sol/0523/03.sol\":896:912  return tokenName */\n      dup1\n      sload\n      tag_39\n      swap1\n      tag_40\n      jump\t// in\n    tag_39:\n      dup1\n      0x1f\n      add\n      0x20\n      dup1\n      swap2\n      div\n      mul\n      0x20\n      add\n      mload(0x40)\n      swap1\n      dup2\n      add\n      0x40\n      mstore\n      dup1\n      swap3\n      swap2\n      swap1\n      dup2\n      dup2\n      mstore\n      0x20\n      add\n      dup3\n      dup1\n      sload\n      tag_41\n      swap1\n      tag_40\n      jump\t// in\n    tag_41:\n      dup1\n      iszero\n      tag_42\n      jumpi\n      dup1\n      0x1f\n      lt\n      tag_43\n      jumpi\n      0x0100\n      dup1\n      dup4\n      sload\n      div\n      mul\n      dup4\n      mstore\n      swap2\n      0x20\n      add\n      swap2\n      jump(tag_42)\n    tag_43:\n      dup3\n      add\n      swap2\n      swap1\n      0x00\n      mstore\n      keccak256(0x00, 0x20)\n      swap1\n    tag_44:\n      dup2\n      sload\n      dup2\n      mstore\n      swap1\n      0x01\n      add\n      swap1\n      0x20\n      add\n      dup1\n      dup4\n      gt\n      tag_44\n      jumpi\n      dup3\n      swap1\n      sub\n      0x1f\n      and\n      dup3\n      add\n      swap2\n    tag_42:\n      pop\n      pop\n      pop\n      pop\n      pop\n      swap1\n      pop\n        /* \"sol/0523/03.sol\":834:920  function name() public view returns(string memory) {... */\n      swap1\n      jump\t// out\n        /* \"sol/0523/03.sol\":1026:1117  function totalSupply() public view returns(uint) {... */\n    tag_16:\n        /* \"sol/0523/03.sol\":1069:1073  uint */\n      0x00\n        /* \"sol/0523/03.sol\":1093:1109  tokenTotalSupply */\n      sload(0x02)\n        /* \"sol/0523/03.sol\":1086:1109  return tokenTotalSupply */\n      swap1\n      pop\n        /* \"sol/0523/03.sol\":1026:1117  function totalSupply() public view returns(uint) {... */\n      swap1\n      jump\t// out\n        /* \"sol/0523/03.sol\":514:762  function start(string memory _name, string memory _symbol, uint _totalSupply, uint _decimal) public{... */\n    tag_22:\n        /* \"sol/0523/03.sol\":636:641  _name */\n      dup4\n        /* \"sol/0523/03.sol\":624:633  tokenName */\n      0x00\n        /* \"sol/0523/03.sol\":624:641  tokenName = _name */\n      swap1\n      dup2\n      tag_47\n      swap2\n      swap1\n      tag_48\n      jump\t// in\n    tag_47:\n      pop\n        /* \"sol/0523/03.sol\":666:673  _symbol */\n      dup3\n        /* \"sol/0523/03.sol\":652:663  tokenSymbol */\n      0x01\n        /* \"sol/0523/03.sol\":652:673  tokenSymbol = _symbol */\n      swap1\n      dup2\n      tag_49\n      swap2\n      swap1\n      tag_48\n      jump\t// in\n    tag_49:\n      pop\n        /* \"sol/0523/03.sol\":699:707  _decimal */\n      dup1\n        /* \"sol/0523/03.sol\":684:696  tokenDecimal */\n      0x03\n        /* \"sol/0523/03.sol\":684:707  tokenDecimal = _decimal */\n      dup2\n      swap1\n      sstore\n      pop\n        /* \"sol/0523/03.sol\":718:747  mint(msg.sender,_totalSupply) */\n      tag_50\n        /* \"sol/0523/03.sol\":723:733  msg.sender */\n      caller\n        /* \"sol/0523/03.sol\":734:746  _totalSupply */\n      dup4\n        /* \"sol/0523/03.sol\":718:722  mint */\n      tag_51\n        /* \"sol/0523/03.sol\":718:747  mint(msg.sender,_totalSupply) */\n      jump\t// in\n    tag_50:\n        /* \"sol/0523/03.sol\":514:762  function start(string memory _name, string memory _symbol, uint _totalSupply, uint _decimal) public{... */\n      pop\n      pop\n      pop\n      pop\n      jump\t// out\n        /* \"sol/0523/03.sol\":1216:1317  function balanceOf(address _addr) public view returns(uint) {... */\n    tag_26:\n        /* \"sol/0523/03.sol\":1270:1274  uint */\n      0x00\n        /* \"sol/0523/03.sol\":1294:1302  balances */\n      0x04\n        /* \"sol/0523/03.sol\":1294:1309  balances[_addr] */\n      0x00\n        /* \"sol/0523/03.sol\":1303:1308  _addr */\n      dup4\n        /* \"sol/0523/03.sol\":1294:1309  balances[_addr] */\n      0xffffffffffffffffffffffffffffffffffffffff\n      and\n      0xffffffffffffffffffffffffffffffffffffffff\n      and\n      dup2\n      mstore\n      0x20\n      add\n      swap1\n      dup2\n      mstore\n      0x20\n      add\n      0x00\n      keccak256\n      sload\n        /* \"sol/0523/03.sol\":1287:1309  return balances[_addr] */\n      swap1\n      pop\n        /* \"sol/0523/03.sol\":1216:1317  function balanceOf(address _addr) public view returns(uint) {... */\n      swap2\n      swap1\n      pop\n      jump\t// out\n        /* \"sol/0523/03.sol\":1125:1208  function decimal() public view returns(uint) {... */\n    tag_29:\n        /* \"sol/0523/03.sol\":1164:1168  uint */\n      0x00\n        /* \"sol/0523/03.sol\":1188:1200  tokenDecimal */\n      sload(0x03)\n        /* \"sol/0523/03.sol\":1181:1200  return tokenDecimal */\n      swap1\n      pop\n        /* \"sol/0523/03.sol\":1125:1208  function decimal() public view returns(uint) {... */\n      swap1\n      jump\t// out\n        /* \"sol/0523/03.sol\":928:1018  function symbol() public view returns(string memory) {... */\n    tag_32:\n        /* \"sol/0523/03.sol\":966:979  string memory */\n      0x60\n        /* \"sol/0523/03.sol\":999:1010  tokenSymbol */\n      0x01\n        /* \"sol/0523/03.sol\":992:1010  return tokenSymbol */\n      dup1\n      sload\n      tag_55\n      swap1\n      tag_40\n      jump\t// in\n    tag_55:\n      dup1\n      0x1f\n      add\n      0x20\n      dup1\n      swap2\n      div\n      mul\n      0x20\n      add\n      mload(0x40)\n      swap1\n      dup2\n      add\n      0x40\n      mstore\n      dup1\n      swap3\n      swap2\n      swap1\n      dup2\n      dup2\n      mstore\n      0x20\n      add\n      dup3\n      dup1\n      sload\n      tag_56\n      swap1\n      tag_40\n      jump\t// in\n    tag_56:\n      dup1\n      iszero\n      tag_57\n      jumpi\n      dup1\n      0x1f\n      lt\n      tag_58\n      jumpi\n      0x0100\n      dup1\n      dup4\n      sload\n      div\n      mul\n      dup4\n      mstore\n      swap2\n      0x20\n      add\n      swap2\n      jump(tag_57)\n    tag_58:\n      dup3\n      add\n      swap2\n      swap1\n      0x00\n      mstore\n      keccak256(0x00, 0x20)\n      swap1\n    tag_59:\n      dup2\n      sload\n      dup2\n      mstore\n      swap1\n      0x01\n      add\n      swap1\n      0x20\n      add\n      dup1\n      dup4\n      gt\n      tag_59\n      jumpi\n      dup3\n      swap1\n      sub\n      0x1f\n      and\n      dup3\n      add\n      swap2\n    tag_57:\n      pop\n      pop\n      pop\n      pop\n      pop\n      swap1\n      pop\n        /* \"sol/0523/03.sol\":928:1018  function symbol() public view returns(string memory) {... */\n      swap1\n      jump\t// out\n        /* \"sol/0523/03.sol\":1633:1949  function transfer(address _to, uint _amount) public {... */\n    tag_37:\n        /* \"sol/0523/03.sol\":1776:1783  _amount */\n      dup1\n        /* \"sol/0523/03.sol\":1752:1760  balances */\n      0x04\n        /* \"sol/0523/03.sol\":1752:1772  balances[msg.sender] */\n      0x00\n        /* \"sol/0523/03.sol\":1761:1771  msg.sender */\n      caller\n        /* \"sol/0523/03.sol\":1752:1772  balances[msg.sender] */\n      0xffffffffffffffffffffffffffffffffffffffff\n      and\n      0xffffffffffffffffffffffffffffffffffffffff\n      and\n      dup2\n      mstore\n      0x20\n      add\n      swap1\n      dup2\n      mstore\n      0x20\n      add\n      0x00\n      keccak256\n      sload\n        /* \"sol/0523/03.sol\":1752:1783  balances[msg.sender] >= _amount */\n      lt\n      iszero\n        /* \"sol/0523/03.sol\":1743:1811  require( balances[msg.sender] >= _amount, \"Too much to send tokens\") */\n      tag_61\n      jumpi\n      mload(0x40)\n      0x08c379a000000000000000000000000000000000000000000000000000000000\n      dup2\n      mstore\n      0x04\n      add\n      tag_62\n      swap1\n      tag_63\n      jump\t// in\n    tag_62:\n      mload(0x40)\n      dup1\n      swap2\n      sub\n      swap1\n      revert\n    tag_61:\n        /* \"sol/0523/03.sol\":1846:1853  _amount */\n      dup1\n        /* \"sol/0523/03.sol\":1822:1830  balances */\n      0x04\n        /* \"sol/0523/03.sol\":1822:1842  balances[msg.sender] */\n      0x00\n        /* \"sol/0523/03.sol\":1831:1841  msg.sender */\n      caller\n        /* \"sol/0523/03.sol\":1822:1842  balances[msg.sender] */\n      0xffffffffffffffffffffffffffffffffffffffff\n      and\n      0xffffffffffffffffffffffffffffffffffffffff\n      and\n      dup2\n      mstore\n      0x20\n      add\n      swap1\n      dup2\n      mstore\n      0x20\n      add\n      0x00\n      keccak256\n      0x00\n        /* \"sol/0523/03.sol\":1822:1853  balances[msg.sender] -= _amount */\n      dup3\n      dup3\n      sload\n      tag_64\n      swap2\n      swap1\n      tag_65\n      jump\t// in\n    tag_64:\n      swap3\n      pop\n      pop\n      dup2\n      swap1\n      sstore\n      pop\n        /* \"sol/0523/03.sol\":1881:1888  _amount */\n      dup1\n        /* \"sol/0523/03.sol\":1864:1872  balances */\n      0x04\n        /* \"sol/0523/03.sol\":1864:1877  balances[_to] */\n      0x00\n        /* \"sol/0523/03.sol\":1873:1876  _to */\n      dup5\n        /* \"sol/0523/03.sol\":1864:1877  balances[_to] */\n      0xffffffffffffffffffffffffffffffffffffffff\n      and\n      0xffffffffffffffffffffffffffffffffffffffff\n      and\n      dup2\n      mstore\n      0x20\n      add\n      swap1\n      dup2\n      mstore\n      0x20\n      add\n      0x00\n      keccak256\n      0x00\n        /* \"sol/0523/03.sol\":1864:1888  balances[_to] += _amount */\n      dup3\n      dup3\n      sload\n      tag_66\n      swap2\n      swap1\n      tag_67\n      jump\t// in\n    tag_66:\n      swap3\n      pop\n      pop\n      dup2\n      swap1\n      sstore\n      pop\n        /* \"sol/0523/03.sol\":1906:1941  _transfer(msg.sender, _to, _amount) */\n      0x30e0789ed23094f42b5810cbdf4e48a0478aec0b37810e24e912443dd0032b3c\n        /* \"sol/0523/03.sol\":1916:1926  msg.sender */\n      caller\n        /* \"sol/0523/03.sol\":1928:1931  _to */\n      dup4\n        /* \"sol/0523/03.sol\":1933:1940  _amount */\n      dup4\n        /* \"sol/0523/03.sol\":1906:1941  _transfer(msg.sender, _to, _amount) */\n      mload(0x40)\n      tag_68\n      swap4\n      swap3\n      swap2\n      swap1\n      tag_69\n      jump\t// in\n    tag_68:\n      mload(0x40)\n      dup1\n      swap2\n      sub\n      swap1\n      log1\n        /* \"sol/0523/03.sol\":1633:1949  function transfer(address _to, uint _amount) public {... */\n      pop\n      pop\n      jump\t// out\n        /* \"sol/0523/03.sol\":1417:1625  function mint(address _addr, uint amount) internal virtual {... */\n    tag_51:\n        /* \"sol/0523/03.sol\":1573:1579  amount */\n      dup1\n        /* \"sol/0523/03.sol\":1554:1562  balances */\n      0x04\n        /* \"sol/0523/03.sol\":1554:1569  balances[_addr] */\n      0x00\n        /* \"sol/0523/03.sol\":1563:1568  _addr */\n      dup5\n        /* \"sol/0523/03.sol\":1554:1569  balances[_addr] */\n      0xffffffffffffffffffffffffffffffffffffffff\n      and\n      0xffffffffffffffffffffffffffffffffffffffff\n      and\n      dup2\n      mstore\n      0x20\n      add\n      swap1\n      dup2\n      mstore\n      0x20\n      add\n      0x00\n      keccak256\n      0x00\n        /* \"sol/0523/03.sol\":1554:1579  balances[_addr] += amount */\n      dup3\n      dup3\n      sload\n      tag_71\n      swap2\n      swap1\n      tag_67\n      jump\t// in\n    tag_71:\n      swap3\n      pop\n      pop\n      dup2\n      swap1\n      sstore\n      pop\n        /* \"sol/0523/03.sol\":1611:1617  amount */\n      dup1\n        /* \"sol/0523/03.sol\":1591:1607  tokenTotalSupply */\n      0x02\n      0x00\n        /* \"sol/0523/03.sol\":1591:1617  tokenTotalSupply += amount */\n      dup3\n      dup3\n      sload\n      tag_72\n      swap2\n      swap1\n      tag_67\n      jump\t// in\n    tag_72:\n      swap3\n      pop\n      pop\n      dup2\n      swap1\n      sstore\n      pop\n        /* \"sol/0523/03.sol\":1417:1625  function mint(address _addr, uint amount) internal virtual {... */\n      pop\n      pop\n      jump\t// out\n        /* \"#utility.yul\":7:106   */\n    tag_73:\n        /* \"#utility.yul\":59:65   */\n      0x00\n        /* \"#utility.yul\":93:98   */\n      dup2\n        /* \"#utility.yul\":87:99   */\n      mload\n        /* \"#utility.yul\":77:99   */\n      swap1\n      pop\n        /* \"#utility.yul\":7:106   */\n      swap2\n      swap1\n      pop\n      jump\t// out\n        /* \"#utility.yul\":112:281   */\n    tag_74:\n        /* \"#utility.yul\":196:207   */\n      0x00\n        /* \"#utility.yul\":230:236   */\n      dup3\n        /* \"#utility.yul\":225:228   */\n      dup3\n        /* \"#utility.yul\":218:237   */\n      mstore\n        /* \"#utility.yul\":270:274   */\n      0x20\n        /* \"#utility.yul\":265:268   */\n      dup3\n        /* \"#utility.yul\":261:275   */\n      add\n        /* \"#utility.yul\":246:275   */\n      swap1\n      pop\n        /* \"#utility.yul\":112:281   */\n      swap3\n      swap2\n      pop\n      pop\n      jump\t// out\n        /* \"#utility.yul\":287:533   */\n    tag_75:\n        /* \"#utility.yul\":368:369   */\n      0x00\n        /* \"#utility.yul\":378:491   */\n    tag_122:\n        /* \"#utility.yul\":392:398   */\n      dup4\n        /* \"#utility.yul\":389:390   */\n      dup2\n        /* \"#utility.yul\":386:399   */\n      lt\n        /* \"#utility.yul\":378:491   */\n      iszero\n      tag_124\n      jumpi\n        /* \"#utility.yul\":477:478   */\n      dup1\n        /* \"#utility.yul\":472:475   */\n      dup3\n        /* \"#utility.yul\":468:479   */\n      add\n        /* \"#utility.yul\":462:480   */\n      mload\n        /* \"#utility.yul\":458:459   */\n      dup2\n        /* \"#utility.yul\":453:456   */\n      dup5\n        /* \"#utility.yul\":449:460   */\n      add\n        /* \"#utility.yul\":442:481   */\n      mstore\n        /* \"#utility.yul\":414:416   */\n      0x20\n        /* \"#utility.yul\":411:412   */\n      dup2\n        /* \"#utility.yul\":407:417   */\n      add\n        /* \"#utility.yul\":402:417   */\n      swap1\n      pop\n        /* \"#utility.yul\":378:491   */\n      jump(tag_122)\n    tag_124:\n        /* \"#utility.yul\":525:526   */\n      0x00\n        /* \"#utility.yul\":516:522   */\n      dup5\n        /* \"#utility.yul\":511:514   */\n      dup5\n        /* \"#utility.yul\":507:523   */\n      add\n        /* \"#utility.yul\":500:527   */\n      mstore\n        /* \"#utility.yul\":349:533   */\n      pop\n        /* \"#utility.yul\":287:533   */\n      pop\n      pop\n      pop\n      jump\t// out\n        /* \"#utility.yul\":539:641   */\n    tag_76:\n        /* \"#utility.yul\":580:586   */\n      0x00\n        /* \"#utility.yul\":631:633   */\n      0x1f\n        /* \"#utility.yul\":627:634   */\n      not\n        /* \"#utility.yul\":622:624   */\n      0x1f\n        /* \"#utility.yul\":615:620   */\n      dup4\n        /* \"#utility.yul\":611:625   */\n      add\n        /* \"#utility.yul\":607:635   */\n      and\n        /* \"#utility.yul\":597:635   */\n      swap1\n      pop\n        /* \"#utility.yul\":539:641   */\n      swap2\n      swap1\n      pop\n      jump\t// out\n        /* \"#utility.yul\":647:1024   */\n    tag_77:\n        /* \"#utility.yul\":735:738   */\n      0x00\n        /* \"#utility.yul\":763:802   */\n      tag_127\n        /* \"#utility.yul\":796:801   */\n      dup3\n        /* \"#utility.yul\":763:802   */\n      tag_73\n      jump\t// in\n    tag_127:\n        /* \"#utility.yul\":818:889   */\n      tag_128\n        /* \"#utility.yul\":882:888   */\n      dup2\n        /* \"#utility.yul\":877:880   */\n      dup6\n        /* \"#utility.yul\":818:889   */\n      tag_74\n      jump\t// in\n    tag_128:\n        /* \"#utility.yul\":811:889   */\n      swap4\n      pop\n        /* \"#utility.yul\":898:963   */\n      tag_129\n        /* \"#utility.yul\":956:962   */\n      dup2\n        /* \"#utility.yul\":951:954   */\n      dup6\n        /* \"#utility.yul\":944:948   */\n      0x20\n        /* \"#utility.yul\":937:942   */\n      dup7\n        /* \"#utility.yul\":933:949   */\n      add\n        /* \"#utility.yul\":898:963   */\n      tag_75\n      jump\t// in\n    tag_129:\n        /* \"#utility.yul\":988:1017   */\n      tag_130\n        /* \"#utility.yul\":1010:1016   */\n      dup2\n        /* \"#utility.yul\":988:1017   */\n      tag_76\n      jump\t// in\n    tag_130:\n        /* \"#utility.yul\":983:986   */\n      dup5\n        /* \"#utility.yul\":979:1018   */\n      add\n        /* \"#utility.yul\":972:1018   */\n      swap2\n      pop\n        /* \"#utility.yul\":739:1024   */\n      pop\n        /* \"#utility.yul\":647:1024   */\n      swap3\n      swap2\n      pop\n      pop\n      jump\t// out\n        /* \"#utility.yul\":1030:1343   */\n    tag_14:\n        /* \"#utility.yul\":1143:1147   */\n      0x00\n        /* \"#utility.yul\":1181:1183   */\n      0x20\n        /* \"#utility.yul\":1170:1179   */\n      dup3\n        /* \"#utility.yul\":1166:1184   */\n      add\n        /* \"#utility.yul\":1158:1184   */\n      swap1\n      pop\n        /* \"#utility.yul\":1230:1239   */\n      dup2\n        /* \"#utility.yul\":1224:1228   */\n      dup2\n        /* \"#utility.yul\":1220:1240   */\n      sub\n        /* \"#utility.yul\":1216:1217   */\n      0x00\n        /* \"#utility.yul\":1205:1214   */\n      dup4\n        /* \"#utility.yul\":1201:1218   */\n      add\n        /* \"#utility.yul\":1194:1241   */\n      mstore\n        /* \"#utility.yul\":1258:1336   */\n      tag_132\n        /* \"#utility.yul\":1331:1335   */\n      dup2\n        /* \"#utility.yul\":1322:1328   */\n      dup5\n        /* \"#utility.yul\":1258:1336   */\n      tag_77\n      jump\t// in\n    tag_132:\n        /* \"#utility.yul\":1250:1336   */\n      swap1\n      pop\n        /* \"#utility.yul\":1030:1343   */\n      swap3\n      swap2\n      pop\n      pop\n      jump\t// out\n        /* \"#utility.yul\":1349:1426   */\n    tag_78:\n        /* \"#utility.yul\":1386:1393   */\n      0x00\n        /* \"#utility.yul\":1415:1420   */\n      dup2\n        /* \"#utility.yul\":1404:1420   */\n      swap1\n      pop\n        /* \"#utility.yul\":1349:1426   */\n      swap2\n      swap1\n      pop\n      jump\t// out\n        /* \"#utility.yul\":1432:1550   */\n    tag_79:\n        /* \"#utility.yul\":1519:1543   */\n      tag_135\n        /* \"#utility.yul\":1537:1542   */\n      dup2\n        /* \"#utility.yul\":1519:1543   */\n      tag_78\n      jump\t// in\n    tag_135:\n        /* \"#utility.yul\":1514:1517   */\n      dup3\n        /* \"#utility.yul\":1507:1544   */\n      mstore\n        /* \"#utility.yul\":1432:1550   */\n      pop\n      pop\n      jump\t// out\n        /* \"#utility.yul\":1556:1778   */\n    tag_18:\n        /* \"#utility.yul\":1649:1653   */\n      0x00\n        /* \"#utility.yul\":1687:1689   */\n      0x20\n        /* \"#utility.yul\":1676:1685   */\n      dup3\n        /* \"#utility.yul\":1672:1690   */\n      add\n        /* \"#utility.yul\":1664:1690   */\n      swap1\n      pop\n        /* \"#utility.yul\":1700:1771   */\n      tag_137\n        /* \"#utility.yul\":1768:1769   */\n      0x00\n        /* \"#utility.yul\":1757:1766   */\n      dup4\n        /* \"#utility.yul\":1753:1770   */\n      add\n        /* \"#utility.yul\":1744:1750   */\n      dup5\n        /* \"#utility.yul\":1700:1771   */\n      tag_79\n      jump\t// in\n    tag_137:\n        /* \"#utility.yul\":1556:1778   */\n      swap3\n      swap2\n      pop\n      pop\n      jump\t// out\n        /* \"#utility.yul\":1784:1859   */\n    tag_80:\n        /* \"#utility.yul\":1817:1823   */\n      0x00\n        /* \"#utility.yul\":1850:1852   */\n      0x40\n        /* \"#utility.yul\":1844:1853   */\n      mload\n        /* \"#utility.yul\":1834:1853   */\n      swap1\n      pop\n        /* \"#utility.yul\":1784:1859   */\n      swap1\n      jump\t// out\n        /* \"#utility.yul\":1865:1982   */\n    tag_81:\n        /* \"#utility.yul\":1974:1975   */\n      0x00\n        /* \"#utility.yul\":1971:1972   */\n      dup1\n        /* \"#utility.yul\":1964:1976   */\n      revert\n        /* \"#utility.yul\":1988:2105   */\n    tag_82:\n        /* \"#utility.yul\":2097:2098   */\n      0x00\n        /* \"#utility.yul\":2094:2095   */\n      dup1\n        /* \"#utility.yul\":2087:2099   */\n      revert\n        /* \"#utility.yul\":2111:2228   */\n    tag_83:\n        /* \"#utility.yul\":2220:2221   */\n      0x00\n        /* \"#utility.yul\":2217:2218   */\n      dup1\n        /* \"#utility.yul\":2210:2222   */\n      revert\n        /* \"#utility.yul\":2234:2351   */\n    tag_84:\n        /* \"#utility.yul\":2343:2344   */\n      0x00\n        /* \"#utility.yul\":2340:2341   */\n      dup1\n        /* \"#utility.yul\":2333:2345   */\n      revert\n        /* \"#utility.yul\":2357:2537   */\n    tag_85:\n        /* \"#utility.yul\":2405:2482   */\n      0x4e487b7100000000000000000000000000000000000000000000000000000000\n        /* \"#utility.yul\":2402:2403   */\n      0x00\n        /* \"#utility.yul\":2395:2483   */\n      mstore\n        /* \"#utility.yul\":2502:2506   */\n      0x41\n        /* \"#utility.yul\":2499:2500   */\n      0x04\n        /* \"#utility.yul\":2492:2507   */\n      mstore\n        /* \"#utility.yul\":2526:2530   */\n      0x24\n        /* \"#utility.yul\":2523:2524   */\n      0x00\n        /* \"#utility.yul\":2516:2531   */\n      revert\n        /* \"#utility.yul\":2543:2824   */\n    tag_86:\n        /* \"#utility.yul\":2626:2653   */\n      tag_145\n        /* \"#utility.yul\":2648:2652   */\n      dup3\n        /* \"#utility.yul\":2626:2653   */\n      tag_76\n      jump\t// in\n    tag_145:\n        /* \"#utility.yul\":2618:2624   */\n      dup2\n        /* \"#utility.yul\":2614:2654   */\n      add\n        /* \"#utility.yul\":2756:2762   */\n      dup2\n        /* \"#utility.yul\":2744:2754   */\n      dup2\n        /* \"#utility.yul\":2741:2763   */\n      lt\n        /* \"#utility.yul\":2720:2738   */\n      0xffffffffffffffff\n        /* \"#utility.yul\":2708:2718   */\n      dup3\n        /* \"#utility.yul\":2705:2739   */\n      gt\n        /* \"#utility.yul\":2702:2764   */\n      or\n        /* \"#utility.yul\":2699:2787   */\n      iszero\n      tag_146\n      jumpi\n        /* \"#utility.yul\":2767:2785   */\n      tag_147\n      tag_85\n      jump\t// in\n    tag_147:\n        /* \"#utility.yul\":2699:2787   */\n    tag_146:\n        /* \"#utility.yul\":2807:2817   */\n      dup1\n        /* \"#utility.yul\":2803:2805   */\n      0x40\n        /* \"#utility.yul\":2796:2818   */\n      mstore\n        /* \"#utility.yul\":2586:2824   */\n      pop\n        /* \"#utility.yul\":2543:2824   */\n      pop\n      pop\n      jump\t// out\n        /* \"#utility.yul\":2830:2959   */\n    tag_87:\n        /* \"#utility.yul\":2864:2870   */\n      0x00\n        /* \"#utility.yul\":2891:2911   */\n      tag_149\n      tag_80\n      jump\t// in\n    tag_149:\n        /* \"#utility.yul\":2881:2911   */\n      swap1\n      pop\n        /* \"#utility.yul\":2920:2953   */\n      tag_150\n        /* \"#utility.yul\":2948:2952   */\n      dup3\n        /* \"#utility.yul\":2940:2946   */\n      dup3\n        /* \"#utility.yul\":2920:2953   */\n      tag_86\n      jump\t// in\n    tag_150:\n        /* \"#utility.yul\":2830:2959   */\n      swap2\n      swap1\n      pop\n      jump\t// out\n        /* \"#utility.yul\":2965:3273   */\n    tag_88:\n        /* \"#utility.yul\":3027:3031   */\n      0x00\n        /* \"#utility.yul\":3117:3135   */\n      0xffffffffffffffff\n        /* \"#utility.yul\":3109:3115   */\n      dup3\n        /* \"#utility.yul\":3106:3136   */\n      gt\n        /* \"#utility.yul\":3103:3159   */\n      iszero\n      tag_152\n      jumpi\n        /* \"#utility.yul\":3139:3157   */\n      tag_153\n      tag_85\n      jump\t// in\n    tag_153:\n        /* \"#utility.yul\":3103:3159   */\n    tag_152:\n        /* \"#utility.yul\":3177:3206   */\n      tag_154\n        /* \"#utility.yul\":3199:3205   */\n      dup3\n        /* \"#utility.yul\":3177:3206   */\n      tag_76\n      jump\t// in\n    tag_154:\n        /* \"#utility.yul\":3169:3206   */\n      swap1\n      pop\n        /* \"#utility.yul\":3261:3265   */\n      0x20\n        /* \"#utility.yul\":3255:3259   */\n      dup2\n        /* \"#utility.yul\":3251:3266   */\n      add\n        /* \"#utility.yul\":3243:3266   */\n      swap1\n      pop\n        /* \"#utility.yul\":2965:3273   */\n      swap2\n      swap1\n      pop\n      jump\t// out\n        /* \"#utility.yul\":3279:3425   */\n    tag_89:\n        /* \"#utility.yul\":3376:3382   */\n      dup3\n        /* \"#utility.yul\":3371:3374   */\n      dup2\n        /* \"#utility.yul\":3366:3369   */\n      dup4\n        /* \"#utility.yul\":3353:3383   */\n      calldatacopy\n        /* \"#utility.yul\":3417:3418   */\n      0x00\n        /* \"#utility.yul\":3408:3414   */\n      dup4\n        /* \"#utility.yul\":3403:3406   */\n      dup4\n        /* \"#utility.yul\":3399:3415   */\n      add\n        /* \"#utility.yul\":3392:3419   */\n      mstore\n        /* \"#utility.yul\":3279:3425   */\n      pop\n      pop\n      pop\n      jump\t// out\n        /* \"#utility.yul\":3431:3856   */\n    tag_90:\n        /* \"#utility.yul\":3509:3514   */\n      0x00\n        /* \"#utility.yul\":3534:3600   */\n      tag_157\n        /* \"#utility.yul\":3550:3599   */\n      tag_158\n        /* \"#utility.yul\":3592:3598   */\n      dup5\n        /* \"#utility.yul\":3550:3599   */\n      tag_88\n      jump\t// in\n    tag_158:\n        /* \"#utility.yul\":3534:3600   */\n      tag_87\n      jump\t// in\n    tag_157:\n        /* \"#utility.yul\":3525:3600   */\n      swap1\n      pop\n        /* \"#utility.yul\":3623:3629   */\n      dup3\n        /* \"#utility.yul\":3616:3621   */\n      dup2\n        /* \"#utility.yul\":3609:3630   */\n      mstore\n        /* \"#utility.yul\":3661:3665   */\n      0x20\n        /* \"#utility.yul\":3654:3659   */\n      dup2\n        /* \"#utility.yul\":3650:3666   */\n      add\n        /* \"#utility.yul\":3699:3702   */\n      dup5\n        /* \"#utility.yul\":3690:3696   */\n      dup5\n        /* \"#utility.yul\":3685:3688   */\n      dup5\n        /* \"#utility.yul\":3681:3697   */\n      add\n        /* \"#utility.yul\":3678:3703   */\n      gt\n        /* \"#utility.yul\":3675:3787   */\n      iszero\n      tag_159\n      jumpi\n        /* \"#utility.yul\":3706:3785   */\n      tag_160\n      tag_84\n      jump\t// in\n    tag_160:\n        /* \"#utility.yul\":3675:3787   */\n    tag_159:\n        /* \"#utility.yul\":3796:3850   */\n      tag_161\n        /* \"#utility.yul\":3843:3849   */\n      dup5\n        /* \"#utility.yul\":3838:3841   */\n      dup3\n        /* \"#utility.yul\":3833:3836   */\n      dup6\n        /* \"#utility.yul\":3796:3850   */\n      tag_89\n      jump\t// in\n    tag_161:\n        /* \"#utility.yul\":3515:3856   */\n      pop\n        /* \"#utility.yul\":3431:3856   */\n      swap4\n      swap3\n      pop\n      pop\n      pop\n      jump\t// out\n        /* \"#utility.yul\":3876:4216   */\n    tag_91:\n        /* \"#utility.yul\":3932:3937   */\n      0x00\n        /* \"#utility.yul\":3981:3984   */\n      dup3\n        /* \"#utility.yul\":3974:3978   */\n      0x1f\n        /* \"#utility.yul\":3966:3972   */\n      dup4\n        /* \"#utility.yul\":3962:3979   */\n      add\n        /* \"#utility.yul\":3958:3985   */\n      slt\n        /* \"#utility.yul\":3948:4070   */\n      tag_163\n      jumpi\n        /* \"#utility.yul\":3989:4068   */\n      tag_164\n      tag_83\n      jump\t// in\n    tag_164:\n        /* \"#utility.yul\":3948:4070   */\n    tag_163:\n        /* \"#utility.yul\":4106:4112   */\n      dup2\n        /* \"#utility.yul\":4093:4113   */\n      calldataload\n        /* \"#utility.yul\":4131:4210   */\n      tag_165\n        /* \"#utility.yul\":4206:4209   */\n      dup5\n        /* \"#utility.yul\":4198:4204   */\n      dup3\n        /* \"#utility.yul\":4191:4195   */\n      0x20\n        /* \"#utility.yul\":4183:4189   */\n      dup7\n        /* \"#utility.yul\":4179:4196   */\n      add\n        /* \"#utility.yul\":4131:4210   */\n      tag_90\n      jump\t// in\n    tag_165:\n        /* \"#utility.yul\":4122:4210   */\n      swap2\n      pop\n        /* \"#utility.yul\":3938:4216   */\n      pop\n        /* \"#utility.yul\":3876:4216   */\n      swap3\n      swap2\n      pop\n      pop\n      jump\t// out\n        /* \"#utility.yul\":4222:4344   */\n    tag_92:\n        /* \"#utility.yul\":4295:4319   */\n      tag_167\n        /* \"#utility.yul\":4313:4318   */\n      dup2\n        /* \"#utility.yul\":4295:4319   */\n      tag_78\n      jump\t// in\n    tag_167:\n        /* \"#utility.yul\":4288:4293   */\n      dup2\n        /* \"#utility.yul\":4285:4320   */\n      eq\n        /* \"#utility.yul\":4275:4338   */\n      tag_168\n      jumpi\n        /* \"#utility.yul\":4334:4335   */\n      0x00\n        /* \"#utility.yul\":4331:4332   */\n      dup1\n        /* \"#utility.yul\":4324:4336   */\n      revert\n        /* \"#utility.yul\":4275:4338   */\n    tag_168:\n        /* \"#utility.yul\":4222:4344   */\n      pop\n      jump\t// out\n        /* \"#utility.yul\":4350:4489   */\n    tag_93:\n        /* \"#utility.yul\":4396:4401   */\n      0x00\n        /* \"#utility.yul\":4434:4440   */\n      dup2\n        /* \"#utility.yul\":4421:4441   */\n      calldataload\n        /* \"#utility.yul\":4412:4441   */\n      swap1\n      pop\n        /* \"#utility.yul\":4450:4483   */\n      tag_170\n        /* \"#utility.yul\":4477:4482   */\n      dup2\n        /* \"#utility.yul\":4450:4483   */\n      tag_92\n      jump\t// in\n    tag_170:\n        /* \"#utility.yul\":4350:4489   */\n      swap3\n      swap2\n      pop\n      pop\n      jump\t// out\n        /* \"#utility.yul\":4495:5620   */\n    tag_21:\n        /* \"#utility.yul\":4601:4607   */\n      0x00\n        /* \"#utility.yul\":4609:4615   */\n      dup1\n        /* \"#utility.yul\":4617:4623   */\n      0x00\n        /* \"#utility.yul\":4625:4631   */\n      dup1\n        /* \"#utility.yul\":4674:4677   */\n      0x80\n        /* \"#utility.yul\":4662:4671   */\n      dup6\n        /* \"#utility.yul\":4653:4660   */\n      dup8\n        /* \"#utility.yul\":4649:4672   */\n      sub\n        /* \"#utility.yul\":4645:4678   */\n      slt\n        /* \"#utility.yul\":4642:4762   */\n      iszero\n      tag_172\n      jumpi\n        /* \"#utility.yul\":4681:4760   */\n      tag_173\n      tag_81\n      jump\t// in\n    tag_173:\n        /* \"#utility.yul\":4642:4762   */\n    tag_172:\n        /* \"#utility.yul\":4829:4830   */\n      0x00\n        /* \"#utility.yul\":4818:4827   */\n      dup6\n        /* \"#utility.yul\":4814:4831   */\n      add\n        /* \"#utility.yul\":4801:4832   */\n      calldataload\n        /* \"#utility.yul\":4859:4877   */\n      0xffffffffffffffff\n        /* \"#utility.yul\":4851:4857   */\n      dup2\n        /* \"#utility.yul\":4848:4878   */\n      gt\n        /* \"#utility.yul\":4845:4962   */\n      iszero\n      tag_174\n      jumpi\n        /* \"#utility.yul\":4881:4960   */\n      tag_175\n      tag_82\n      jump\t// in\n    tag_175:\n        /* \"#utility.yul\":4845:4962   */\n    tag_174:\n        /* \"#utility.yul\":4986:5049   */\n      tag_176\n        /* \"#utility.yul\":5041:5048   */\n      dup8\n        /* \"#utility.yul\":5032:5038   */\n      dup3\n        /* \"#utility.yul\":5021:5030   */\n      dup9\n        /* \"#utility.yul\":5017:5039   */\n      add\n        /* \"#utility.yul\":4986:5049   */\n      tag_91\n      jump\t// in\n    tag_176:\n        /* \"#utility.yul\":4976:5049   */\n      swap5\n      pop\n        /* \"#utility.yul\":4772:5059   */\n      pop\n        /* \"#utility.yul\":5126:5128   */\n      0x20\n        /* \"#utility.yul\":5115:5124   */\n      dup6\n        /* \"#utility.yul\":5111:5129   */\n      add\n        /* \"#utility.yul\":5098:5130   */\n      calldataload\n        /* \"#utility.yul\":5157:5175   */\n      0xffffffffffffffff\n        /* \"#utility.yul\":5149:5155   */\n      dup2\n        /* \"#utility.yul\":5146:5176   */\n      gt\n        /* \"#utility.yul\":5143:5260   */\n      iszero\n      tag_177\n      jumpi\n        /* \"#utility.yul\":5179:5258   */\n      tag_178\n      tag_82\n      jump\t// in\n    tag_178:\n        /* \"#utility.yul\":5143:5260   */\n    tag_177:\n        /* \"#utility.yul\":5284:5347   */\n      tag_179\n        /* \"#utility.yul\":5339:5346   */\n      dup8\n        /* \"#utility.yul\":5330:5336   */\n      dup3\n        /* \"#utility.yul\":5319:5328   */\n      dup9\n        /* \"#utility.yul\":5315:5337   */\n      add\n        /* \"#utility.yul\":5284:5347   */\n      tag_91\n      jump\t// in\n    tag_179:\n        /* \"#utility.yul\":5274:5347   */\n      swap4\n      pop\n        /* \"#utility.yul\":5069:5357   */\n      pop\n        /* \"#utility.yul\":5396:5398   */\n      0x40\n        /* \"#utility.yul\":5422:5475   */\n      tag_180\n        /* \"#utility.yul\":5467:5474   */\n      dup8\n        /* \"#utility.yul\":5458:5464   */\n      dup3\n        /* \"#utility.yul\":5447:5456   */\n      dup9\n        /* \"#utility.yul\":5443:5465   */\n      add\n        /* \"#utility.yul\":5422:5475   */\n      tag_93\n      jump\t// in\n    tag_180:\n        /* \"#utility.yul\":5412:5475   */\n      swap3\n      pop\n        /* \"#utility.yul\":5367:5485   */\n      pop\n        /* \"#utility.yul\":5524:5526   */\n      0x60\n        /* \"#utility.yul\":5550:5603   */\n      tag_181\n        /* \"#utility.yul\":5595:5602   */\n      dup8\n        /* \"#utility.yul\":5586:5592   */\n      dup3\n        /* \"#utility.yul\":5575:5584   */\n      dup9\n        /* \"#utility.yul\":5571:5593   */\n      add\n        /* \"#utility.yul\":5550:5603   */\n      tag_93\n      jump\t// in\n    tag_181:\n        /* \"#utility.yul\":5540:5603   */\n      swap2\n      pop\n        /* \"#utility.yul\":5495:5613   */\n      pop\n        /* \"#utility.yul\":4495:5620   */\n      swap3\n      swap6\n      swap2\n      swap5\n      pop\n      swap3\n      pop\n      jump\t// out\n        /* \"#utility.yul\":5626:5752   */\n    tag_94:\n        /* \"#utility.yul\":5663:5670   */\n      0x00\n        /* \"#utility.yul\":5703:5745   */\n      0xffffffffffffffffffffffffffffffffffffffff\n        /* \"#utility.yul\":5696:5701   */\n      dup3\n        /* \"#utility.yul\":5692:5746   */\n      and\n        /* \"#utility.yul\":5681:5746   */\n      swap1\n      pop\n        /* \"#utility.yul\":5626:5752   */\n      swap2\n      swap1\n      pop\n      jump\t// out\n        /* \"#utility.yul\":5758:5854   */\n    tag_95:\n        /* \"#utility.yul\":5795:5802   */\n      0x00\n        /* \"#utility.yul\":5824:5848   */\n      tag_184\n        /* \"#utility.yul\":5842:5847   */\n      dup3\n        /* \"#utility.yul\":5824:5848   */\n      tag_94\n      jump\t// in\n    tag_184:\n        /* \"#utility.yul\":5813:5848   */\n      swap1\n      pop\n        /* \"#utility.yul\":5758:5854   */\n      swap2\n      swap1\n      pop\n      jump\t// out\n        /* \"#utility.yul\":5860:5982   */\n    tag_96:\n        /* \"#utility.yul\":5933:5957   */\n      tag_186\n        /* \"#utility.yul\":5951:5956   */\n      dup2\n        /* \"#utility.yul\":5933:5957   */\n      tag_95\n      jump\t// in\n    tag_186:\n        /* \"#utility.yul\":5926:5931   */\n      dup2\n        /* \"#utility.yul\":5923:5958   */\n      eq\n        /* \"#utility.yul\":5913:5976   */\n      tag_187\n      jumpi\n        /* \"#utility.yul\":5972:5973   */\n      0x00\n        /* \"#utility.yul\":5969:5970   */\n      dup1\n        /* \"#utility.yul\":5962:5974   */\n      revert\n        /* \"#utility.yul\":5913:5976   */\n    tag_187:\n        /* \"#utility.yul\":5860:5982   */\n      pop\n      jump\t// out\n        /* \"#utility.yul\":5988:6127   */\n    tag_97:\n        /* \"#utility.yul\":6034:6039   */\n      0x00\n        /* \"#utility.yul\":6072:6078   */\n      dup2\n        /* \"#utility.yul\":6059:6079   */\n      calldataload\n        /* \"#utility.yul\":6050:6079   */\n      swap1\n      pop\n        /* \"#utility.yul\":6088:6121   */\n      tag_189\n        /* \"#utility.yul\":6115:6120   */\n      dup2\n        /* \"#utility.yul\":6088:6121   */\n      tag_96\n      jump\t// in\n    tag_189:\n        /* \"#utility.yul\":5988:6127   */\n      swap3\n      swap2\n      pop\n      pop\n      jump\t// out\n        /* \"#utility.yul\":6133:6462   */\n    tag_25:\n        /* \"#utility.yul\":6192:6198   */\n      0x00\n        /* \"#utility.yul\":6241:6243   */\n      0x20\n        /* \"#utility.yul\":6229:6238   */\n      dup3\n        /* \"#utility.yul\":6220:6227   */\n      dup5\n        /* \"#utility.yul\":6216:6239   */\n      sub\n        /* \"#utility.yul\":6212:6244   */\n      slt\n        /* \"#utility.yul\":6209:6328   */\n      iszero\n      tag_191\n      jumpi\n        /* \"#utility.yul\":6247:6326   */\n      tag_192\n      tag_81\n      jump\t// in\n    tag_192:\n        /* \"#utility.yul\":6209:6328   */\n    tag_191:\n        /* \"#utility.yul\":6367:6368   */\n      0x00\n        /* \"#utility.yul\":6392:6445   */\n      tag_193\n        /* \"#utility.yul\":6437:6444   */\n      dup5\n        /* \"#utility.yul\":6428:6434   */\n      dup3\n        /* \"#utility.yul\":6417:6426   */\n      dup6\n        /* \"#utility.yul\":6413:6435   */\n      add\n        /* \"#utility.yul\":6392:6445   */\n      tag_97\n      jump\t// in\n    tag_193:\n        /* \"#utility.yul\":6382:6445   */\n      swap2\n      pop\n        /* \"#utility.yul\":6338:6455   */\n      pop\n        /* \"#utility.yul\":6133:6462   */\n      swap3\n      swap2\n      pop\n      pop\n      jump\t// out\n        /* \"#utility.yul\":6468:6942   */\n    tag_36:\n        /* \"#utility.yul\":6536:6542   */\n      0x00\n        /* \"#utility.yul\":6544:6550   */\n      dup1\n        /* \"#utility.yul\":6593:6595   */\n      0x40\n        /* \"#utility.yul\":6581:6590   */\n      dup4\n        /* \"#utility.yul\":6572:6579   */\n      dup6\n        /* \"#utility.yul\":6568:6591   */\n      sub\n        /* \"#utility.yul\":6564:6596   */\n      slt\n        /* \"#utility.yul\":6561:6680   */\n      iszero\n      tag_195\n      jumpi\n        /* \"#utility.yul\":6599:6678   */\n      tag_196\n      tag_81\n      jump\t// in\n    tag_196:\n        /* \"#utility.yul\":6561:6680   */\n    tag_195:\n        /* \"#utility.yul\":6719:6720   */\n      0x00\n        /* \"#utility.yul\":6744:6797   */\n      tag_197\n        /* \"#utility.yul\":6789:6796   */\n      dup6\n        /* \"#utility.yul\":6780:6786   */\n      dup3\n        /* \"#utility.yul\":6769:6778   */\n      dup7\n        /* \"#utility.yul\":6765:6787   */\n      add\n        /* \"#utility.yul\":6744:6797   */\n      tag_97\n      jump\t// in\n    tag_197:\n        /* \"#utility.yul\":6734:6797   */\n      swap3\n      pop\n        /* \"#utility.yul\":6690:6807   */\n      pop\n        /* \"#utility.yul\":6846:6848   */\n      0x20\n        /* \"#utility.yul\":6872:6925   */\n      tag_198\n        /* \"#utility.yul\":6917:6924   */\n      dup6\n        /* \"#utility.yul\":6908:6914   */\n      dup3\n        /* \"#utility.yul\":6897:6906   */\n      dup7\n        /* \"#utility.yul\":6893:6915   */\n      add\n        /* \"#utility.yul\":6872:6925   */\n      tag_93\n      jump\t// in\n    tag_198:\n        /* \"#utility.yul\":6862:6925   */\n      swap2\n      pop\n        /* \"#utility.yul\":6817:6935   */\n      pop\n        /* \"#utility.yul\":6468:6942   */\n      swap3\n      pop\n      swap3\n      swap1\n      pop\n      jump\t// out\n        /* \"#utility.yul\":6948:7128   */\n    tag_98:\n        /* \"#utility.yul\":6996:7073   */\n      0x4e487b7100000000000000000000000000000000000000000000000000000000\n        /* \"#utility.yul\":6993:6994   */\n      0x00\n        /* \"#utility.yul\":6986:7074   */\n      mstore\n        /* \"#utility.yul\":7093:7097   */\n      0x22\n        /* \"#utility.yul\":7090:7091   */\n      0x04\n        /* \"#utility.yul\":7083:7098   */\n      mstore\n        /* \"#utility.yul\":7117:7121   */\n      0x24\n        /* \"#utility.yul\":7114:7115   */\n      0x00\n        /* \"#utility.yul\":7107:7122   */\n      revert\n        /* \"#utility.yul\":7134:7454   */\n    tag_40:\n        /* \"#utility.yul\":7178:7184   */\n      0x00\n        /* \"#utility.yul\":7215:7216   */\n      0x02\n        /* \"#utility.yul\":7209:7213   */\n      dup3\n        /* \"#utility.yul\":7205:7217   */\n      div\n        /* \"#utility.yul\":7195:7217   */\n      swap1\n      pop\n        /* \"#utility.yul\":7262:7263   */\n      0x01\n        /* \"#utility.yul\":7256:7260   */\n      dup3\n        /* \"#utility.yul\":7252:7264   */\n      and\n        /* \"#utility.yul\":7283:7301   */\n      dup1\n        /* \"#utility.yul\":7273:7354   */\n      tag_201\n      jumpi\n        /* \"#utility.yul\":7339:7343   */\n      0x7f\n        /* \"#utility.yul\":7331:7337   */\n      dup3\n        /* \"#utility.yul\":7327:7344   */\n      and\n        /* \"#utility.yul\":7317:7344   */\n      swap2\n      pop\n        /* \"#utility.yul\":7273:7354   */\n    tag_201:\n        /* \"#utility.yul\":7401:7403   */\n      0x20\n        /* \"#utility.yul\":7393:7399   */\n      dup3\n        /* \"#utility.yul\":7390:7404   */\n      lt\n        /* \"#utility.yul\":7370:7388   */\n      dup2\n        /* \"#utility.yul\":7367:7405   */\n      sub\n        /* \"#utility.yul\":7364:7448   */\n      tag_202\n      jumpi\n        /* \"#utility.yul\":7420:7438   */\n      tag_203\n      tag_98\n      jump\t// in\n    tag_203:\n        /* \"#utility.yul\":7364:7448   */\n    tag_202:\n        /* \"#utility.yul\":7185:7454   */\n      pop\n        /* \"#utility.yul\":7134:7454   */\n      swap2\n      swap1\n      pop\n      jump\t// out\n        /* \"#utility.yul\":7460:7601   */\n    tag_99:\n        /* \"#utility.yul\":7509:7513   */\n      0x00\n        /* \"#utility.yul\":7532:7535   */\n      dup2\n        /* \"#utility.yul\":7524:7535   */\n      swap1\n      pop\n        /* \"#utility.yul\":7555:7558   */\n      dup2\n        /* \"#utility.yul\":7552:7553   */\n      0x00\n        /* \"#utility.yul\":7545:7559   */\n      mstore\n        /* \"#utility.yul\":7589:7593   */\n      0x20\n        /* \"#utility.yul\":7586:7587   */\n      0x00\n        /* \"#utility.yul\":7576:7594   */\n      keccak256\n        /* \"#utility.yul\":7568:7594   */\n      swap1\n      pop\n        /* \"#utility.yul\":7460:7601   */\n      swap2\n      swap1\n      pop\n      jump\t// out\n        /* \"#utility.yul\":7607:7700   */\n    tag_100:\n        /* \"#utility.yul\":7644:7650   */\n      0x00\n        /* \"#utility.yul\":7691:7693   */\n      0x20\n        /* \"#utility.yul\":7686:7688   */\n      0x1f\n        /* \"#utility.yul\":7679:7684   */\n      dup4\n        /* \"#utility.yul\":7675:7689   */\n      add\n        /* \"#utility.yul\":7671:7694   */\n      div\n        /* \"#utility.yul\":7661:7694   */\n      swap1\n      pop\n        /* \"#utility.yul\":7607:7700   */\n      swap2\n      swap1\n      pop\n      jump\t// out\n        /* \"#utility.yul\":7706:7813   */\n    tag_101:\n        /* \"#utility.yul\":7750:7758   */\n      0x00\n        /* \"#utility.yul\":7800:7805   */\n      dup3\n        /* \"#utility.yul\":7794:7798   */\n      dup3\n        /* \"#utility.yul\":7790:7806   */\n      shl\n        /* \"#utility.yul\":7769:7806   */\n      swap1\n      pop\n        /* \"#utility.yul\":7706:7813   */\n      swap3\n      swap2\n      pop\n      pop\n      jump\t// out\n        /* \"#utility.yul\":7819:8212   */\n    tag_102:\n        /* \"#utility.yul\":7888:7894   */\n      0x00\n        /* \"#utility.yul\":7938:7939   */\n      0x08\n        /* \"#utility.yul\":7926:7936   */\n      dup4\n        /* \"#utility.yul\":7922:7940   */\n      mul\n        /* \"#utility.yul\":7961:8058   */\n      tag_208\n        /* \"#utility.yul\":7991:8057   */\n      0xffffffffffffffffffffffffffffffffffffffffffffffffffffffffffffffff\n        /* \"#utility.yul\":7980:7989   */\n      dup3\n        /* \"#utility.yul\":7961:8058   */\n      tag_101\n      jump\t// in\n    tag_208:\n        /* \"#utility.yul\":8079:8118   */\n      tag_209\n        /* \"#utility.yul\":8109:8117   */\n      dup7\n        /* \"#utility.yul\":8098:8107   */\n      dup4\n        /* \"#utility.yul\":8079:8118   */\n      tag_101\n      jump\t// in\n    tag_209:\n        /* \"#utility.yul\":8067:8118   */\n      swap6\n      pop\n        /* \"#utility.yul\":8151:8155   */\n      dup1\n        /* \"#utility.yul\":8147:8156   */\n      not\n        /* \"#utility.yul\":8140:8145   */\n      dup5\n        /* \"#utility.yul\":8136:8157   */\n      and\n        /* \"#utility.yul\":8127:8157   */\n      swap4\n      pop\n        /* \"#utility.yul\":8200:8204   */\n      dup1\n        /* \"#utility.yul\":8190:8198   */\n      dup7\n        /* \"#utility.yul\":8186:8205   */\n      and\n        /* \"#utility.yul\":8179:8184   */\n      dup5\n        /* \"#utility.yul\":8176:8206   */\n      or\n        /* \"#utility.yul\":8166:8206   */\n      swap3\n      pop\n        /* \"#utility.yul\":7895:8212   */\n      pop\n      pop\n        /* \"#utility.yul\":7819:8212   */\n      swap4\n      swap3\n      pop\n      pop\n      pop\n      jump\t// out\n        /* \"#utility.yul\":8218:8278   */\n    tag_103:\n        /* \"#utility.yul\":8246:8249   */\n      0x00\n        /* \"#utility.yul\":8267:8272   */\n      dup2\n        /* \"#utility.yul\":8260:8272   */\n      swap1\n      pop\n        /* \"#utility.yul\":8218:8278   */\n      swap2\n      swap1\n      pop\n      jump\t// out\n        /* \"#utility.yul\":8284:8426   */\n    tag_104:\n        /* \"#utility.yul\":8334:8343   */\n      0x00\n        /* \"#utility.yul\":8367:8420   */\n      tag_212\n        /* \"#utility.yul\":8385:8419   */\n      tag_213\n        /* \"#utility.yul\":8394:8418   */\n      tag_214\n        /* \"#utility.yul\":8412:8417   */\n      dup5\n        /* \"#utility.yul\":8394:8418   */\n      tag_78\n      jump\t// in\n    tag_214:\n        /* \"#utility.yul\":8385:8419   */\n      tag_103\n      jump\t// in\n    tag_213:\n        /* \"#utility.yul\":8367:8420   */\n      tag_78\n      jump\t// in\n    tag_212:\n        /* \"#utility.yul\":8354:8420   */\n      swap1\n      pop\n        /* \"#utility.yul\":8284:8426   */\n      swap2\n      swap1\n      pop\n      jump\t// out\n        /* \"#utility.yul\":8432:8507   */\n    tag_105:\n        /* \"#utility.yul\":8475:8478   */\n      0x00\n        /* \"#utility.yul\":8496:8501   */\n      dup2\n        /* \"#utility.yul\":8489:8501   */\n      swap1\n      pop\n        /* \"#utility.yul\":8432:8507   */\n      swap2\n      swap1\n      pop\n      jump\t// out\n        /* \"#utility.yul\":8513:8782   */\n    tag_106:\n        /* \"#utility.yul\":8623:8662   */\n      tag_217\n        /* \"#utility.yul\":8654:8661   */\n      dup4\n        /* \"#utility.yul\":8623:8662   */\n      tag_104\n      jump\t// in\n    tag_217:\n        /* \"#utility.yul\":8684:8775   */\n      tag_218\n        /* \"#utility.yul\":8733:8774   */\n      tag_219\n        /* \"#utility.yul\":8757:8773   */\n      dup3\n        /* \"#utility.yul\":8733:8774   */\n      tag_105\n      jump\t// in\n    tag_219:\n        /* \"#utility.yul\":8725:8731   */\n      dup5\n        /* \"#utility.yul\":8718:8722   */\n      dup5\n        /* \"#utility.yul\":8712:8723   */\n      sload\n        /* \"#utility.yul\":8684:8775   */\n      tag_102\n      jump\t// in\n    tag_218:\n        /* \"#utility.yul\":8678:8682   */\n      dup3\n        /* \"#utility.yul\":8671:8776   */\n      sstore\n        /* \"#utility.yul\":8589:8782   */\n      pop\n        /* \"#utility.yul\":8513:8782   */\n      pop\n      pop\n      pop\n      jump\t// out\n        /* \"#utility.yul\":8788:8861   */\n    tag_107:\n        /* \"#utility.yul\":8833:8836   */\n      0x00\n        /* \"#utility.yul\":8788:8861   */\n      swap1\n      jump\t// out\n        /* \"#utility.yul\":8867:9056   */\n    tag_108:\n        /* \"#utility.yul\":8944:8976   */\n      tag_222\n      tag_107\n      jump\t// in\n    tag_222:\n        /* \"#utility.yul\":8985:9050   */\n      tag_223\n        /* \"#utility.yul\":9043:9049   */\n      dup2\n        /* \"#utility.yul\":9035:9041   */\n      dup5\n        /* \"#utility.yul\":9029:9033   */\n      dup5\n        /* \"#utility.yul\":8985:9050   */\n      tag_106\n      jump\t// in\n    tag_223:\n        /* \"#utility.yul\":8920:9056   */\n      pop\n        /* \"#utility.yul\":8867:9056   */\n      pop\n      pop\n      jump\t// out\n        /* \"#utility.yul\":9062:9248   */\n    tag_109:\n        /* \"#utility.yul\":9122:9242   */\n    tag_225:\n        /* \"#utility.yul\":9139:9142   */\n      dup2\n        /* \"#utility.yul\":9132:9137   */\n      dup2\n        /* \"#utility.yul\":9129:9143   */\n      lt\n        /* \"#utility.yul\":9122:9242   */\n      iszero\n      tag_227\n      jumpi\n        /* \"#utility.yul\":9193:9232   */\n      tag_228\n        /* \"#utility.yul\":9230:9231   */\n      0x00\n        /* \"#utility.yul\":9223:9228   */\n      dup3\n        /* \"#utility.yul\":9193:9232   */\n      tag_108\n      jump\t// in\n    tag_228:\n        /* \"#utility.yul\":9166:9167   */\n      0x01\n        /* \"#utility.yul\":9159:9164   */\n      dup2\n        /* \"#utility.yul\":9155:9168   */\n      add\n        /* \"#utility.yul\":9146:9168   */\n      swap1\n      pop\n        /* \"#utility.yul\":9122:9242   */\n      jump(tag_225)\n    tag_227:\n        /* \"#utility.yul\":9062:9248   */\n      pop\n      pop\n      jump\t// out\n        /* \"#utility.yul\":9254:9797   */\n    tag_110:\n        /* \"#utility.yul\":9355:9357   */\n      0x1f\n        /* \"#utility.yul\":9350:9353   */\n      dup3\n        /* \"#utility.yul\":9347:9358   */\n      gt\n        /* \"#utility.yul\":9344:9790   */\n      iszero\n      tag_230\n      jumpi\n        /* \"#utility.yul\":9389:9427   */\n      tag_231\n        /* \"#utility.yul\":9421:9426   */\n      dup2\n        /* \"#utility.yul\":9389:9427   */\n      tag_99\n      jump\t// in\n    tag_231:\n        /* \"#utility.yul\":9473:9502   */\n      tag_232\n        /* \"#utility.yul\":9491:9501   */\n      dup5\n        /* \"#utility.yul\":9473:9502   */\n      tag_100\n      jump\t// in\n    tag_232:\n        /* \"#utility.yul\":9463:9471   */\n      dup2\n        /* \"#utility.yul\":9459:9503   */\n      add\n        /* \"#utility.yul\":9656:9658   */\n      0x20\n        /* \"#utility.yul\":9644:9654   */\n      dup6\n        /* \"#utility.yul\":9641:9659   */\n      lt\n        /* \"#utility.yul\":9638:9687   */\n      iszero\n      tag_233\n      jumpi\n        /* \"#utility.yul\":9677:9685   */\n      dup2\n        /* \"#utility.yul\":9662:9685   */\n      swap1\n      pop\n        /* \"#utility.yul\":9638:9687   */\n    tag_233:\n        /* \"#utility.yul\":9700:9780   */\n      tag_234\n        /* \"#utility.yul\":9756:9778   */\n      tag_235\n        /* \"#utility.yul\":9774:9777   */\n      dup6\n        /* \"#utility.yul\":9756:9778   */\n      tag_100\n      jump\t// in\n    tag_235:\n        /* \"#utility.yul\":9746:9754   */\n      dup4\n        /* \"#utility.yul\":9742:9779   */\n      add\n        /* \"#utility.yul\":9729:9740   */\n      dup3\n        /* \"#utility.yul\":9700:9780   */\n      tag_109\n      jump\t// in\n    tag_234:\n        /* \"#utility.yul\":9359:9790   */\n      pop\n      pop\n        /* \"#utility.yul\":9344:9790   */\n    tag_230:\n        /* \"#utility.yul\":9254:9797   */\n      pop\n      pop\n      pop\n      jump\t// out\n        /* \"#utility.yul\":9803:9920   */\n    tag_111:\n        /* \"#utility.yul\":9857:9865   */\n      0x00\n        /* \"#utility.yul\":9907:9912   */\n      dup3\n        /* \"#utility.yul\":9901:9905   */\n      dup3\n        /* \"#utility.yul\":9897:9913   */\n      shr\n        /* \"#utility.yul\":9876:9913   */\n      swap1\n      pop\n        /* \"#utility.yul\":9803:9920   */\n      swap3\n      swap2\n      pop\n      pop\n      jump\t// out\n        /* \"#utility.yul\":9926:10095   */\n    tag_112:\n        /* \"#utility.yul\":9970:9976   */\n      0x00\n        /* \"#utility.yul\":10003:10054   */\n      tag_238\n        /* \"#utility.yul\":10051:10052   */\n      0x00\n        /* \"#utility.yul\":10047:10053   */\n      not\n        /* \"#utility.yul\":10039:10044   */\n      dup5\n        /* \"#utility.yul\":10036:10037   */\n      0x08\n        /* \"#utility.yul\":10032:10045   */\n      mul\n        /* \"#utility.yul\":10003:10054   */\n      tag_111\n      jump\t// in\n    tag_238:\n        /* \"#utility.yul\":9999:10055   */\n      not\n        /* \"#utility.yul\":10084:10088   */\n      dup1\n        /* \"#utility.yul\":10078:10082   */\n      dup4\n        /* \"#utility.yul\":10074:10089   */\n      and\n        /* \"#utility.yul\":10064:10089   */\n      swap2\n      pop\n        /* \"#utility.yul\":9977:10095   */\n      pop\n        /* \"#utility.yul\":9926:10095   */\n      swap3\n      swap2\n      pop\n      pop\n      jump\t// out\n        /* \"#utility.yul\":10100:10395   */\n    tag_113:\n        /* \"#utility.yul\":10176:10180   */\n      0x00\n        /* \"#utility.yul\":10322:10351   */\n      tag_240\n        /* \"#utility.yul\":10347:10350   */\n      dup4\n        /* \"#utility.yul\":10341:10345   */\n      dup4\n        /* \"#utility.yul\":10322:10351   */\n      tag_112\n      jump\t// in\n    tag_240:\n        /* \"#utility.yul\":10314:10351   */\n      swap2\n      pop\n        /* \"#utility.yul\":10384:10387   */\n      dup3\n        /* \"#utility.yul\":10381:10382   */\n      0x02\n        /* \"#utility.yul\":10377:10388   */\n      mul\n        /* \"#utility.yul\":10371:10375   */\n      dup3\n        /* \"#utility.yul\":10368:10389   */\n      or\n        /* \"#utility.yul\":10360:10389   */\n      swap1\n      pop\n        /* \"#utility.yul\":10100:10395   */\n      swap3\n      swap2\n      pop\n      pop\n      jump\t// out\n        /* \"#utility.yul\":10400:11795   */\n    tag_48:\n        /* \"#utility.yul\":10517:10554   */\n      tag_242\n        /* \"#utility.yul\":10550:10553   */\n      dup3\n        /* \"#utility.yul\":10517:10554   */\n      tag_73\n      jump\t// in\n    tag_242:\n        /* \"#utility.yul\":10619:10637   */\n      0xffffffffffffffff\n        /* \"#utility.yul\":10611:10617   */\n      dup2\n        /* \"#utility.yul\":10608:10638   */\n      gt\n        /* \"#utility.yul\":10605:10661   */\n      iszero\n      tag_243\n      jumpi\n        /* \"#utility.yul\":10641:10659   */\n      tag_244\n      tag_85\n      jump\t// in\n    tag_244:\n        /* \"#utility.yul\":10605:10661   */\n    tag_243:\n        /* \"#utility.yul\":10685:10723   */\n      tag_245\n        /* \"#utility.yul\":10717:10721   */\n      dup3\n        /* \"#utility.yul\":10711:10722   */\n      sload\n        /* \"#utility.yul\":10685:10723   */\n      tag_40\n      jump\t// in\n    tag_245:\n        /* \"#utility.yul\":10770:10837   */\n      tag_246\n        /* \"#utility.yul\":10830:10836   */\n      dup3\n        /* \"#utility.yul\":10822:10828   */\n      dup3\n        /* \"#utility.yul\":10816:10820   */\n      dup6\n        /* \"#utility.yul\":10770:10837   */\n      tag_110\n      jump\t// in\n    tag_246:\n        /* \"#utility.yul\":10864:10865   */\n      0x00\n        /* \"#utility.yul\":10888:10892   */\n      0x20\n        /* \"#utility.yul\":10875:10892   */\n      swap1\n      pop\n        /* \"#utility.yul\":10920:10922   */\n      0x1f\n        /* \"#utility.yul\":10912:10918   */\n      dup4\n        /* \"#utility.yul\":10909:10923   */\n      gt\n        /* \"#utility.yul\":10937:10938   */\n      0x01\n        /* \"#utility.yul\":10932:11550   */\n      dup2\n      eq\n      tag_248\n      jumpi\n        /* \"#utility.yul\":11594:11595   */\n      0x00\n        /* \"#utility.yul\":11611:11617   */\n      dup5\n        /* \"#utility.yul\":11608:11685   */\n      iszero\n      tag_249\n      jumpi\n        /* \"#utility.yul\":11660:11669   */\n      dup3\n        /* \"#utility.yul\":11655:11658   */\n      dup8\n        /* \"#utility.yul\":11651:11670   */\n      add\n        /* \"#utility.yul\":11645:11671   */\n      mload\n        /* \"#utility.yul\":11636:11671   */\n      swap1\n      pop\n        /* \"#utility.yul\":11608:11685   */\n    tag_249:\n        /* \"#utility.yul\":11711:11778   */\n      tag_250\n        /* \"#utility.yul\":11771:11777   */\n      dup6\n        /* \"#utility.yul\":11764:11769   */\n      dup3\n        /* \"#utility.yul\":11711:11778   */\n      tag_113\n      jump\t// in\n    tag_250:\n        /* \"#utility.yul\":11705:11709   */\n      dup7\n        /* \"#utility.yul\":11698:11779   */\n      sstore\n        /* \"#utility.yul\":11567:11789   */\n      pop\n        /* \"#utility.yul\":10902:11789   */\n      jump(tag_247)\n        /* \"#utility.yul\":10932:11550   */\n    tag_248:\n        /* \"#utility.yul\":10984:10988   */\n      0x1f\n        /* \"#utility.yul\":10980:10989   */\n      not\n        /* \"#utility.yul\":10972:10978   */\n      dup5\n        /* \"#utility.yul\":10968:10990   */\n      and\n        /* \"#utility.yul\":11018:11055   */\n      tag_251\n        /* \"#utility.yul\":11050:11054   */\n      dup7\n        /* \"#utility.yul\":11018:11055   */\n      tag_99\n      jump\t// in\n    tag_251:\n        /* \"#utility.yul\":11077:11078   */\n      0x00\n        /* \"#utility.yul\":11091:11299   */\n    tag_252:\n        /* \"#utility.yul\":11105:11112   */\n      dup3\n        /* \"#utility.yul\":11102:11103   */\n      dup2\n        /* \"#utility.yul\":11099:11113   */\n      lt\n        /* \"#utility.yul\":11091:11299   */\n      iszero\n      tag_254\n      jumpi\n        /* \"#utility.yul\":11184:11193   */\n      dup5\n        /* \"#utility.yul\":11179:11182   */\n      dup10\n        /* \"#utility.yul\":11175:11194   */\n      add\n        /* \"#utility.yul\":11169:11195   */\n      mload\n        /* \"#utility.yul\":11161:11167   */\n      dup3\n        /* \"#utility.yul\":11154:11196   */\n      sstore\n        /* \"#utility.yul\":11235:11236   */\n      0x01\n        /* \"#utility.yul\":11227:11233   */\n      dup3\n        /* \"#utility.yul\":11223:11237   */\n      add\n        /* \"#utility.yul\":11213:11237   */\n      swap2\n      pop\n        /* \"#utility.yul\":11282:11284   */\n      0x20\n        /* \"#utility.yul\":11271:11280   */\n      dup6\n        /* \"#utility.yul\":11267:11285   */\n      add\n        /* \"#utility.yul\":11254:11285   */\n      swap5\n      pop\n        /* \"#utility.yul\":11128:11132   */\n      0x20\n        /* \"#utility.yul\":11125:11126   */\n      dup2\n        /* \"#utility.yul\":11121:11133   */\n      add\n        /* \"#utility.yul\":11116:11133   */\n      swap1\n      pop\n        /* \"#utility.yul\":11091:11299   */\n      jump(tag_252)\n    tag_254:\n        /* \"#utility.yul\":11327:11333   */\n      dup7\n        /* \"#utility.yul\":11318:11325   */\n      dup4\n        /* \"#utility.yul\":11315:11334   */\n      lt\n        /* \"#utility.yul\":11312:11491   */\n      iszero\n      tag_255\n      jumpi\n        /* \"#utility.yul\":11385:11394   */\n      dup5\n        /* \"#utility.yul\":11380:11383   */\n      dup10\n        /* \"#utility.yul\":11376:11395   */\n      add\n        /* \"#utility.yul\":11370:11396   */\n      mload\n        /* \"#utility.yul\":11428:11476   */\n      tag_256\n        /* \"#utility.yul\":11470:11474   */\n      0x1f\n        /* \"#utility.yul\":11462:11468   */\n      dup10\n        /* \"#utility.yul\":11458:11475   */\n      and\n        /* \"#utility.yul\":11447:11456   */\n      dup3\n        /* \"#utility.yul\":11428:11476   */\n      tag_112\n      jump\t// in\n    tag_256:\n        /* \"#utility.yul\":11420:11426   */\n      dup4\n        /* \"#utility.yul\":11413:11477   */\n      sstore\n        /* \"#utility.yul\":11335:11491   */\n      pop\n        /* \"#utility.yul\":11312:11491   */\n    tag_255:\n        /* \"#utility.yul\":11537:11538   */\n      0x01\n        /* \"#utility.yul\":11533:11534   */\n      0x02\n        /* \"#utility.yul\":11525:11531   */\n      dup9\n        /* \"#utility.yul\":11521:11535   */\n      mul\n        /* \"#utility.yul\":11517:11539   */\n      add\n        /* \"#utility.yul\":11511:11515   */\n      dup9\n        /* \"#utility.yul\":11504:11540   */\n      sstore\n        /* \"#utility.yul\":10939:11550   */\n      pop\n      pop\n      pop\n        /* \"#utility.yul\":10902:11789   */\n    tag_247:\n      pop\n        /* \"#utility.yul\":10492:11795   */\n      pop\n      pop\n      pop\n        /* \"#utility.yul\":10400:11795   */\n      pop\n      pop\n      jump\t// out\n        /* \"#utility.yul\":11801:11974   */\n    tag_114:\n        /* \"#utility.yul\":11941:11966   */\n      0x546f6f206d75636820746f2073656e6420746f6b656e73000000000000000000\n        /* \"#utility.yul\":11937:11938   */\n      0x00\n        /* \"#utility.yul\":11929:11935   */\n      dup3\n        /* \"#utility.yul\":11925:11939   */\n      add\n        /* \"#utility.yul\":11918:11967   */\n      mstore\n        /* \"#utility.yul\":11801:11974   */\n      pop\n      jump\t// out\n        /* \"#utility.yul\":11980:12346   */\n    tag_115:\n        /* \"#utility.yul\":12122:12125   */\n      0x00\n        /* \"#utility.yul\":12143:12210   */\n      tag_259\n        /* \"#utility.yul\":12207:12209   */\n      0x17\n        /* \"#utility.yul\":12202:12205   */\n      dup4\n        /* \"#utility.yul\":12143:12210   */\n      tag_74\n      jump\t// in\n    tag_259:\n        /* \"#utility.yul\":12136:12210   */\n      swap2\n      pop\n        /* \"#utility.yul\":12219:12312   */\n      tag_260\n        /* \"#utility.yul\":12308:12311   */\n      dup3\n        /* \"#utility.yul\":12219:12312   */\n      tag_114\n      jump\t// in\n    tag_260:\n        /* \"#utility.yul\":12337:12339   */\n      0x20\n        /* \"#utility.yul\":12332:12335   */\n      dup3\n        /* \"#utility.yul\":12328:12340   */\n      add\n        /* \"#utility.yul\":12321:12340   */\n      swap1\n      pop\n        /* \"#utility.yul\":11980:12346   */\n      swap2\n      swap1\n      pop\n      jump\t// out\n        /* \"#utility.yul\":12352:12771   */\n    tag_63:\n        /* \"#utility.yul\":12518:12522   */\n      0x00\n        /* \"#utility.yul\":12556:12558   */\n      0x20\n        /* \"#utility.yul\":12545:12554   */\n      dup3\n        /* \"#utility.yul\":12541:12559   */\n      add\n        /* \"#utility.yul\":12533:12559   */\n      swap1\n      pop\n        /* \"#utility.yul\":12605:12614   */\n      dup2\n        /* \"#utility.yul\":12599:12603   */\n      dup2\n        /* \"#utility.yul\":12595:12615   */\n      sub\n        /* \"#utility.yul\":12591:12592   */\n      0x00\n        /* \"#utility.yul\":12580:12589   */\n      dup4\n        /* \"#utility.yul\":12576:12593   */\n      add\n        /* \"#utility.yul\":12569:12616   */\n      mstore\n        /* \"#utility.yul\":12633:12764   */\n      tag_262\n        /* \"#utility.yul\":12759:12763   */\n      dup2\n        /* \"#utility.yul\":12633:12764   */\n      tag_115\n      jump\t// in\n    tag_262:\n        /* \"#utility.yul\":12625:12764   */\n      swap1\n      pop\n        /* \"#utility.yul\":12352:12771   */\n      swap2\n      swap1\n      pop\n      jump\t// out\n        /* \"#utility.yul\":12777:12957   */\n    tag_116:\n        /* \"#utility.yul\":12825:12902   */\n      0x4e487b7100000000000000000000000000000000000000000000000000000000\n        /* \"#utility.yul\":12822:12823   */\n      0x00\n        /* \"#utility.yul\":12815:12903   */\n      mstore\n        /* \"#utility.yul\":12922:12926   */\n      0x11\n        /* \"#utility.yul\":12919:12920   */\n      0x04\n        /* \"#utility.yul\":12912:12927   */\n      mstore\n        /* \"#utility.yul\":12946:12950   */\n      0x24\n        /* \"#utility.yul\":12943:12944   */\n      0x00\n        /* \"#utility.yul\":12936:12951   */\n      revert\n        /* \"#utility.yul\":12963:13157   */\n    tag_65:\n        /* \"#utility.yul\":13003:13007   */\n      0x00\n        /* \"#utility.yul\":13023:13043   */\n      tag_265\n        /* \"#utility.yul\":13041:13042   */\n      dup3\n        /* \"#utility.yul\":13023:13043   */\n      tag_78\n      jump\t// in\n    tag_265:\n        /* \"#utility.yul\":13018:13043   */\n      swap2\n      pop\n        /* \"#utility.yul\":13057:13077   */\n      tag_266\n        /* \"#utility.yul\":13075:13076   */\n      dup4\n        /* \"#utility.yul\":13057:13077   */\n      tag_78\n      jump\t// in\n    tag_266:\n        /* \"#utility.yul\":13052:13077   */\n      swap3\n      pop\n        /* \"#utility.yul\":13101:13102   */\n      dup3\n        /* \"#utility.yul\":13098:13099   */\n      dup3\n        /* \"#utility.yul\":13094:13103   */\n      sub\n        /* \"#utility.yul\":13086:13103   */\n      swap1\n      pop\n        /* \"#utility.yul\":13125:13126   */\n      dup2\n        /* \"#utility.yul\":13119:13123   */\n      dup2\n        /* \"#utility.yul\":13116:13127   */\n      gt\n        /* \"#utility.yul\":13113:13150   */\n      iszero\n      tag_267\n      jumpi\n        /* \"#utility.yul\":13130:13148   */\n      tag_268\n      tag_116\n      jump\t// in\n    tag_268:\n        /* \"#utility.yul\":13113:13150   */\n    tag_267:\n        /* \"#utility.yul\":12963:13157   */\n      swap3\n      swap2\n      pop\n      pop\n      jump\t// out\n        /* \"#utility.yul\":13163:13354   */\n    tag_67:\n        /* \"#utility.yul\":13203:13206   */\n      0x00\n        /* \"#utility.yul\":13222:13242   */\n      tag_270\n        /* \"#utility.yul\":13240:13241   */\n      dup3\n        /* \"#utility.yul\":13222:13242   */\n      tag_78\n      jump\t// in\n    tag_270:\n        /* \"#utility.yul\":13217:13242   */\n      swap2\n      pop\n        /* \"#utility.yul\":13256:13276   */\n      tag_271\n        /* \"#utility.yul\":13274:13275   */\n      dup4\n        /* \"#utility.yul\":13256:13276   */\n      tag_78\n      jump\t// in\n    tag_271:\n        /* \"#utility.yul\":13251:13276   */\n      swap3\n      pop\n        /* \"#utility.yul\":13299:13300   */\n      dup3\n        /* \"#utility.yul\":13296:13297   */\n      dup3\n        /* \"#utility.yul\":13292:13301   */\n      add\n        /* \"#utility.yul\":13285:13301   */\n      swap1\n      pop\n        /* \"#utility.yul\":13320:13323   */\n      dup1\n        /* \"#utility.yul\":13317:13318   */\n      dup3\n        /* \"#utility.yul\":13314:13324   */\n      gt\n        /* \"#utility.yul\":13311:13347   */\n      iszero\n      tag_272\n      jumpi\n        /* \"#utility.yul\":13327:13345   */\n      tag_273\n      tag_116\n      jump\t// in\n    tag_273:\n        /* \"#utility.yul\":13311:13347   */\n    tag_272:\n        /* \"#utility.yul\":13163:13354   */\n      swap3\n      swap2\n      pop\n      pop\n      jump\t// out\n        /* \"#utility.yul\":13360:13478   */\n    tag_117:\n        /* \"#utility.yul\":13447:13471   */\n      tag_275\n        /* \"#utility.yul\":13465:13470   */\n      dup2\n        /* \"#utility.yul\":13447:13471   */\n      tag_95\n      jump\t// in\n    tag_275:\n        /* \"#utility.yul\":13442:13445   */\n      dup3\n        /* \"#utility.yul\":13435:13472   */\n      mstore\n        /* \"#utility.yul\":13360:13478   */\n      pop\n      pop\n      jump\t// out\n        /* \"#utility.yul\":13484:13926   */\n    tag_69:\n        /* \"#utility.yul\":13633:13637   */\n      0x00\n        /* \"#utility.yul\":13671:13673   */\n      0x60\n        /* \"#utility.yul\":13660:13669   */\n      dup3\n        /* \"#utility.yul\":13656:13674   */\n      add\n        /* \"#utility.yul\":13648:13674   */\n      swap1\n      pop\n        /* \"#utility.yul\":13684:13755   */\n      tag_277\n        /* \"#utility.yul\":13752:13753   */\n      0x00\n        /* \"#utility.yul\":13741:13750   */\n      dup4\n        /* \"#utility.yul\":13737:13754   */\n      add\n        /* \"#utility.yul\":13728:13734   */\n      dup7\n        /* \"#utility.yul\":13684:13755   */\n      tag_117\n      jump\t// in\n    tag_277:\n        /* \"#utility.yul\":13765:13837   */\n      tag_278\n        /* \"#utility.yul\":13833:13835   */\n      0x20\n        /* \"#utility.yul\":13822:13831   */\n      dup4\n        /* \"#utility.yul\":13818:13836   */\n      add\n        /* \"#utility.yul\":13809:13815   */\n      dup6\n        /* \"#utility.yul\":13765:13837   */\n      tag_117\n      jump\t// in\n    tag_278:\n        /* \"#utility.yul\":13847:13919   */\n      tag_279\n        /* \"#utility.yul\":13915:13917   */\n      0x40\n        /* \"#utility.yul\":13904:13913   */\n      dup4\n        /* \"#utility.yul\":13900:13918   */\n      add\n        /* \"#utility.yul\":13891:13897   */\n      dup5\n        /* \"#utility.yul\":13847:13919   */\n      tag_79\n      jump\t// in\n    tag_279:\n        /* \"#utility.yul\":13484:13926   */\n      swap5\n      swap4\n      pop\n      pop\n      pop\n      pop\n      jump\t// out\n\n    auxdata: 0xa264697066735822122025d21a91a14b42492445718b76fcc901656dbd72c55507565b7dbb0a78c0970264736f6c63430008120033\n}\n",
				"bytecode": {
					"linkReferences": {},
					"object": "608060405234801561001057600080fd5b50610d1c806100206000396000f3fe608060405234801561001057600080fd5b506004361061007d5760003560e01c806370a082311161005b57806370a08231146100da57806376809ce31461010a57806395d89b4114610128578063a9059cbb146101465761007d565b806306fdde031461008257806318160ddd146100a0578063400ffb33146100be575b600080fd5b61008a610162565b604051610097919061058a565b60405180910390f35b6100a86101f4565b6040516100b591906105c5565b60405180910390f35b6100d860048036038101906100d39190610755565b6101fe565b005b6100f460048036038101906100ef9190610852565b610235565b60405161010191906105c5565b60405180910390f35b61011261027e565b60405161011f91906105c5565b60405180910390f35b610130610288565b60405161013d919061058a565b60405180910390f35b610160600480360381019061015b919061087f565b61031a565b005b606060008054610171906108ee565b80601f016020809104026020016040519081016040528092919081815260200182805461019d906108ee565b80156101ea5780601f106101bf576101008083540402835291602001916101ea565b820191906000526020600020905b8154815290600101906020018083116101cd57829003601f168201915b5050505050905090565b6000600254905090565b836000908161020d9190610acb565b50826001908161021d9190610acb565b508060038190555061022f3383610487565b50505050565b6000600460008373ffffffffffffffffffffffffffffffffffffffff1673ffffffffffffffffffffffffffffffffffffffff168152602001908152602001600020549050919050565b6000600354905090565b606060018054610297906108ee565b80601f01602080910402602001604051908101604052809291908181526020018280546102c3906108ee565b80156103105780601f106102e557610100808354040283529160200191610310565b820191906000526020600020905b8154815290600101906020018083116102f357829003601f168201915b5050505050905090565b80600460003373ffffffffffffffffffffffffffffffffffffffff1673ffffffffffffffffffffffffffffffffffffffff16815260200190815260200160002054101561039c576040517f08c379a000000000000000000000000000000000000000000000000000000000815260040161039390610be9565b60405180910390fd5b80600460003373ffffffffffffffffffffffffffffffffffffffff1673ffffffffffffffffffffffffffffffffffffffff16815260200190815260200160002060008282546103eb9190610c38565b9250508190555080600460008473ffffffffffffffffffffffffffffffffffffffff1673ffffffffffffffffffffffffffffffffffffffff16815260200190815260200160002060008282546104419190610c6c565b925050819055507f30e0789ed23094f42b5810cbdf4e48a0478aec0b37810e24e912443dd0032b3c33838360405161047b93929190610caf565b60405180910390a15050565b80600460008473ffffffffffffffffffffffffffffffffffffffff1673ffffffffffffffffffffffffffffffffffffffff16815260200190815260200160002060008282546104d69190610c6c565b9250508190555080600260008282546104ef9190610c6c565b925050819055505050565b600081519050919050565b600082825260208201905092915050565b60005b83811015610534578082015181840152602081019050610519565b60008484015250505050565b6000601f19601f8301169050919050565b600061055c826104fa565b6105668185610505565b9350610576818560208601610516565b61057f81610540565b840191505092915050565b600060208201905081810360008301526105a48184610551565b905092915050565b6000819050919050565b6105bf816105ac565b82525050565b60006020820190506105da60008301846105b6565b92915050565b6000604051905090565b600080fd5b600080fd5b600080fd5b600080fd5b7f4e487b7100000000000000000000000000000000000000000000000000000000600052604160045260246000fd5b61063682610540565b810181811067ffffffffffffffff82111715610655576106546105fe565b5b80604052505050565b60006106686105e0565b9050610674828261062d565b919050565b600067ffffffffffffffff821115610694576106936105fe565b5b61069d82610540565b9050602081019050919050565b82818337600083830152505050565b60006106cc6106c784610679565b61065e565b9050828152602081018484840111156106e8576106e76105f9565b5b6106f38482856106aa565b509392505050565b600082601f8301126107105761070f6105f4565b5b81356107208482602086016106b9565b91505092915050565b610732816105ac565b811461073d57600080fd5b50565b60008135905061074f81610729565b92915050565b6000806000806080858703121561076f5761076e6105ea565b5b600085013567ffffffffffffffff81111561078d5761078c6105ef565b5b610799878288016106fb565b945050602085013567ffffffffffffffff8111156107ba576107b96105ef565b5b6107c6878288016106fb565b93505060406107d787828801610740565b92505060606107e887828801610740565b91505092959194509250565b600073ffffffffffffffffffffffffffffffffffffffff82169050919050565b600061081f826107f4565b9050919050565b61082f81610814565b811461083a57600080fd5b50565b60008135905061084c81610826565b92915050565b600060208284031215610868576108676105ea565b5b60006108768482850161083d565b91505092915050565b60008060408385031215610896576108956105ea565b5b60006108a48582860161083d565b92505060206108b585828601610740565b9150509250929050565b7f4e487b7100000000000000000000000000000000000000000000000000000000600052602260045260246000fd5b6000600282049050600182168061090657607f821691505b602082108103610919576109186108bf565b5b50919050565b60008190508160005260206000209050919050565b60006020601f8301049050919050565b600082821b905092915050565b6000600883026109817fffffffffffffffffffffffffffffffffffffffffffffffffffffffffffffffff82610944565b61098b8683610944565b95508019841693508086168417925050509392505050565b6000819050919050565b60006109c86109c36109be846105ac565b6109a3565b6105ac565b9050919050565b6000819050919050565b6109e2836109ad565b6109f66109ee826109cf565b848454610951565b825550505050565b600090565b610a0b6109fe565b610a168184846109d9565b505050565b5b81811015610a3a57610a2f600082610a03565b600181019050610a1c565b5050565b601f821115610a7f57610a508161091f565b610a5984610934565b81016020851015610a68578190505b610a7c610a7485610934565b830182610a1b565b50505b505050565b600082821c905092915050565b6000610aa260001984600802610a84565b1980831691505092915050565b6000610abb8383610a91565b9150826002028217905092915050565b610ad4826104fa565b67ffffffffffffffff811115610aed57610aec6105fe565b5b610af782546108ee565b610b02828285610a3e565b600060209050601f831160018114610b355760008415610b23578287015190505b610b2d8582610aaf565b865550610b95565b601f198416610b438661091f565b60005b82811015610b6b57848901518255600182019150602085019450602081019050610b46565b86831015610b885784890151610b84601f891682610a91565b8355505b6001600288020188555050505b505050505050565b7f546f6f206d75636820746f2073656e6420746f6b656e73000000000000000000600082015250565b6000610bd3601783610505565b9150610bde82610b9d565b602082019050919050565b60006020820190508181036000830152610c0281610bc6565b9050919050565b7f4e487b7100000000000000000000000000000000000000000000000000000000600052601160045260246000fd5b6000610c43826105ac565b9150610c4e836105ac565b9250828203905081811115610c6657610c65610c09565b5b92915050565b6000610c77826105ac565b9150610c82836105ac565b9250828201905080821115610c9a57610c99610c09565b5b92915050565b610ca981610814565b82525050565b6000606082019050610cc46000830186610ca0565b610cd16020830185610ca0565b610cde60408301846105b6565b94935050505056fea264697066735822122025d21a91a14b42492445718b76fcc901656dbd72c55507565b7dbb0a78c0970264736f6c63430008120033",
					"opcodes": "PUSH1 0x80 PUSH1 0x40 MSTORE CALLVALUE DUP1 ISZERO PUSH2 0x10 JUMPI PUSH1 0x0 DUP1 REVERT JUMPDEST POP PUSH2 0xD1C DUP1 PUSH2 0x20 PUSH1 0x0 CODECOPY PUSH1 0x0 RETURN INVALID PUSH1 0x80 PUSH1 0x40 MSTORE CALLVALUE DUP1 ISZERO PUSH2 0x10 JUMPI PUSH1 0x0 DUP1 REVERT JUMPDEST POP PUSH1 0x4 CALLDATASIZE LT PUSH2 0x7D JUMPI PUSH1 0x0 CALLDATALOAD PUSH1 0xE0 SHR DUP1 PUSH4 0x70A08231 GT PUSH2 0x5B JUMPI DUP1 PUSH4 0x70A08231 EQ PUSH2 0xDA JUMPI DUP1 PUSH4 0x76809CE3 EQ PUSH2 0x10A JUMPI DUP1 PUSH4 0x95D89B41 EQ PUSH2 0x128 JUMPI DUP1 PUSH4 0xA9059CBB EQ PUSH2 0x146 JUMPI PUSH2 0x7D JUMP JUMPDEST DUP1 PUSH4 0x6FDDE03 EQ PUSH2 0x82 JUMPI DUP1 PUSH4 0x18160DDD EQ PUSH2 0xA0 JUMPI DUP1 PUSH4 0x400FFB33 EQ PUSH2 0xBE JUMPI JUMPDEST PUSH1 0x0 DUP1 REVERT JUMPDEST PUSH2 0x8A PUSH2 0x162 JUMP JUMPDEST PUSH1 0x40 MLOAD PUSH2 0x97 SWAP2 SWAP1 PUSH2 0x58A JUMP JUMPDEST PUSH1 0x40 MLOAD DUP1 SWAP2 SUB SWAP1 RETURN JUMPDEST PUSH2 0xA8 PUSH2 0x1F4 JUMP JUMPDEST PUSH1 0x40 MLOAD PUSH2 0xB5 SWAP2 SWAP1 PUSH2 0x5C5 JUMP JUMPDEST PUSH1 0x40 MLOAD DUP1 SWAP2 SUB SWAP1 RETURN JUMPDEST PUSH2 0xD8 PUSH1 0x4 DUP1 CALLDATASIZE SUB DUP2 ADD SWAP1 PUSH2 0xD3 SWAP2 SWAP1 PUSH2 0x755 JUMP JUMPDEST PUSH2 0x1FE JUMP JUMPDEST STOP JUMPDEST PUSH2 0xF4 PUSH1 0x4 DUP1 CALLDATASIZE SUB DUP2 ADD SWAP1 PUSH2 0xEF SWAP2 SWAP1 PUSH2 0x852 JUMP JUMPDEST PUSH2 0x235 JUMP JUMPDEST PUSH1 0x40 MLOAD PUSH2 0x101 SWAP2 SWAP1 PUSH2 0x5C5 JUMP JUMPDEST PUSH1 0x40 MLOAD DUP1 SWAP2 SUB SWAP1 RETURN JUMPDEST PUSH2 0x112 PUSH2 0x27E JUMP JUMPDEST PUSH1 0x40 MLOAD PUSH2 0x11F SWAP2 SWAP1 PUSH2 0x5C5 JUMP JUMPDEST PUSH1 0x40 MLOAD DUP1 SWAP2 SUB SWAP1 RETURN JUMPDEST PUSH2 0x130 PUSH2 0x288 JUMP JUMPDEST PUSH1 0x40 MLOAD PUSH2 0x13D SWAP2 SWAP1 PUSH2 0x58A JUMP JUMPDEST PUSH1 0x40 MLOAD DUP1 SWAP2 SUB SWAP1 RETURN JUMPDEST PUSH2 0x160 PUSH1 0x4 DUP1 CALLDATASIZE SUB DUP2 ADD SWAP1 PUSH2 0x15B SWAP2 SWAP1 PUSH2 0x87F JUMP JUMPDEST PUSH2 0x31A JUMP JUMPDEST STOP JUMPDEST PUSH1 0x60 PUSH1 0x0 DUP1 SLOAD PUSH2 0x171 SWAP1 PUSH2 0x8EE JUMP JUMPDEST DUP1 PUSH1 0x1F ADD PUSH1 0x20 DUP1 SWAP2 DIV MUL PUSH1 0x20 ADD PUSH1 0x40 MLOAD SWAP1 DUP2 ADD PUSH1 0x40 MSTORE DUP1 SWAP3 SWAP2 SWAP1 DUP2 DUP2 MSTORE PUSH1 0x20 ADD DUP3 DUP1 SLOAD PUSH2 0x19D SWAP1 PUSH2 0x8EE JUMP JUMPDEST DUP1 ISZERO PUSH2 0x1EA JUMPI DUP1 PUSH1 0x1F LT PUSH2 0x1BF JUMPI PUSH2 0x100 DUP1 DUP4 SLOAD DIV MUL DUP4 MSTORE SWAP2 PUSH1 0x20 ADD SWAP2 PUSH2 0x1EA JUMP JUMPDEST DUP3 ADD SWAP2 SWAP1 PUSH1 0x0 MSTORE PUSH1 0x20 PUSH1 0x0 KECCAK256 SWAP1 JUMPDEST DUP2 SLOAD DUP2 MSTORE SWAP1 PUSH1 0x1 ADD SWAP1 PUSH1 0x20 ADD DUP1 DUP4 GT PUSH2 0x1CD JUMPI DUP3 SWAP1 SUB PUSH1 0x1F AND DUP3 ADD SWAP2 JUMPDEST POP POP POP POP POP SWAP1 POP SWAP1 JUMP JUMPDEST PUSH1 0x0 PUSH1 0x2 SLOAD SWAP1 POP SWAP1 JUMP JUMPDEST DUP4 PUSH1 0x0 SWAP1 DUP2 PUSH2 0x20D SWAP2 SWAP1 PUSH2 0xACB JUMP JUMPDEST POP DUP3 PUSH1 0x1 SWAP1 DUP2 PUSH2 0x21D SWAP2 SWAP1 PUSH2 0xACB JUMP JUMPDEST POP DUP1 PUSH1 0x3 DUP2 SWAP1 SSTORE POP PUSH2 0x22F CALLER DUP4 PUSH2 0x487 JUMP JUMPDEST POP POP POP POP JUMP JUMPDEST PUSH1 0x0 PUSH1 0x4 PUSH1 0x0 DUP4 PUSH20 0xFFFFFFFFFFFFFFFFFFFFFFFFFFFFFFFFFFFFFFFF AND PUSH20 0xFFFFFFFFFFFFFFFFFFFFFFFFFFFFFFFFFFFFFFFF AND DUP2 MSTORE PUSH1 0x20 ADD SWAP1 DUP2 MSTORE PUSH1 0x20 ADD PUSH1 0x0 KECCAK256 SLOAD SWAP1 POP SWAP2 SWAP1 POP JUMP JUMPDEST PUSH1 0x0 PUSH1 0x3 SLOAD SWAP1 POP SWAP1 JUMP JUMPDEST PUSH1 0x60 PUSH1 0x1 DUP1 SLOAD PUSH2 0x297 SWAP1 PUSH2 0x8EE JUMP JUMPDEST DUP1 PUSH1 0x1F ADD PUSH1 0x20 DUP1 SWAP2 DIV MUL PUSH1 0x20 ADD PUSH1 0x40 MLOAD SWAP1 DUP2 ADD PUSH1 0x40 MSTORE DUP1 SWAP3 SWAP2 SWAP1 DUP2 DUP2 MSTORE PUSH1 0x20 ADD DUP3 DUP1 SLOAD PUSH2 0x2C3 SWAP1 PUSH2 0x8EE JUMP JUMPDEST DUP1 ISZERO PUSH2 0x310 JUMPI DUP1 PUSH1 0x1F LT PUSH2 0x2E5 JUMPI PUSH2 0x100 DUP1 DUP4 SLOAD DIV MUL DUP4 MSTORE SWAP2 PUSH1 0x20 ADD SWAP2 PUSH2 0x310 JUMP JUMPDEST DUP3 ADD SWAP2 SWAP1 PUSH1 0x0 MSTORE PUSH1 0x20 PUSH1 0x0 KECCAK256 SWAP1 JUMPDEST DUP2 SLOAD DUP2 MSTORE SWAP1 PUSH1 0x1 ADD SWAP1 PUSH1 0x20 ADD DUP1 DUP4 GT PUSH2 0x2F3 JUMPI DUP3 SWAP1 SUB PUSH1 0x1F AND DUP3 ADD SWAP2 JUMPDEST POP POP POP POP POP SWAP1 POP SWAP1 JUMP JUMPDEST DUP1 PUSH1 0x4 PUSH1 0x0 CALLER PUSH20 0xFFFFFFFFFFFFFFFFFFFFFFFFFFFFFFFFFFFFFFFF AND PUSH20 0xFFFFFFFFFFFFFFFFFFFFFFFFFFFFFFFFFFFFFFFF AND DUP2 MSTORE PUSH1 0x20 ADD SWAP1 DUP2 MSTORE PUSH1 0x20 ADD PUSH1 0x0 KECCAK256 SLOAD LT ISZERO PUSH2 0x39C JUMPI PUSH1 0x40 MLOAD PUSH32 0x8C379A000000000000000000000000000000000000000000000000000000000 DUP2 MSTORE PUSH1 0x4 ADD PUSH2 0x393 SWAP1 PUSH2 0xBE9 JUMP JUMPDEST PUSH1 0x40 MLOAD DUP1 SWAP2 SUB SWAP1 REVERT JUMPDEST DUP1 PUSH1 0x4 PUSH1 0x0 CALLER PUSH20 0xFFFFFFFFFFFFFFFFFFFFFFFFFFFFFFFFFFFFFFFF AND PUSH20 0xFFFFFFFFFFFFFFFFFFFFFFFFFFFFFFFFFFFFFFFF AND DUP2 MSTORE PUSH1 0x20 ADD SWAP1 DUP2 MSTORE PUSH1 0x20 ADD PUSH1 0x0 KECCAK256 PUSH1 0x0 DUP3 DUP3 SLOAD PUSH2 0x3EB SWAP2 SWAP1 PUSH2 0xC38 JUMP JUMPDEST SWAP3 POP POP DUP2 SWAP1 SSTORE POP DUP1 PUSH1 0x4 PUSH1 0x0 DUP5 PUSH20 0xFFFFFFFFFFFFFFFFFFFFFFFFFFFFFFFFFFFFFFFF AND PUSH20 0xFFFFFFFFFFFFFFFFFFFFFFFFFFFFFFFFFFFFFFFF AND DUP2 MSTORE PUSH1 0x20 ADD SWAP1 DUP2 MSTORE PUSH1 0x20 ADD PUSH1 0x0 KECCAK256 PUSH1 0x0 DUP3 DUP3 SLOAD PUSH2 0x441 SWAP2 SWAP1 PUSH2 0xC6C JUMP JUMPDEST SWAP3 POP POP DUP2 SWAP1 SSTORE POP PUSH32 0x30E0789ED23094F42B5810CBDF4E48A0478AEC0B37810E24E912443DD0032B3C CALLER DUP4 DUP4 PUSH1 0x40 MLOAD PUSH2 0x47B SWAP4 SWAP3 SWAP2 SWAP1 PUSH2 0xCAF JUMP JUMPDEST PUSH1 0x40 MLOAD DUP1 SWAP2 SUB SWAP1 LOG1 POP POP JUMP JUMPDEST DUP1 PUSH1 0x4 PUSH1 0x0 DUP5 PUSH20 0xFFFFFFFFFFFFFFFFFFFFFFFFFFFFFFFFFFFFFFFF AND PUSH20 0xFFFFFFFFFFFFFFFFFFFFFFFFFFFFFFFFFFFFFFFF AND DUP2 MSTORE PUSH1 0x20 ADD SWAP1 DUP2 MSTORE PUSH1 0x20 ADD PUSH1 0x0 KECCAK256 PUSH1 0x0 DUP3 DUP3 SLOAD PUSH2 0x4D6 SWAP2 SWAP1 PUSH2 0xC6C JUMP JUMPDEST SWAP3 POP POP DUP2 SWAP1 SSTORE POP DUP1 PUSH1 0x2 PUSH1 0x0 DUP3 DUP3 SLOAD PUSH2 0x4EF SWAP2 SWAP1 PUSH2 0xC6C JUMP JUMPDEST SWAP3 POP POP DUP2 SWAP1 SSTORE POP POP POP JUMP JUMPDEST PUSH1 0x0 DUP2 MLOAD SWAP1 POP SWAP2 SWAP1 POP JUMP JUMPDEST PUSH1 0x0 DUP3 DUP3 MSTORE PUSH1 0x20 DUP3 ADD SWAP1 POP SWAP3 SWAP2 POP POP JUMP JUMPDEST PUSH1 0x0 JUMPDEST DUP4 DUP2 LT ISZERO PUSH2 0x534 JUMPI DUP1 DUP3 ADD MLOAD DUP2 DUP5 ADD MSTORE PUSH1 0x20 DUP2 ADD SWAP1 POP PUSH2 0x519 JUMP JUMPDEST PUSH1 0x0 DUP5 DUP5 ADD MSTORE POP POP POP POP JUMP JUMPDEST PUSH1 0x0 PUSH1 0x1F NOT PUSH1 0x1F DUP4 ADD AND SWAP1 POP SWAP2 SWAP1 POP JUMP JUMPDEST PUSH1 0x0 PUSH2 0x55C DUP3 PUSH2 0x4FA JUMP JUMPDEST PUSH2 0x566 DUP2 DUP6 PUSH2 0x505 JUMP JUMPDEST SWAP4 POP PUSH2 0x576 DUP2 DUP6 PUSH1 0x20 DUP7 ADD PUSH2 0x516 JUMP JUMPDEST PUSH2 0x57F DUP2 PUSH2 0x540 JUMP JUMPDEST DUP5 ADD SWAP2 POP POP SWAP3 SWAP2 POP POP JUMP JUMPDEST PUSH1 0x0 PUSH1 0x20 DUP3 ADD SWAP1 POP DUP2 DUP2 SUB PUSH1 0x0 DUP4 ADD MSTORE PUSH2 0x5A4 DUP2 DUP5 PUSH2 0x551 JUMP JUMPDEST SWAP1 POP SWAP3 SWAP2 POP POP JUMP JUMPDEST PUSH1 0x0 DUP2 SWAP1 POP SWAP2 SWAP1 POP JUMP JUMPDEST PUSH2 0x5BF DUP2 PUSH2 0x5AC JUMP JUMPDEST DUP3 MSTORE POP POP JUMP JUMPDEST PUSH1 0x0 PUSH1 0x20 DUP3 ADD SWAP1 POP PUSH2 0x5DA PUSH1 0x0 DUP4 ADD DUP5 PUSH2 0x5B6 JUMP JUMPDEST SWAP3 SWAP2 POP POP JUMP JUMPDEST PUSH1 0x0 PUSH1 0x40 MLOAD SWAP1 POP SWAP1 JUMP JUMPDEST PUSH1 0x0 DUP1 REVERT JUMPDEST PUSH1 0x0 DUP1 REVERT JUMPDEST PUSH1 0x0 DUP1 REVERT JUMPDEST PUSH1 0x0 DUP1 REVERT JUMPDEST PUSH32 0x4E487B7100000000000000000000000000000000000000000000000000000000 PUSH1 0x0 MSTORE PUSH1 0x41 PUSH1 0x4 MSTORE PUSH1 0x24 PUSH1 0x0 REVERT JUMPDEST PUSH2 0x636 DUP3 PUSH2 0x540 JUMP JUMPDEST DUP2 ADD DUP2 DUP2 LT PUSH8 0xFFFFFFFFFFFFFFFF DUP3 GT OR ISZERO PUSH2 0x655 JUMPI PUSH2 0x654 PUSH2 0x5FE JUMP JUMPDEST JUMPDEST DUP1 PUSH1 0x40 MSTORE POP POP POP JUMP JUMPDEST PUSH1 0x0 PUSH2 0x668 PUSH2 0x5E0 JUMP JUMPDEST SWAP1 POP PUSH2 0x674 DUP3 DUP3 PUSH2 0x62D JUMP JUMPDEST SWAP2 SWAP1 POP JUMP JUMPDEST PUSH1 0x0 PUSH8 0xFFFFFFFFFFFFFFFF DUP3 GT ISZERO PUSH2 0x694 JUMPI PUSH2 0x693 PUSH2 0x5FE JUMP JUMPDEST JUMPDEST PUSH2 0x69D DUP3 PUSH2 0x540 JUMP JUMPDEST SWAP1 POP PUSH1 0x20 DUP2 ADD SWAP1 POP SWAP2 SWAP1 POP JUMP JUMPDEST DUP3 DUP2 DUP4 CALLDATACOPY PUSH1 0x0 DUP4 DUP4 ADD MSTORE POP POP POP JUMP JUMPDEST PUSH1 0x0 PUSH2 0x6CC PUSH2 0x6C7 DUP5 PUSH2 0x679 JUMP JUMPDEST PUSH2 0x65E JUMP JUMPDEST SWAP1 POP DUP3 DUP2 MSTORE PUSH1 0x20 DUP2 ADD DUP5 DUP5 DUP5 ADD GT ISZERO PUSH2 0x6E8 JUMPI PUSH2 0x6E7 PUSH2 0x5F9 JUMP JUMPDEST JUMPDEST PUSH2 0x6F3 DUP5 DUP3 DUP6 PUSH2 0x6AA JUMP JUMPDEST POP SWAP4 SWAP3 POP POP POP JUMP JUMPDEST PUSH1 0x0 DUP3 PUSH1 0x1F DUP4 ADD SLT PUSH2 0x710 JUMPI PUSH2 0x70F PUSH2 0x5F4 JUMP JUMPDEST JUMPDEST DUP2 CALLDATALOAD PUSH2 0x720 DUP5 DUP3 PUSH1 0x20 DUP7 ADD PUSH2 0x6B9 JUMP JUMPDEST SWAP2 POP POP SWAP3 SWAP2 POP POP JUMP JUMPDEST PUSH2 0x732 DUP2 PUSH2 0x5AC JUMP JUMPDEST DUP2 EQ PUSH2 0x73D JUMPI PUSH1 0x0 DUP1 REVERT JUMPDEST POP JUMP JUMPDEST PUSH1 0x0 DUP2 CALLDATALOAD SWAP1 POP PUSH2 0x74F DUP2 PUSH2 0x729 JUMP JUMPDEST SWAP3 SWAP2 POP POP JUMP JUMPDEST PUSH1 0x0 DUP1 PUSH1 0x0 DUP1 PUSH1 0x80 DUP6 DUP8 SUB SLT ISZERO PUSH2 0x76F JUMPI PUSH2 0x76E PUSH2 0x5EA JUMP JUMPDEST JUMPDEST PUSH1 0x0 DUP6 ADD CALLDATALOAD PUSH8 0xFFFFFFFFFFFFFFFF DUP2 GT ISZERO PUSH2 0x78D JUMPI PUSH2 0x78C PUSH2 0x5EF JUMP JUMPDEST JUMPDEST PUSH2 0x799 DUP8 DUP3 DUP9 ADD PUSH2 0x6FB JUMP JUMPDEST SWAP5 POP POP PUSH1 0x20 DUP6 ADD CALLDATALOAD PUSH8 0xFFFFFFFFFFFFFFFF DUP2 GT ISZERO PUSH2 0x7BA JUMPI PUSH2 0x7B9 PUSH2 0x5EF JUMP JUMPDEST JUMPDEST PUSH2 0x7C6 DUP8 DUP3 DUP9 ADD PUSH2 0x6FB JUMP JUMPDEST SWAP4 POP POP PUSH1 0x40 PUSH2 0x7D7 DUP8 DUP3 DUP9 ADD PUSH2 0x740 JUMP JUMPDEST SWAP3 POP POP PUSH1 0x60 PUSH2 0x7E8 DUP8 DUP3 DUP9 ADD PUSH2 0x740 JUMP JUMPDEST SWAP2 POP POP SWAP3 SWAP6 SWAP2 SWAP5 POP SWAP3 POP JUMP JUMPDEST PUSH1 0x0 PUSH20 0xFFFFFFFFFFFFFFFFFFFFFFFFFFFFFFFFFFFFFFFF DUP3 AND SWAP1 POP SWAP2 SWAP1 POP JUMP JUMPDEST PUSH1 0x0 PUSH2 0x81F DUP3 PUSH2 0x7F4 JUMP JUMPDEST SWAP1 POP SWAP2 SWAP1 POP JUMP JUMPDEST PUSH2 0x82F DUP2 PUSH2 0x814 JUMP JUMPDEST DUP2 EQ PUSH2 0x83A JUMPI PUSH1 0x0 DUP1 REVERT JUMPDEST POP JUMP JUMPDEST PUSH1 0x0 DUP2 CALLDATALOAD SWAP1 POP PUSH2 0x84C DUP2 PUSH2 0x826 JUMP JUMPDEST SWAP3 SWAP2 POP POP JUMP JUMPDEST PUSH1 0x0 PUSH1 0x20 DUP3 DUP5 SUB SLT ISZERO PUSH2 0x868 JUMPI PUSH2 0x867 PUSH2 0x5EA JUMP JUMPDEST JUMPDEST PUSH1 0x0 PUSH2 0x876 DUP5 DUP3 DUP6 ADD PUSH2 0x83D JUMP JUMPDEST SWAP2 POP POP SWAP3 SWAP2 POP POP JUMP JUMPDEST PUSH1 0x0 DUP1 PUSH1 0x40 DUP4 DUP6 SUB SLT ISZERO PUSH2 0x896 JUMPI PUSH2 0x895 PUSH2 0x5EA JUMP JUMPDEST JUMPDEST PUSH1 0x0 PUSH2 0x8A4 DUP6 DUP3 DUP7 ADD PUSH2 0x83D JUMP JUMPDEST SWAP3 POP POP PUSH1 0x20 PUSH2 0x8B5 DUP6 DUP3 DUP7 ADD PUSH2 0x740 JUMP JUMPDEST SWAP2 POP POP SWAP3 POP SWAP3 SWAP1 POP JUMP JUMPDEST PUSH32 0x4E487B7100000000000000000000000000000000000000000000000000000000 PUSH1 0x0 MSTORE PUSH1 0x22 PUSH1 0x4 MSTORE PUSH1 0x24 PUSH1 0x0 REVERT JUMPDEST PUSH1 0x0 PUSH1 0x2 DUP3 DIV SWAP1 POP PUSH1 0x1 DUP3 AND DUP1 PUSH2 0x906 JUMPI PUSH1 0x7F DUP3 AND SWAP2 POP JUMPDEST PUSH1 0x20 DUP3 LT DUP2 SUB PUSH2 0x919 JUMPI PUSH2 0x918 PUSH2 0x8BF JUMP JUMPDEST JUMPDEST POP SWAP2 SWAP1 POP JUMP JUMPDEST PUSH1 0x0 DUP2 SWAP1 POP DUP2 PUSH1 0x0 MSTORE PUSH1 0x20 PUSH1 0x0 KECCAK256 SWAP1 POP SWAP2 SWAP1 POP JUMP JUMPDEST PUSH1 0x0 PUSH1 0x20 PUSH1 0x1F DUP4 ADD DIV SWAP1 POP SWAP2 SWAP1 POP JUMP JUMPDEST PUSH1 0x0 DUP3 DUP3 SHL SWAP1 POP SWAP3 SWAP2 POP POP JUMP JUMPDEST PUSH1 0x0 PUSH1 0x8 DUP4 MUL PUSH2 0x981 PUSH32 0xFFFFFFFFFFFFFFFFFFFFFFFFFFFFFFFFFFFFFFFFFFFFFFFFFFFFFFFFFFFFFFFF DUP3 PUSH2 0x944 JUMP JUMPDEST PUSH2 0x98B DUP7 DUP4 PUSH2 0x944 JUMP JUMPDEST SWAP6 POP DUP1 NOT DUP5 AND SWAP4 POP DUP1 DUP7 AND DUP5 OR SWAP3 POP POP POP SWAP4 SWAP3 POP POP POP JUMP JUMPDEST PUSH1 0x0 DUP2 SWAP1 POP SWAP2 SWAP1 POP JUMP JUMPDEST PUSH1 0x0 PUSH2 0x9C8 PUSH2 0x9C3 PUSH2 0x9BE DUP5 PUSH2 0x5AC JUMP JUMPDEST PUSH2 0x9A3 JUMP JUMPDEST PUSH2 0x5AC JUMP JUMPDEST SWAP1 POP SWAP2 SWAP1 POP JUMP JUMPDEST PUSH1 0x0 DUP2 SWAP1 POP SWAP2 SWAP1 POP JUMP JUMPDEST PUSH2 0x9E2 DUP4 PUSH2 0x9AD JUMP JUMPDEST PUSH2 0x9F6 PUSH2 0x9EE DUP3 PUSH2 0x9CF JUMP JUMPDEST DUP5 DUP5 SLOAD PUSH2 0x951 JUMP JUMPDEST DUP3 SSTORE POP POP POP POP JUMP JUMPDEST PUSH1 0x0 SWAP1 JUMP JUMPDEST PUSH2 0xA0B PUSH2 0x9FE JUMP JUMPDEST PUSH2 0xA16 DUP2 DUP5 DUP5 PUSH2 0x9D9 JUMP JUMPDEST POP POP POP JUMP JUMPDEST JUMPDEST DUP2 DUP2 LT ISZERO PUSH2 0xA3A JUMPI PUSH2 0xA2F PUSH1 0x0 DUP3 PUSH2 0xA03 JUMP JUMPDEST PUSH1 0x1 DUP2 ADD SWAP1 POP PUSH2 0xA1C JUMP JUMPDEST POP POP JUMP JUMPDEST PUSH1 0x1F DUP3 GT ISZERO PUSH2 0xA7F JUMPI PUSH2 0xA50 DUP2 PUSH2 0x91F JUMP JUMPDEST PUSH2 0xA59 DUP5 PUSH2 0x934 JUMP JUMPDEST DUP2 ADD PUSH1 0x20 DUP6 LT ISZERO PUSH2 0xA68 JUMPI DUP2 SWAP1 POP JUMPDEST PUSH2 0xA7C PUSH2 0xA74 DUP6 PUSH2 0x934 JUMP JUMPDEST DUP4 ADD DUP3 PUSH2 0xA1B JUMP JUMPDEST POP POP JUMPDEST POP POP POP JUMP JUMPDEST PUSH1 0x0 DUP3 DUP3 SHR SWAP1 POP SWAP3 SWAP2 POP POP JUMP JUMPDEST PUSH1 0x0 PUSH2 0xAA2 PUSH1 0x0 NOT DUP5 PUSH1 0x8 MUL PUSH2 0xA84 JUMP JUMPDEST NOT DUP1 DUP4 AND SWAP2 POP POP SWAP3 SWAP2 POP POP JUMP JUMPDEST PUSH1 0x0 PUSH2 0xABB DUP4 DUP4 PUSH2 0xA91 JUMP JUMPDEST SWAP2 POP DUP3 PUSH1 0x2 MUL DUP3 OR SWAP1 POP SWAP3 SWAP2 POP POP JUMP JUMPDEST PUSH2 0xAD4 DUP3 PUSH2 0x4FA JUMP JUMPDEST PUSH8 0xFFFFFFFFFFFFFFFF DUP2 GT ISZERO PUSH2 0xAED JUMPI PUSH2 0xAEC PUSH2 0x5FE JUMP JUMPDEST JUMPDEST PUSH2 0xAF7 DUP3 SLOAD PUSH2 0x8EE JUMP JUMPDEST PUSH2 0xB02 DUP3 DUP3 DUP6 PUSH2 0xA3E JUMP JUMPDEST PUSH1 0x0 PUSH1 0x20 SWAP1 POP PUSH1 0x1F DUP4 GT PUSH1 0x1 DUP2 EQ PUSH2 0xB35 JUMPI PUSH1 0x0 DUP5 ISZERO PUSH2 0xB23 JUMPI DUP3 DUP8 ADD MLOAD SWAP1 POP JUMPDEST PUSH2 0xB2D DUP6 DUP3 PUSH2 0xAAF JUMP JUMPDEST DUP7 SSTORE POP PUSH2 0xB95 JUMP JUMPDEST PUSH1 0x1F NOT DUP5 AND PUSH2 0xB43 DUP7 PUSH2 0x91F JUMP JUMPDEST PUSH1 0x0 JUMPDEST DUP3 DUP2 LT ISZERO PUSH2 0xB6B JUMPI DUP5 DUP10 ADD MLOAD DUP3 SSTORE PUSH1 0x1 DUP3 ADD SWAP2 POP PUSH1 0x20 DUP6 ADD SWAP5 POP PUSH1 0x20 DUP2 ADD SWAP1 POP PUSH2 0xB46 JUMP JUMPDEST DUP7 DUP4 LT ISZERO PUSH2 0xB88 JUMPI DUP5 DUP10 ADD MLOAD PUSH2 0xB84 PUSH1 0x1F DUP10 AND DUP3 PUSH2 0xA91 JUMP JUMPDEST DUP4 SSTORE POP JUMPDEST PUSH1 0x1 PUSH1 0x2 DUP9 MUL ADD DUP9 SSTORE POP POP POP JUMPDEST POP POP POP POP POP POP JUMP JUMPDEST PUSH32 0x546F6F206D75636820746F2073656E6420746F6B656E73000000000000000000 PUSH1 0x0 DUP3 ADD MSTORE POP JUMP JUMPDEST PUSH1 0x0 PUSH2 0xBD3 PUSH1 0x17 DUP4 PUSH2 0x505 JUMP JUMPDEST SWAP2 POP PUSH2 0xBDE DUP3 PUSH2 0xB9D JUMP JUMPDEST PUSH1 0x20 DUP3 ADD SWAP1 POP SWAP2 SWAP1 POP JUMP JUMPDEST PUSH1 0x0 PUSH1 0x20 DUP3 ADD SWAP1 POP DUP2 DUP2 SUB PUSH1 0x0 DUP4 ADD MSTORE PUSH2 0xC02 DUP2 PUSH2 0xBC6 JUMP JUMPDEST SWAP1 POP SWAP2 SWAP1 POP JUMP JUMPDEST PUSH32 0x4E487B7100000000000000000000000000000000000000000000000000000000 PUSH1 0x0 MSTORE PUSH1 0x11 PUSH1 0x4 MSTORE PUSH1 0x24 PUSH1 0x0 REVERT JUMPDEST PUSH1 0x0 PUSH2 0xC43 DUP3 PUSH2 0x5AC JUMP JUMPDEST SWAP2 POP PUSH2 0xC4E DUP4 PUSH2 0x5AC JUMP JUMPDEST SWAP3 POP DUP3 DUP3 SUB SWAP1 POP DUP2 DUP2 GT ISZERO PUSH2 0xC66 JUMPI PUSH2 0xC65 PUSH2 0xC09 JUMP JUMPDEST JUMPDEST SWAP3 SWAP2 POP POP JUMP JUMPDEST PUSH1 0x0 PUSH2 0xC77 DUP3 PUSH2 0x5AC JUMP JUMPDEST SWAP2 POP PUSH2 0xC82 DUP4 PUSH2 0x5AC JUMP JUMPDEST SWAP3 POP DUP3 DUP3 ADD SWAP1 POP DUP1 DUP3 GT ISZERO PUSH2 0xC9A JUMPI PUSH2 0xC99 PUSH2 0xC09 JUMP JUMPDEST JUMPDEST SWAP3 SWAP2 POP POP JUMP JUMPDEST PUSH2 0xCA9 DUP2 PUSH2 0x814 JUMP JUMPDEST DUP3 MSTORE POP POP JUMP JUMPDEST PUSH1 0x0 PUSH1 0x60 DUP3 ADD SWAP1 POP PUSH2 0xCC4 PUSH1 0x0 DUP4 ADD DUP7 PUSH2 0xCA0 JUMP JUMPDEST PUSH2 0xCD1 PUSH1 0x20 DUP4 ADD DUP6 PUSH2 0xCA0 JUMP JUMPDEST PUSH2 0xCDE PUSH1 0x40 DUP4 ADD DUP5 PUSH2 0x5B6 JUMP JUMPDEST SWAP5 SWAP4 POP POP POP POP JUMP INVALID LOG2 PUSH5 0x6970667358 0x22 SLT KECCAK256 0x25 0xD2 BYTE SWAP2 LOG1 0x4B TIMESTAMP 0x49 0x24 GASLIMIT PUSH18 0x8B76FCC901656DBD72C55507565B7DBB0A78 0xC0 SWAP8 MUL PUSH5 0x736F6C6343 STOP ADDMOD SLT STOP CALLER "
				},
				"gasEstimates": {
					"creation": {
						"codeDepositCost": "671200",
						"executionCost": "702",
						"totalCost": "671902"
					},
					"external": {
						"balanceOf(address)": "2841",
						"decimal()": "2459",
						"name()": "infinite",
						"start(string,string,uint256,uint256)": "infinite",
						"symbol()": "infinite",
						"totalSupply()": "2460",
						"transfer(address,uint256)": "infinite"
					},
					"internal": {
						"mint(address,uint256)": "infinite"
					}
				},
				"methodIdentifiers": {
					"balanceOf(address)": "70a08231",
					"decimal()": "76809ce3",
					"name()": "06fdde03",
					"start(string,string,uint256,uint256)": "400ffb33",
					"symbol()": "95d89b41",
					"totalSupply()": "18160ddd",
					"transfer(address,uint256)": "a9059cbb"
				}
			},
			"storageLayout": {
				"storage": [
					{
						"astId": 11,
						"contract": "sol/0523/03.sol:myToken",
						"label": "tokenName",
						"offset": 0,
						"slot": "0",
						"type": "t_string_storage"
					},
					{
						"astId": 13,
						"contract": "sol/0523/03.sol:myToken",
						"label": "tokenSymbol",
						"offset": 0,
						"slot": "1",
						"type": "t_string_storage"
					},
					{
						"astId": 15,
						"contract": "sol/0523/03.sol:myToken",
						"label": "tokenTotalSupply",
						"offset": 0,
						"slot": "2",
						"type": "t_uint256"
					},
					{
						"astId": 17,
						"contract": "sol/0523/03.sol:myToken",
						"label": "tokenDecimal",
						"offset": 0,
						"slot": "3",
						"type": "t_uint256"
					},
					{
						"astId": 21,
						"contract": "sol/0523/03.sol:myToken",
						"label": "balances",
						"offset": 0,
						"slot": "4",
						"type": "t_mapping(t_address,t_uint256)"
					}
				],
				"types": {
					"t_address": {
						"encoding": "inplace",
						"label": "address",
						"numberOfBytes": "20"
					},
					"t_mapping(t_address,t_uint256)": {
						"encoding": "mapping",
						"key": "t_address",
						"label": "mapping(address => uint256)",
						"numberOfBytes": "32",
						"value": "t_uint256"
					},
					"t_string_storage": {
						"encoding": "bytes",
						"label": "string",
						"numberOfBytes": "32"
					},
					"t_uint256": {
						"encoding": "inplace",
						"label": "uint256",
						"numberOfBytes": "32"
					}
				}
			},
			"userdoc": {
				"kind": "user",
				"methods": {},
				"version": 1
			}
		}
	}
}