{
	"data": {
		"bytecode": {
			"linkReferences": {},
			"object": "608060405260076000556003600155600a60025560016003556001600455601960055534801561002e57600080fd5b5061011d8061003e6000396000f3fe6080604052348015600f57600080fd5b506004361060285760003560e01c8063980a67fd14602d575b600080fd5b6033604c565b6040516043969594939291906092565b60405180910390f35b600080600080600080600054600154600254600354600454600554955095509550955095509550909192939495565b6000819050919050565b608c81607b565b82525050565b600060c08201905060a560008301896085565b60b060208301886085565b60bb60408301876085565b60c660608301866085565b60d160808301856085565b60dc60a08301846085565b97965050505050505056fea26469706673582212207fc6244ad2146c10c2c25f39d0d0bb9d9b2caebb4c456800121b24944be9d78664736f6c63430008120033",
			"opcodes": "PUSH1 0x80 PUSH1 0x40 MSTORE PUSH1 0x7 PUSH1 0x0 SSTORE PUSH1 0x3 PUSH1 0x1 SSTORE PUSH1 0xA PUSH1 0x2 SSTORE PUSH1 0x1 PUSH1 0x3 SSTORE PUSH1 0x1 PUSH1 0x4 SSTORE PUSH1 0x19 PUSH1 0x5 SSTORE CALLVALUE DUP1 ISZERO PUSH2 0x2E JUMPI PUSH1 0x0 DUP1 REVERT JUMPDEST POP PUSH2 0x11D DUP1 PUSH2 0x3E PUSH1 0x0 CODECOPY PUSH1 0x0 RETURN INVALID PUSH1 0x80 PUSH1 0x40 MSTORE CALLVALUE DUP1 ISZERO PUSH1 0xF JUMPI PUSH1 0x0 DUP1 REVERT JUMPDEST POP PUSH1 0x4 CALLDATASIZE LT PUSH1 0x28 JUMPI PUSH1 0x0 CALLDATALOAD PUSH1 0xE0 SHR DUP1 PUSH4 0x980A67FD EQ PUSH1 0x2D JUMPI JUMPDEST PUSH1 0x0 DUP1 REVERT JUMPDEST PUSH1 0x33 PUSH1 0x4C JUMP JUMPDEST PUSH1 0x40 MLOAD PUSH1 0x43 SWAP7 SWAP6 SWAP5 SWAP4 SWAP3 SWAP2 SWAP1 PUSH1 0x92 JUMP JUMPDEST PUSH1 0x40 MLOAD DUP1 SWAP2 SUB SWAP1 RETURN JUMPDEST PUSH1 0x0 DUP1 PUSH1 0x0 DUP1 PUSH1 0x0 DUP1 PUSH1 0x0 SLOAD PUSH1 0x1 SLOAD PUSH1 0x2 SLOAD PUSH1 0x3 SLOAD PUSH1 0x4 SLOAD PUSH1 0x5 SLOAD SWAP6 POP SWAP6 POP SWAP6 POP SWAP6 POP SWAP6 POP SWAP6 POP SWAP1 SWAP2 SWAP3 SWAP4 SWAP5 SWAP6 JUMP JUMPDEST PUSH1 0x0 DUP2 SWAP1 POP SWAP2 SWAP1 POP JUMP JUMPDEST PUSH1 0x8C DUP2 PUSH1 0x7B JUMP JUMPDEST DUP3 MSTORE POP POP JUMP JUMPDEST PUSH1 0x0 PUSH1 0xC0 DUP3 ADD SWAP1 POP PUSH1 0xA5 PUSH1 0x0 DUP4 ADD DUP10 PUSH1 0x85 JUMP JUMPDEST PUSH1 0xB0 PUSH1 0x20 DUP4 ADD DUP9 PUSH1 0x85 JUMP JUMPDEST PUSH1 0xBB PUSH1 0x40 DUP4 ADD DUP8 PUSH1 0x85 JUMP JUMPDEST PUSH1 0xC6 PUSH1 0x60 DUP4 ADD DUP7 PUSH1 0x85 JUMP JUMPDEST PUSH1 0xD1 PUSH1 0x80 DUP4 ADD DUP6 PUSH1 0x85 JUMP JUMPDEST PUSH1 0xDC PUSH1 0xA0 DUP4 ADD DUP5 PUSH1 0x85 JUMP JUMPDEST SWAP8 SWAP7 POP POP POP POP POP POP POP JUMP INVALID LOG2 PUSH5 0x6970667358 0x22 SLT KECCAK256 PUSH32 0xC6244AD2146C10C2C25F39D0D0BB9D9B2CAEBB4C456800121B24944BE9D78664 PUSH20 0x6F6C634300081200330000000000000000000000 "
		},
		"gasEstimates": {
			"creation": {
				"codeDepositCost": "57000",
				"executionCost": "132741",
				"totalCost": "189741"
			},
			"external": {
				"arithmetic()": "infinite"
			}
		},
		"methodIdentifiers": {
			"arithmetic()": "980a67fd"
		}
	},
	"abi": [
		{
			"inputs": [],
			"name": "arithmetic",
			"outputs": [
				{
					"internalType": "uint256",
					"name": "",
					"type": "uint256"
				},
				{
					"internalType": "uint256",
					"name": "",
					"type": "uint256"
				},
				{
					"internalType": "uint256",
					"name": "",
					"type": "uint256"
				},
				{
					"internalType": "uint256",
					"name": "",
					"type": "uint256"
				},
				{
					"internalType": "uint256",
					"name": "",
					"type": "uint256"
				},
				{
					"internalType": "uint256",
					"name": "",
					"type": "uint256"
				}
			],
			"stateMutability": "view",
			"type": "function"
		}
	]
}