{
	"sol/03_quiz.sol": {
		"test": {
			"abi": [
				{
					"inputs": [],
					"name": "_block_Basefee",
					"outputs": [
						{
							"internalType": "uint256",
							"name": "",
							"type": "uint256"
						}
					],
					"stateMutability": "view",
					"type": "function"
				},
				{
					"inputs": [],
					"name": "_block_chainid",
					"outputs": [
						{
							"internalType": "uint256",
							"name": "",
							"type": "uint256"
						}
					],
					"stateMutability": "view",
					"type": "function"
				},
				{
					"inputs": [],
					"name": "_block_coinbase",
					"outputs": [
						{
							"internalType": "address",
							"name": "",
							"type": "address"
						}
					],
					"stateMutability": "view",
					"type": "function"
				},
				{
					"inputs": [],
					"name": "_block_timestamp",
					"outputs": [
						{
							"internalType": "uint256",
							"name": "",
							"type": "uint256"
						}
					],
					"stateMutability": "view",
					"type": "function"
				},
				{
					"inputs": [],
					"name": "_msg_sender",
					"outputs": [
						{
							"internalType": "address",
							"name": "",
							"type": "address"
						}
					],
					"stateMutability": "view",
					"type": "function"
				},
				{
					"inputs": [],
					"name": "tokenName",
					"outputs": [
						{
							"internalType": "string",
							"name": "",
							"type": "string"
						}
					],
					"stateMutability": "view",
					"type": "function"
				},
				{
					"inputs": [],
					"name": "tokenSymbol",
					"outputs": [
						{
							"internalType": "string",
							"name": "",
							"type": "string"
						}
					],
					"stateMutability": "view",
					"type": "function"
				},
				{
					"inputs": [],
					"name": "tokenTotalSupply",
					"outputs": [
						{
							"internalType": "uint256",
							"name": "",
							"type": "uint256"
						}
					],
					"stateMutability": "view",
					"type": "function"
				}
			],
			"devdoc": {
				"kind": "dev",
				"methods": {},
				"version": 1
			},
			"evm": {
				"assembly": "    /* \"sol/03_quiz.sol\":58:544  contract test {... */\n  mstore(0x40, 0x80)\n    /* \"sol/03_quiz.sol\":108:121  block.basefee */\n  basefee\n    /* \"sol/03_quiz.sol\":79:121  uint public _block_Basefee = block.basefee */\n  0x00\n  sstore\n    /* \"sol/03_quiz.sol\":158:171  block.chainid */\n  chainid\n    /* \"sol/03_quiz.sol\":128:171  uint public  _block_chainid = block.chainid */\n  0x01\n  sstore\n    /* \"sol/03_quiz.sol\":212:226  block.coinbase */\n  coinbase\n    /* \"sol/03_quiz.sol\":178:226  address public  _block_coinbase = block.coinbase */\n  0x02\n  exp(0x0100, 0x00)\n  dup2\n  sload\n  dup2\n  0xffffffffffffffffffffffffffffffffffffffff\n  mul\n  not\n  and\n  swap1\n  dup4\n  0xffffffffffffffffffffffffffffffffffffffff\n  and\n  mul\n  or\n  swap1\n  sstore\n  pop\n    /* \"sol/03_quiz.sol\":265:280  block.timestamp */\n  timestamp\n    /* \"sol/03_quiz.sol\":233:280  uint public  _block_timestamp = block.timestamp */\n  0x03\n  sstore\n    /* \"sol/03_quiz.sol\":317:327  msg.sender */\n  caller\n    /* \"sol/03_quiz.sol\":287:327  address public  _msg_sender = msg.sender */\n  0x04\n  exp(0x0100, 0x00)\n  dup2\n  sload\n  dup2\n  0xffffffffffffffffffffffffffffffffffffffff\n  mul\n  not\n  and\n  swap1\n  dup4\n  0xffffffffffffffffffffffffffffffffffffffff\n  and\n  mul\n  or\n  swap1\n  sstore\n  pop\n    /* \"sol/03_quiz.sol\":424:457  string public tokenName = \"Ether\" */\n  mload(0x40)\n  dup1\n  0x40\n  add\n  0x40\n  mstore\n  dup1\n  0x05\n  dup2\n  mstore\n  0x20\n  add\n  0x4574686572000000000000000000000000000000000000000000000000000000\n  dup2\n  mstore\n  pop\n  0x05\n  swap1\n  dup2\n  tag_1\n  swap2\n  swap1\n  tag_2\n  jump\t// in\ntag_1:\n  pop\n    /* \"sol/03_quiz.sol\":464:497  string public tokenSymbol = \"ETH\" */\n  mload(0x40)\n  dup1\n  0x40\n  add\n  0x40\n  mstore\n  dup1\n  0x03\n  dup2\n  mstore\n  0x20\n  add\n  0x4554480000000000000000000000000000000000000000000000000000000000\n  dup2\n  mstore\n  pop\n  0x06\n  swap1\n  dup2\n  tag_3\n  swap2\n  swap1\n  tag_2\n  jump\t// in\ntag_3:\n  pop\n    /* \"sol/03_quiz.sol\":535:540  10000 */\n  0x2710\n    /* \"sol/03_quiz.sol\":504:540  uint public tokenTotalSupply = 10000 */\n  0x07\n  sstore\n    /* \"sol/03_quiz.sol\":58:544  contract test {... */\n  callvalue\n  dup1\n  iszero\n  tag_4\n  jumpi\n  0x00\n  dup1\n  revert\ntag_4:\n  pop\n  jump(tag_5)\n    /* \"#utility.yul\":7:106   */\ntag_6:\n    /* \"#utility.yul\":59:65   */\n  0x00\n    /* \"#utility.yul\":93:98   */\n  dup2\n    /* \"#utility.yul\":87:99   */\n  mload\n    /* \"#utility.yul\":77:99   */\n  swap1\n  pop\n    /* \"#utility.yul\":7:106   */\n  swap2\n  swap1\n  pop\n  jump\t// out\n    /* \"#utility.yul\":112:292   */\ntag_7:\n    /* \"#utility.yul\":160:237   */\n  0x4e487b7100000000000000000000000000000000000000000000000000000000\n    /* \"#utility.yul\":157:158   */\n  0x00\n    /* \"#utility.yul\":150:238   */\n  mstore\n    /* \"#utility.yul\":257:261   */\n  0x41\n    /* \"#utility.yul\":254:255   */\n  0x04\n    /* \"#utility.yul\":247:262   */\n  mstore\n    /* \"#utility.yul\":281:285   */\n  0x24\n    /* \"#utility.yul\":278:279   */\n  0x00\n    /* \"#utility.yul\":271:286   */\n  revert\n    /* \"#utility.yul\":298:478   */\ntag_8:\n    /* \"#utility.yul\":346:423   */\n  0x4e487b7100000000000000000000000000000000000000000000000000000000\n    /* \"#utility.yul\":343:344   */\n  0x00\n    /* \"#utility.yul\":336:424   */\n  mstore\n    /* \"#utility.yul\":443:447   */\n  0x22\n    /* \"#utility.yul\":440:441   */\n  0x04\n    /* \"#utility.yul\":433:448   */\n  mstore\n    /* \"#utility.yul\":467:471   */\n  0x24\n    /* \"#utility.yul\":464:465   */\n  0x00\n    /* \"#utility.yul\":457:472   */\n  revert\n    /* \"#utility.yul\":484:804   */\ntag_9:\n    /* \"#utility.yul\":528:534   */\n  0x00\n    /* \"#utility.yul\":565:566   */\n  0x02\n    /* \"#utility.yul\":559:563   */\n  dup3\n    /* \"#utility.yul\":555:567   */\n  div\n    /* \"#utility.yul\":545:567   */\n  swap1\n  pop\n    /* \"#utility.yul\":612:613   */\n  0x01\n    /* \"#utility.yul\":606:610   */\n  dup3\n    /* \"#utility.yul\":602:614   */\n  and\n    /* \"#utility.yul\":633:651   */\n  dup1\n    /* \"#utility.yul\":623:704   */\n  tag_31\n  jumpi\n    /* \"#utility.yul\":689:693   */\n  0x7f\n    /* \"#utility.yul\":681:687   */\n  dup3\n    /* \"#utility.yul\":677:694   */\n  and\n    /* \"#utility.yul\":667:694   */\n  swap2\n  pop\n    /* \"#utility.yul\":623:704   */\ntag_31:\n    /* \"#utility.yul\":751:753   */\n  0x20\n    /* \"#utility.yul\":743:749   */\n  dup3\n    /* \"#utility.yul\":740:754   */\n  lt\n    /* \"#utility.yul\":720:738   */\n  dup2\n    /* \"#utility.yul\":717:755   */\n  sub\n    /* \"#utility.yul\":714:798   */\n  tag_32\n  jumpi\n    /* \"#utility.yul\":770:788   */\n  tag_33\n  tag_8\n  jump\t// in\ntag_33:\n    /* \"#utility.yul\":714:798   */\ntag_32:\n    /* \"#utility.yul\":535:804   */\n  pop\n    /* \"#utility.yul\":484:804   */\n  swap2\n  swap1\n  pop\n  jump\t// out\n    /* \"#utility.yul\":810:951   */\ntag_10:\n    /* \"#utility.yul\":859:863   */\n  0x00\n    /* \"#utility.yul\":882:885   */\n  dup2\n    /* \"#utility.yul\":874:885   */\n  swap1\n  pop\n    /* \"#utility.yul\":905:908   */\n  dup2\n    /* \"#utility.yul\":902:903   */\n  0x00\n    /* \"#utility.yul\":895:909   */\n  mstore\n    /* \"#utility.yul\":939:943   */\n  0x20\n    /* \"#utility.yul\":936:937   */\n  0x00\n    /* \"#utility.yul\":926:944   */\n  keccak256\n    /* \"#utility.yul\":918:944   */\n  swap1\n  pop\n    /* \"#utility.yul\":810:951   */\n  swap2\n  swap1\n  pop\n  jump\t// out\n    /* \"#utility.yul\":957:1050   */\ntag_11:\n    /* \"#utility.yul\":994:1000   */\n  0x00\n    /* \"#utility.yul\":1041:1043   */\n  0x20\n    /* \"#utility.yul\":1036:1038   */\n  0x1f\n    /* \"#utility.yul\":1029:1034   */\n  dup4\n    /* \"#utility.yul\":1025:1039   */\n  add\n    /* \"#utility.yul\":1021:1044   */\n  div\n    /* \"#utility.yul\":1011:1044   */\n  swap1\n  pop\n    /* \"#utility.yul\":957:1050   */\n  swap2\n  swap1\n  pop\n  jump\t// out\n    /* \"#utility.yul\":1056:1163   */\ntag_12:\n    /* \"#utility.yul\":1100:1108   */\n  0x00\n    /* \"#utility.yul\":1150:1155   */\n  dup3\n    /* \"#utility.yul\":1144:1148   */\n  dup3\n    /* \"#utility.yul\":1140:1156   */\n  shl\n    /* \"#utility.yul\":1119:1156   */\n  swap1\n  pop\n    /* \"#utility.yul\":1056:1163   */\n  swap3\n  swap2\n  pop\n  pop\n  jump\t// out\n    /* \"#utility.yul\":1169:1562   */\ntag_13:\n    /* \"#utility.yul\":1238:1244   */\n  0x00\n    /* \"#utility.yul\":1288:1289   */\n  0x08\n    /* \"#utility.yul\":1276:1286   */\n  dup4\n    /* \"#utility.yul\":1272:1290   */\n  mul\n    /* \"#utility.yul\":1311:1408   */\n  tag_38\n    /* \"#utility.yul\":1341:1407   */\n  0xffffffffffffffffffffffffffffffffffffffffffffffffffffffffffffffff\n    /* \"#utility.yul\":1330:1339   */\n  dup3\n    /* \"#utility.yul\":1311:1408   */\n  tag_12\n  jump\t// in\ntag_38:\n    /* \"#utility.yul\":1429:1468   */\n  tag_39\n    /* \"#utility.yul\":1459:1467   */\n  dup7\n    /* \"#utility.yul\":1448:1457   */\n  dup4\n    /* \"#utility.yul\":1429:1468   */\n  tag_12\n  jump\t// in\ntag_39:\n    /* \"#utility.yul\":1417:1468   */\n  swap6\n  pop\n    /* \"#utility.yul\":1501:1505   */\n  dup1\n    /* \"#utility.yul\":1497:1506   */\n  not\n    /* \"#utility.yul\":1490:1495   */\n  dup5\n    /* \"#utility.yul\":1486:1507   */\n  and\n    /* \"#utility.yul\":1477:1507   */\n  swap4\n  pop\n    /* \"#utility.yul\":1550:1554   */\n  dup1\n    /* \"#utility.yul\":1540:1548   */\n  dup7\n    /* \"#utility.yul\":1536:1555   */\n  and\n    /* \"#utility.yul\":1529:1534   */\n  dup5\n    /* \"#utility.yul\":1526:1556   */\n  or\n    /* \"#utility.yul\":1516:1556   */\n  swap3\n  pop\n    /* \"#utility.yul\":1245:1562   */\n  pop\n  pop\n    /* \"#utility.yul\":1169:1562   */\n  swap4\n  swap3\n  pop\n  pop\n  pop\n  jump\t// out\n    /* \"#utility.yul\":1568:1645   */\ntag_14:\n    /* \"#utility.yul\":1605:1612   */\n  0x00\n    /* \"#utility.yul\":1634:1639   */\n  dup2\n    /* \"#utility.yul\":1623:1639   */\n  swap1\n  pop\n    /* \"#utility.yul\":1568:1645   */\n  swap2\n  swap1\n  pop\n  jump\t// out\n    /* \"#utility.yul\":1651:1711   */\ntag_15:\n    /* \"#utility.yul\":1679:1682   */\n  0x00\n    /* \"#utility.yul\":1700:1705   */\n  dup2\n    /* \"#utility.yul\":1693:1705   */\n  swap1\n  pop\n    /* \"#utility.yul\":1651:1711   */\n  swap2\n  swap1\n  pop\n  jump\t// out\n    /* \"#utility.yul\":1717:1859   */\ntag_16:\n    /* \"#utility.yul\":1767:1776   */\n  0x00\n    /* \"#utility.yul\":1800:1853   */\n  tag_43\n    /* \"#utility.yul\":1818:1852   */\n  tag_44\n    /* \"#utility.yul\":1827:1851   */\n  tag_45\n    /* \"#utility.yul\":1845:1850   */\n  dup5\n    /* \"#utility.yul\":1827:1851   */\n  tag_14\n  jump\t// in\ntag_45:\n    /* \"#utility.yul\":1818:1852   */\n  tag_15\n  jump\t// in\ntag_44:\n    /* \"#utility.yul\":1800:1853   */\n  tag_14\n  jump\t// in\ntag_43:\n    /* \"#utility.yul\":1787:1853   */\n  swap1\n  pop\n    /* \"#utility.yul\":1717:1859   */\n  swap2\n  swap1\n  pop\n  jump\t// out\n    /* \"#utility.yul\":1865:1940   */\ntag_17:\n    /* \"#utility.yul\":1908:1911   */\n  0x00\n    /* \"#utility.yul\":1929:1934   */\n  dup2\n    /* \"#utility.yul\":1922:1934   */\n  swap1\n  pop\n    /* \"#utility.yul\":1865:1940   */\n  swap2\n  swap1\n  pop\n  jump\t// out\n    /* \"#utility.yul\":1946:2215   */\ntag_18:\n    /* \"#utility.yul\":2056:2095   */\n  tag_48\n    /* \"#utility.yul\":2087:2094   */\n  dup4\n    /* \"#utility.yul\":2056:2095   */\n  tag_16\n  jump\t// in\ntag_48:\n    /* \"#utility.yul\":2117:2208   */\n  tag_49\n    /* \"#utility.yul\":2166:2207   */\n  tag_50\n    /* \"#utility.yul\":2190:2206   */\n  dup3\n    /* \"#utility.yul\":2166:2207   */\n  tag_17\n  jump\t// in\ntag_50:\n    /* \"#utility.yul\":2158:2164   */\n  dup5\n    /* \"#utility.yul\":2151:2155   */\n  dup5\n    /* \"#utility.yul\":2145:2156   */\n  sload\n    /* \"#utility.yul\":2117:2208   */\n  tag_13\n  jump\t// in\ntag_49:\n    /* \"#utility.yul\":2111:2115   */\n  dup3\n    /* \"#utility.yul\":2104:2209   */\n  sstore\n    /* \"#utility.yul\":2022:2215   */\n  pop\n    /* \"#utility.yul\":1946:2215   */\n  pop\n  pop\n  pop\n  jump\t// out\n    /* \"#utility.yul\":2221:2294   */\ntag_19:\n    /* \"#utility.yul\":2266:2269   */\n  0x00\n    /* \"#utility.yul\":2221:2294   */\n  swap1\n  jump\t// out\n    /* \"#utility.yul\":2300:2489   */\ntag_20:\n    /* \"#utility.yul\":2377:2409   */\n  tag_53\n  tag_19\n  jump\t// in\ntag_53:\n    /* \"#utility.yul\":2418:2483   */\n  tag_54\n    /* \"#utility.yul\":2476:2482   */\n  dup2\n    /* \"#utility.yul\":2468:2474   */\n  dup5\n    /* \"#utility.yul\":2462:2466   */\n  dup5\n    /* \"#utility.yul\":2418:2483   */\n  tag_18\n  jump\t// in\ntag_54:\n    /* \"#utility.yul\":2353:2489   */\n  pop\n    /* \"#utility.yul\":2300:2489   */\n  pop\n  pop\n  jump\t// out\n    /* \"#utility.yul\":2495:2681   */\ntag_21:\n    /* \"#utility.yul\":2555:2675   */\ntag_56:\n    /* \"#utility.yul\":2572:2575   */\n  dup2\n    /* \"#utility.yul\":2565:2570   */\n  dup2\n    /* \"#utility.yul\":2562:2576   */\n  lt\n    /* \"#utility.yul\":2555:2675   */\n  iszero\n  tag_58\n  jumpi\n    /* \"#utility.yul\":2626:2665   */\n  tag_59\n    /* \"#utility.yul\":2663:2664   */\n  0x00\n    /* \"#utility.yul\":2656:2661   */\n  dup3\n    /* \"#utility.yul\":2626:2665   */\n  tag_20\n  jump\t// in\ntag_59:\n    /* \"#utility.yul\":2599:2600   */\n  0x01\n    /* \"#utility.yul\":2592:2597   */\n  dup2\n    /* \"#utility.yul\":2588:2601   */\n  add\n    /* \"#utility.yul\":2579:2601   */\n  swap1\n  pop\n    /* \"#utility.yul\":2555:2675   */\n  jump(tag_56)\ntag_58:\n    /* \"#utility.yul\":2495:2681   */\n  pop\n  pop\n  jump\t// out\n    /* \"#utility.yul\":2687:3230   */\ntag_22:\n    /* \"#utility.yul\":2788:2790   */\n  0x1f\n    /* \"#utility.yul\":2783:2786   */\n  dup3\n    /* \"#utility.yul\":2780:2791   */\n  gt\n    /* \"#utility.yul\":2777:3223   */\n  iszero\n  tag_61\n  jumpi\n    /* \"#utility.yul\":2822:2860   */\n  tag_62\n    /* \"#utility.yul\":2854:2859   */\n  dup2\n    /* \"#utility.yul\":2822:2860   */\n  tag_10\n  jump\t// in\ntag_62:\n    /* \"#utility.yul\":2906:2935   */\n  tag_63\n    /* \"#utility.yul\":2924:2934   */\n  dup5\n    /* \"#utility.yul\":2906:2935   */\n  tag_11\n  jump\t// in\ntag_63:\n    /* \"#utility.yul\":2896:2904   */\n  dup2\n    /* \"#utility.yul\":2892:2936   */\n  add\n    /* \"#utility.yul\":3089:3091   */\n  0x20\n    /* \"#utility.yul\":3077:3087   */\n  dup6\n    /* \"#utility.yul\":3074:3092   */\n  lt\n    /* \"#utility.yul\":3071:3120   */\n  iszero\n  tag_64\n  jumpi\n    /* \"#utility.yul\":3110:3118   */\n  dup2\n    /* \"#utility.yul\":3095:3118   */\n  swap1\n  pop\n    /* \"#utility.yul\":3071:3120   */\ntag_64:\n    /* \"#utility.yul\":3133:3213   */\n  tag_65\n    /* \"#utility.yul\":3189:3211   */\n  tag_66\n    /* \"#utility.yul\":3207:3210   */\n  dup6\n    /* \"#utility.yul\":3189:3211   */\n  tag_11\n  jump\t// in\ntag_66:\n    /* \"#utility.yul\":3179:3187   */\n  dup4\n    /* \"#utility.yul\":3175:3212   */\n  add\n    /* \"#utility.yul\":3162:3173   */\n  dup3\n    /* \"#utility.yul\":3133:3213   */\n  tag_21\n  jump\t// in\ntag_65:\n    /* \"#utility.yul\":2792:3223   */\n  pop\n  pop\n    /* \"#utility.yul\":2777:3223   */\ntag_61:\n    /* \"#utility.yul\":2687:3230   */\n  pop\n  pop\n  pop\n  jump\t// out\n    /* \"#utility.yul\":3236:3353   */\ntag_23:\n    /* \"#utility.yul\":3290:3298   */\n  0x00\n    /* \"#utility.yul\":3340:3345   */\n  dup3\n    /* \"#utility.yul\":3334:3338   */\n  dup3\n    /* \"#utility.yul\":3330:3346   */\n  shr\n    /* \"#utility.yul\":3309:3346   */\n  swap1\n  pop\n    /* \"#utility.yul\":3236:3353   */\n  swap3\n  swap2\n  pop\n  pop\n  jump\t// out\n    /* \"#utility.yul\":3359:3528   */\ntag_24:\n    /* \"#utility.yul\":3403:3409   */\n  0x00\n    /* \"#utility.yul\":3436:3487   */\n  tag_69\n    /* \"#utility.yul\":3484:3485   */\n  0x00\n    /* \"#utility.yul\":3480:3486   */\n  not\n    /* \"#utility.yul\":3472:3477   */\n  dup5\n    /* \"#utility.yul\":3469:3470   */\n  0x08\n    /* \"#utility.yul\":3465:3478   */\n  mul\n    /* \"#utility.yul\":3436:3487   */\n  tag_23\n  jump\t// in\ntag_69:\n    /* \"#utility.yul\":3432:3488   */\n  not\n    /* \"#utility.yul\":3517:3521   */\n  dup1\n    /* \"#utility.yul\":3511:3515   */\n  dup4\n    /* \"#utility.yul\":3507:3522   */\n  and\n    /* \"#utility.yul\":3497:3522   */\n  swap2\n  pop\n    /* \"#utility.yul\":3410:3528   */\n  pop\n    /* \"#utility.yul\":3359:3528   */\n  swap3\n  swap2\n  pop\n  pop\n  jump\t// out\n    /* \"#utility.yul\":3533:3828   */\ntag_25:\n    /* \"#utility.yul\":3609:3613   */\n  0x00\n    /* \"#utility.yul\":3755:3784   */\n  tag_71\n    /* \"#utility.yul\":3780:3783   */\n  dup4\n    /* \"#utility.yul\":3774:3778   */\n  dup4\n    /* \"#utility.yul\":3755:3784   */\n  tag_24\n  jump\t// in\ntag_71:\n    /* \"#utility.yul\":3747:3784   */\n  swap2\n  pop\n    /* \"#utility.yul\":3817:3820   */\n  dup3\n    /* \"#utility.yul\":3814:3815   */\n  0x02\n    /* \"#utility.yul\":3810:3821   */\n  mul\n    /* \"#utility.yul\":3804:3808   */\n  dup3\n    /* \"#utility.yul\":3801:3822   */\n  or\n    /* \"#utility.yul\":3793:3822   */\n  swap1\n  pop\n    /* \"#utility.yul\":3533:3828   */\n  swap3\n  swap2\n  pop\n  pop\n  jump\t// out\n    /* \"#utility.yul\":3833:5228   */\ntag_2:\n    /* \"#utility.yul\":3950:3987   */\n  tag_73\n    /* \"#utility.yul\":3983:3986   */\n  dup3\n    /* \"#utility.yul\":3950:3987   */\n  tag_6\n  jump\t// in\ntag_73:\n    /* \"#utility.yul\":4052:4070   */\n  0xffffffffffffffff\n    /* \"#utility.yul\":4044:4050   */\n  dup2\n    /* \"#utility.yul\":4041:4071   */\n  gt\n    /* \"#utility.yul\":4038:4094   */\n  iszero\n  tag_74\n  jumpi\n    /* \"#utility.yul\":4074:4092   */\n  tag_75\n  tag_7\n  jump\t// in\ntag_75:\n    /* \"#utility.yul\":4038:4094   */\ntag_74:\n    /* \"#utility.yul\":4118:4156   */\n  tag_76\n    /* \"#utility.yul\":4150:4154   */\n  dup3\n    /* \"#utility.yul\":4144:4155   */\n  sload\n    /* \"#utility.yul\":4118:4156   */\n  tag_9\n  jump\t// in\ntag_76:\n    /* \"#utility.yul\":4203:4270   */\n  tag_77\n    /* \"#utility.yul\":4263:4269   */\n  dup3\n    /* \"#utility.yul\":4255:4261   */\n  dup3\n    /* \"#utility.yul\":4249:4253   */\n  dup6\n    /* \"#utility.yul\":4203:4270   */\n  tag_22\n  jump\t// in\ntag_77:\n    /* \"#utility.yul\":4297:4298   */\n  0x00\n    /* \"#utility.yul\":4321:4325   */\n  0x20\n    /* \"#utility.yul\":4308:4325   */\n  swap1\n  pop\n    /* \"#utility.yul\":4353:4355   */\n  0x1f\n    /* \"#utility.yul\":4345:4351   */\n  dup4\n    /* \"#utility.yul\":4342:4356   */\n  gt\n    /* \"#utility.yul\":4370:4371   */\n  0x01\n    /* \"#utility.yul\":4365:4983   */\n  dup2\n  eq\n  tag_79\n  jumpi\n    /* \"#utility.yul\":5027:5028   */\n  0x00\n    /* \"#utility.yul\":5044:5050   */\n  dup5\n    /* \"#utility.yul\":5041:5118   */\n  iszero\n  tag_80\n  jumpi\n    /* \"#utility.yul\":5093:5102   */\n  dup3\n    /* \"#utility.yul\":5088:5091   */\n  dup8\n    /* \"#utility.yul\":5084:5103   */\n  add\n    /* \"#utility.yul\":5078:5104   */\n  mload\n    /* \"#utility.yul\":5069:5104   */\n  swap1\n  pop\n    /* \"#utility.yul\":5041:5118   */\ntag_80:\n    /* \"#utility.yul\":5144:5211   */\n  tag_81\n    /* \"#utility.yul\":5204:5210   */\n  dup6\n    /* \"#utility.yul\":5197:5202   */\n  dup3\n    /* \"#utility.yul\":5144:5211   */\n  tag_25\n  jump\t// in\ntag_81:\n    /* \"#utility.yul\":5138:5142   */\n  dup7\n    /* \"#utility.yul\":5131:5212   */\n  sstore\n    /* \"#utility.yul\":5000:5222   */\n  pop\n    /* \"#utility.yul\":4335:5222   */\n  jump(tag_78)\n    /* \"#utility.yul\":4365:4983   */\ntag_79:\n    /* \"#utility.yul\":4417:4421   */\n  0x1f\n    /* \"#utility.yul\":4413:4422   */\n  not\n    /* \"#utility.yul\":4405:4411   */\n  dup5\n    /* \"#utility.yul\":4401:4423   */\n  and\n    /* \"#utility.yul\":4451:4488   */\n  tag_82\n    /* \"#utility.yul\":4483:4487   */\n  dup7\n    /* \"#utility.yul\":4451:4488   */\n  tag_10\n  jump\t// in\ntag_82:\n    /* \"#utility.yul\":4510:4511   */\n  0x00\n    /* \"#utility.yul\":4524:4732   */\ntag_83:\n    /* \"#utility.yul\":4538:4545   */\n  dup3\n    /* \"#utility.yul\":4535:4536   */\n  dup2\n    /* \"#utility.yul\":4532:4546   */\n  lt\n    /* \"#utility.yul\":4524:4732   */\n  iszero\n  tag_85\n  jumpi\n    /* \"#utility.yul\":4617:4626   */\n  dup5\n    /* \"#utility.yul\":4612:4615   */\n  dup10\n    /* \"#utility.yul\":4608:4627   */\n  add\n    /* \"#utility.yul\":4602:4628   */\n  mload\n    /* \"#utility.yul\":4594:4600   */\n  dup3\n    /* \"#utility.yul\":4587:4629   */\n  sstore\n    /* \"#utility.yul\":4668:4669   */\n  0x01\n    /* \"#utility.yul\":4660:4666   */\n  dup3\n    /* \"#utility.yul\":4656:4670   */\n  add\n    /* \"#utility.yul\":4646:4670   */\n  swap2\n  pop\n    /* \"#utility.yul\":4715:4717   */\n  0x20\n    /* \"#utility.yul\":4704:4713   */\n  dup6\n    /* \"#utility.yul\":4700:4718   */\n  add\n    /* \"#utility.yul\":4687:4718   */\n  swap5\n  pop\n    /* \"#utility.yul\":4561:4565   */\n  0x20\n    /* \"#utility.yul\":4558:4559   */\n  dup2\n    /* \"#utility.yul\":4554:4566   */\n  add\n    /* \"#utility.yul\":4549:4566   */\n  swap1\n  pop\n    /* \"#utility.yul\":4524:4732   */\n  jump(tag_83)\ntag_85:\n    /* \"#utility.yul\":4760:4766   */\n  dup7\n    /* \"#utility.yul\":4751:4758   */\n  dup4\n    /* \"#utility.yul\":4748:4767   */\n  lt\n    /* \"#utility.yul\":4745:4924   */\n  iszero\n  tag_86\n  jumpi\n    /* \"#utility.yul\":4818:4827   */\n  dup5\n    /* \"#utility.yul\":4813:4816   */\n  dup10\n    /* \"#utility.yul\":4809:4828   */\n  add\n    /* \"#utility.yul\":4803:4829   */\n  mload\n    /* \"#utility.yul\":4861:4909   */\n  tag_87\n    /* \"#utility.yul\":4903:4907   */\n  0x1f\n    /* \"#utility.yul\":4895:4901   */\n  dup10\n    /* \"#utility.yul\":4891:4908   */\n  and\n    /* \"#utility.yul\":4880:4889   */\n  dup3\n    /* \"#utility.yul\":4861:4909   */\n  tag_24\n  jump\t// in\ntag_87:\n    /* \"#utility.yul\":4853:4859   */\n  dup4\n    /* \"#utility.yul\":4846:4910   */\n  sstore\n    /* \"#utility.yul\":4768:4924   */\n  pop\n    /* \"#utility.yul\":4745:4924   */\ntag_86:\n    /* \"#utility.yul\":4970:4971   */\n  0x01\n    /* \"#utility.yul\":4966:4967   */\n  0x02\n    /* \"#utility.yul\":4958:4964   */\n  dup9\n    /* \"#utility.yul\":4954:4968   */\n  mul\n    /* \"#utility.yul\":4950:4972   */\n  add\n    /* \"#utility.yul\":4944:4948   */\n  dup9\n    /* \"#utility.yul\":4937:4973   */\n  sstore\n    /* \"#utility.yul\":4372:4983   */\n  pop\n  pop\n  pop\n    /* \"#utility.yul\":4335:5222   */\ntag_78:\n  pop\n    /* \"#utility.yul\":3925:5228   */\n  pop\n  pop\n  pop\n    /* \"#utility.yul\":3833:5228   */\n  pop\n  pop\n  jump\t// out\n    /* \"sol/03_quiz.sol\":58:544  contract test {... */\ntag_5:\n  dataSize(sub_0)\n  dup1\n  dataOffset(sub_0)\n  0x00\n  codecopy\n  0x00\n  return\nstop\n\nsub_0: assembly {\n        /* \"sol/03_quiz.sol\":58:544  contract test {... */\n      mstore(0x40, 0x80)\n      callvalue\n      dup1\n      iszero\n      tag_1\n      jumpi\n      0x00\n      dup1\n      revert\n    tag_1:\n      pop\n      jumpi(tag_2, lt(calldatasize, 0x04))\n      shr(0xe0, calldataload(0x00))\n      dup1\n      0xba95fabb\n      gt\n      tag_11\n      jumpi\n      dup1\n      0xba95fabb\n      eq\n      tag_7\n      jumpi\n      dup1\n      0xe810c38f\n      eq\n      tag_8\n      jumpi\n      dup1\n      0xe94dcb96\n      eq\n      tag_9\n      jumpi\n      dup1\n      0xf7abab9e\n      eq\n      tag_10\n      jumpi\n      jump(tag_2)\n    tag_11:\n      dup1\n      0x4daedf2c\n      eq\n      tag_3\n      jumpi\n      dup1\n      0x6c02a931\n      eq\n      tag_4\n      jumpi\n      dup1\n      0x6cffd71f\n      eq\n      tag_5\n      jumpi\n      dup1\n      0x7b61c320\n      eq\n      tag_6\n      jumpi\n    tag_2:\n      0x00\n      dup1\n      revert\n        /* \"sol/03_quiz.sol\":287:327  address public  _msg_sender = msg.sender */\n    tag_3:\n      tag_12\n      tag_13\n      jump\t// in\n    tag_12:\n      mload(0x40)\n      tag_14\n      swap2\n      swap1\n      tag_15\n      jump\t// in\n    tag_14:\n      mload(0x40)\n      dup1\n      swap2\n      sub\n      swap1\n      return\n        /* \"sol/03_quiz.sol\":424:457  string public tokenName = \"Ether\" */\n    tag_4:\n      tag_16\n      tag_17\n      jump\t// in\n    tag_16:\n      mload(0x40)\n      tag_18\n      swap2\n      swap1\n      tag_19\n      jump\t// in\n    tag_18:\n      mload(0x40)\n      dup1\n      swap2\n      sub\n      swap1\n      return\n        /* \"sol/03_quiz.sol\":128:171  uint public  _block_chainid = block.chainid */\n    tag_5:\n      tag_20\n      tag_21\n      jump\t// in\n    tag_20:\n      mload(0x40)\n      tag_22\n      swap2\n      swap1\n      tag_23\n      jump\t// in\n    tag_22:\n      mload(0x40)\n      dup1\n      swap2\n      sub\n      swap1\n      return\n        /* \"sol/03_quiz.sol\":464:497  string public tokenSymbol = \"ETH\" */\n    tag_6:\n      tag_24\n      tag_25\n      jump\t// in\n    tag_24:\n      mload(0x40)\n      tag_26\n      swap2\n      swap1\n      tag_19\n      jump\t// in\n    tag_26:\n      mload(0x40)\n      dup1\n      swap2\n      sub\n      swap1\n      return\n        /* \"sol/03_quiz.sol\":178:226  address public  _block_coinbase = block.coinbase */\n    tag_7:\n      tag_27\n      tag_28\n      jump\t// in\n    tag_27:\n      mload(0x40)\n      tag_29\n      swap2\n      swap1\n      tag_15\n      jump\t// in\n    tag_29:\n      mload(0x40)\n      dup1\n      swap2\n      sub\n      swap1\n      return\n        /* \"sol/03_quiz.sol\":233:280  uint public  _block_timestamp = block.timestamp */\n    tag_8:\n      tag_30\n      tag_31\n      jump\t// in\n    tag_30:\n      mload(0x40)\n      tag_32\n      swap2\n      swap1\n      tag_23\n      jump\t// in\n    tag_32:\n      mload(0x40)\n      dup1\n      swap2\n      sub\n      swap1\n      return\n        /* \"sol/03_quiz.sol\":79:121  uint public _block_Basefee = block.basefee */\n    tag_9:\n      tag_33\n      tag_34\n      jump\t// in\n    tag_33:\n      mload(0x40)\n      tag_35\n      swap2\n      swap1\n      tag_23\n      jump\t// in\n    tag_35:\n      mload(0x40)\n      dup1\n      swap2\n      sub\n      swap1\n      return\n        /* \"sol/03_quiz.sol\":504:540  uint public tokenTotalSupply = 10000 */\n    tag_10:\n      tag_36\n      tag_37\n      jump\t// in\n    tag_36:\n      mload(0x40)\n      tag_38\n      swap2\n      swap1\n      tag_23\n      jump\t// in\n    tag_38:\n      mload(0x40)\n      dup1\n      swap2\n      sub\n      swap1\n      return\n        /* \"sol/03_quiz.sol\":287:327  address public  _msg_sender = msg.sender */\n    tag_13:\n      0x04\n      0x00\n      swap1\n      sload\n      swap1\n      0x0100\n      exp\n      swap1\n      div\n      0xffffffffffffffffffffffffffffffffffffffff\n      and\n      dup2\n      jump\t// out\n        /* \"sol/03_quiz.sol\":424:457  string public tokenName = \"Ether\" */\n    tag_17:\n      0x05\n      dup1\n      sload\n      tag_39\n      swap1\n      tag_40\n      jump\t// in\n    tag_39:\n      dup1\n      0x1f\n      add\n      0x20\n      dup1\n      swap2\n      div\n      mul\n      0x20\n      add\n      mload(0x40)\n      swap1\n      dup2\n      add\n      0x40\n      mstore\n      dup1\n      swap3\n      swap2\n      swap1\n      dup2\n      dup2\n      mstore\n      0x20\n      add\n      dup3\n      dup1\n      sload\n      tag_41\n      swap1\n      tag_40\n      jump\t// in\n    tag_41:\n      dup1\n      iszero\n      tag_42\n      jumpi\n      dup1\n      0x1f\n      lt\n      tag_43\n      jumpi\n      0x0100\n      dup1\n      dup4\n      sload\n      div\n      mul\n      dup4\n      mstore\n      swap2\n      0x20\n      add\n      swap2\n      jump(tag_42)\n    tag_43:\n      dup3\n      add\n      swap2\n      swap1\n      0x00\n      mstore\n      keccak256(0x00, 0x20)\n      swap1\n    tag_44:\n      dup2\n      sload\n      dup2\n      mstore\n      swap1\n      0x01\n      add\n      swap1\n      0x20\n      add\n      dup1\n      dup4\n      gt\n      tag_44\n      jumpi\n      dup3\n      swap1\n      sub\n      0x1f\n      and\n      dup3\n      add\n      swap2\n    tag_42:\n      pop\n      pop\n      pop\n      pop\n      pop\n      dup2\n      jump\t// out\n        /* \"sol/03_quiz.sol\":128:171  uint public  _block_chainid = block.chainid */\n    tag_21:\n      sload(0x01)\n      dup2\n      jump\t// out\n        /* \"sol/03_quiz.sol\":464:497  string public tokenSymbol = \"ETH\" */\n    tag_25:\n      0x06\n      dup1\n      sload\n      tag_45\n      swap1\n      tag_40\n      jump\t// in\n    tag_45:\n      dup1\n      0x1f\n      add\n      0x20\n      dup1\n      swap2\n      div\n      mul\n      0x20\n      add\n      mload(0x40)\n      swap1\n      dup2\n      add\n      0x40\n      mstore\n      dup1\n      swap3\n      swap2\n      swap1\n      dup2\n      dup2\n      mstore\n      0x20\n      add\n      dup3\n      dup1\n      sload\n      tag_46\n      swap1\n      tag_40\n      jump\t// in\n    tag_46:\n      dup1\n      iszero\n      tag_47\n      jumpi\n      dup1\n      0x1f\n      lt\n      tag_48\n      jumpi\n      0x0100\n      dup1\n      dup4\n      sload\n      div\n      mul\n      dup4\n      mstore\n      swap2\n      0x20\n      add\n      swap2\n      jump(tag_47)\n    tag_48:\n      dup3\n      add\n      swap2\n      swap1\n      0x00\n      mstore\n      keccak256(0x00, 0x20)\n      swap1\n    tag_49:\n      dup2\n      sload\n      dup2\n      mstore\n      swap1\n      0x01\n      add\n      swap1\n      0x20\n      add\n      dup1\n      dup4\n      gt\n      tag_49\n      jumpi\n      dup3\n      swap1\n      sub\n      0x1f\n      and\n      dup3\n      add\n      swap2\n    tag_47:\n      pop\n      pop\n      pop\n      pop\n      pop\n      dup2\n      jump\t// out\n        /* \"sol/03_quiz.sol\":178:226  address public  _block_coinbase = block.coinbase */\n    tag_28:\n      0x02\n      0x00\n      swap1\n      sload\n      swap1\n      0x0100\n      exp\n      swap1\n      div\n      0xffffffffffffffffffffffffffffffffffffffff\n      and\n      dup2\n      jump\t// out\n        /* \"sol/03_quiz.sol\":233:280  uint public  _block_timestamp = block.timestamp */\n    tag_31:\n      sload(0x03)\n      dup2\n      jump\t// out\n        /* \"sol/03_quiz.sol\":79:121  uint public _block_Basefee = block.basefee */\n    tag_34:\n      sload(0x00)\n      dup2\n      jump\t// out\n        /* \"sol/03_quiz.sol\":504:540  uint public tokenTotalSupply = 10000 */\n    tag_37:\n      sload(0x07)\n      dup2\n      jump\t// out\n        /* \"#utility.yul\":7:133   */\n    tag_50:\n        /* \"#utility.yul\":44:51   */\n      0x00\n        /* \"#utility.yul\":84:126   */\n      0xffffffffffffffffffffffffffffffffffffffff\n        /* \"#utility.yul\":77:82   */\n      dup3\n        /* \"#utility.yul\":73:127   */\n      and\n        /* \"#utility.yul\":62:127   */\n      swap1\n      pop\n        /* \"#utility.yul\":7:133   */\n      swap2\n      swap1\n      pop\n      jump\t// out\n        /* \"#utility.yul\":139:235   */\n    tag_51:\n        /* \"#utility.yul\":176:183   */\n      0x00\n        /* \"#utility.yul\":205:229   */\n      tag_64\n        /* \"#utility.yul\":223:228   */\n      dup3\n        /* \"#utility.yul\":205:229   */\n      tag_50\n      jump\t// in\n    tag_64:\n        /* \"#utility.yul\":194:229   */\n      swap1\n      pop\n        /* \"#utility.yul\":139:235   */\n      swap2\n      swap1\n      pop\n      jump\t// out\n        /* \"#utility.yul\":241:359   */\n    tag_52:\n        /* \"#utility.yul\":328:352   */\n      tag_66\n        /* \"#utility.yul\":346:351   */\n      dup2\n        /* \"#utility.yul\":328:352   */\n      tag_51\n      jump\t// in\n    tag_66:\n        /* \"#utility.yul\":323:326   */\n      dup3\n        /* \"#utility.yul\":316:353   */\n      mstore\n        /* \"#utility.yul\":241:359   */\n      pop\n      pop\n      jump\t// out\n        /* \"#utility.yul\":365:587   */\n    tag_15:\n        /* \"#utility.yul\":458:462   */\n      0x00\n        /* \"#utility.yul\":496:498   */\n      0x20\n        /* \"#utility.yul\":485:494   */\n      dup3\n        /* \"#utility.yul\":481:499   */\n      add\n        /* \"#utility.yul\":473:499   */\n      swap1\n      pop\n        /* \"#utility.yul\":509:580   */\n      tag_68\n        /* \"#utility.yul\":577:578   */\n      0x00\n        /* \"#utility.yul\":566:575   */\n      dup4\n        /* \"#utility.yul\":562:579   */\n      add\n        /* \"#utility.yul\":553:559   */\n      dup5\n        /* \"#utility.yul\":509:580   */\n      tag_52\n      jump\t// in\n    tag_68:\n        /* \"#utility.yul\":365:587   */\n      swap3\n      swap2\n      pop\n      pop\n      jump\t// out\n        /* \"#utility.yul\":593:692   */\n    tag_53:\n        /* \"#utility.yul\":645:651   */\n      0x00\n        /* \"#utility.yul\":679:684   */\n      dup2\n        /* \"#utility.yul\":673:685   */\n      mload\n        /* \"#utility.yul\":663:685   */\n      swap1\n      pop\n        /* \"#utility.yul\":593:692   */\n      swap2\n      swap1\n      pop\n      jump\t// out\n        /* \"#utility.yul\":698:867   */\n    tag_54:\n        /* \"#utility.yul\":782:793   */\n      0x00\n        /* \"#utility.yul\":816:822   */\n      dup3\n        /* \"#utility.yul\":811:814   */\n      dup3\n        /* \"#utility.yul\":804:823   */\n      mstore\n        /* \"#utility.yul\":856:860   */\n      0x20\n        /* \"#utility.yul\":851:854   */\n      dup3\n        /* \"#utility.yul\":847:861   */\n      add\n        /* \"#utility.yul\":832:861   */\n      swap1\n      pop\n        /* \"#utility.yul\":698:867   */\n      swap3\n      swap2\n      pop\n      pop\n      jump\t// out\n        /* \"#utility.yul\":873:1119   */\n    tag_55:\n        /* \"#utility.yul\":954:955   */\n      0x00\n        /* \"#utility.yul\":964:1077   */\n    tag_72:\n        /* \"#utility.yul\":978:984   */\n      dup4\n        /* \"#utility.yul\":975:976   */\n      dup2\n        /* \"#utility.yul\":972:985   */\n      lt\n        /* \"#utility.yul\":964:1077   */\n      iszero\n      tag_74\n      jumpi\n        /* \"#utility.yul\":1063:1064   */\n      dup1\n        /* \"#utility.yul\":1058:1061   */\n      dup3\n        /* \"#utility.yul\":1054:1065   */\n      add\n        /* \"#utility.yul\":1048:1066   */\n      mload\n        /* \"#utility.yul\":1044:1045   */\n      dup2\n        /* \"#utility.yul\":1039:1042   */\n      dup5\n        /* \"#utility.yul\":1035:1046   */\n      add\n        /* \"#utility.yul\":1028:1067   */\n      mstore\n        /* \"#utility.yul\":1000:1002   */\n      0x20\n        /* \"#utility.yul\":997:998   */\n      dup2\n        /* \"#utility.yul\":993:1003   */\n      add\n        /* \"#utility.yul\":988:1003   */\n      swap1\n      pop\n        /* \"#utility.yul\":964:1077   */\n      jump(tag_72)\n    tag_74:\n        /* \"#utility.yul\":1111:1112   */\n      0x00\n        /* \"#utility.yul\":1102:1108   */\n      dup5\n        /* \"#utility.yul\":1097:1100   */\n      dup5\n        /* \"#utility.yul\":1093:1109   */\n      add\n        /* \"#utility.yul\":1086:1113   */\n      mstore\n        /* \"#utility.yul\":935:1119   */\n      pop\n        /* \"#utility.yul\":873:1119   */\n      pop\n      pop\n      pop\n      jump\t// out\n        /* \"#utility.yul\":1125:1227   */\n    tag_56:\n        /* \"#utility.yul\":1166:1172   */\n      0x00\n        /* \"#utility.yul\":1217:1219   */\n      0x1f\n        /* \"#utility.yul\":1213:1220   */\n      not\n        /* \"#utility.yul\":1208:1210   */\n      0x1f\n        /* \"#utility.yul\":1201:1206   */\n      dup4\n        /* \"#utility.yul\":1197:1211   */\n      add\n        /* \"#utility.yul\":1193:1221   */\n      and\n        /* \"#utility.yul\":1183:1221   */\n      swap1\n      pop\n        /* \"#utility.yul\":1125:1227   */\n      swap2\n      swap1\n      pop\n      jump\t// out\n        /* \"#utility.yul\":1233:1610   */\n    tag_57:\n        /* \"#utility.yul\":1321:1324   */\n      0x00\n        /* \"#utility.yul\":1349:1388   */\n      tag_77\n        /* \"#utility.yul\":1382:1387   */\n      dup3\n        /* \"#utility.yul\":1349:1388   */\n      tag_53\n      jump\t// in\n    tag_77:\n        /* \"#utility.yul\":1404:1475   */\n      tag_78\n        /* \"#utility.yul\":1468:1474   */\n      dup2\n        /* \"#utility.yul\":1463:1466   */\n      dup6\n        /* \"#utility.yul\":1404:1475   */\n      tag_54\n      jump\t// in\n    tag_78:\n        /* \"#utility.yul\":1397:1475   */\n      swap4\n      pop\n        /* \"#utility.yul\":1484:1549   */\n      tag_79\n        /* \"#utility.yul\":1542:1548   */\n      dup2\n        /* \"#utility.yul\":1537:1540   */\n      dup6\n        /* \"#utility.yul\":1530:1534   */\n      0x20\n        /* \"#utility.yul\":1523:1528   */\n      dup7\n        /* \"#utility.yul\":1519:1535   */\n      add\n        /* \"#utility.yul\":1484:1549   */\n      tag_55\n      jump\t// in\n    tag_79:\n        /* \"#utility.yul\":1574:1603   */\n      tag_80\n        /* \"#utility.yul\":1596:1602   */\n      dup2\n        /* \"#utility.yul\":1574:1603   */\n      tag_56\n      jump\t// in\n    tag_80:\n        /* \"#utility.yul\":1569:1572   */\n      dup5\n        /* \"#utility.yul\":1565:1604   */\n      add\n        /* \"#utility.yul\":1558:1604   */\n      swap2\n      pop\n        /* \"#utility.yul\":1325:1610   */\n      pop\n        /* \"#utility.yul\":1233:1610   */\n      swap3\n      swap2\n      pop\n      pop\n      jump\t// out\n        /* \"#utility.yul\":1616:1929   */\n    tag_19:\n        /* \"#utility.yul\":1729:1733   */\n      0x00\n        /* \"#utility.yul\":1767:1769   */\n      0x20\n        /* \"#utility.yul\":1756:1765   */\n      dup3\n        /* \"#utility.yul\":1752:1770   */\n      add\n        /* \"#utility.yul\":1744:1770   */\n      swap1\n      pop\n        /* \"#utility.yul\":1816:1825   */\n      dup2\n        /* \"#utility.yul\":1810:1814   */\n      dup2\n        /* \"#utility.yul\":1806:1826   */\n      sub\n        /* \"#utility.yul\":1802:1803   */\n      0x00\n        /* \"#utility.yul\":1791:1800   */\n      dup4\n        /* \"#utility.yul\":1787:1804   */\n      add\n        /* \"#utility.yul\":1780:1827   */\n      mstore\n        /* \"#utility.yul\":1844:1922   */\n      tag_82\n        /* \"#utility.yul\":1917:1921   */\n      dup2\n        /* \"#utility.yul\":1908:1914   */\n      dup5\n        /* \"#utility.yul\":1844:1922   */\n      tag_57\n      jump\t// in\n    tag_82:\n        /* \"#utility.yul\":1836:1922   */\n      swap1\n      pop\n        /* \"#utility.yul\":1616:1929   */\n      swap3\n      swap2\n      pop\n      pop\n      jump\t// out\n        /* \"#utility.yul\":1935:2012   */\n    tag_58:\n        /* \"#utility.yul\":1972:1979   */\n      0x00\n        /* \"#utility.yul\":2001:2006   */\n      dup2\n        /* \"#utility.yul\":1990:2006   */\n      swap1\n      pop\n        /* \"#utility.yul\":1935:2012   */\n      swap2\n      swap1\n      pop\n      jump\t// out\n        /* \"#utility.yul\":2018:2136   */\n    tag_59:\n        /* \"#utility.yul\":2105:2129   */\n      tag_85\n        /* \"#utility.yul\":2123:2128   */\n      dup2\n        /* \"#utility.yul\":2105:2129   */\n      tag_58\n      jump\t// in\n    tag_85:\n        /* \"#utility.yul\":2100:2103   */\n      dup3\n        /* \"#utility.yul\":2093:2130   */\n      mstore\n        /* \"#utility.yul\":2018:2136   */\n      pop\n      pop\n      jump\t// out\n        /* \"#utility.yul\":2142:2364   */\n    tag_23:\n        /* \"#utility.yul\":2235:2239   */\n      0x00\n        /* \"#utility.yul\":2273:2275   */\n      0x20\n        /* \"#utility.yul\":2262:2271   */\n      dup3\n        /* \"#utility.yul\":2258:2276   */\n      add\n        /* \"#utility.yul\":2250:2276   */\n      swap1\n      pop\n        /* \"#utility.yul\":2286:2357   */\n      tag_87\n        /* \"#utility.yul\":2354:2355   */\n      0x00\n        /* \"#utility.yul\":2343:2352   */\n      dup4\n        /* \"#utility.yul\":2339:2356   */\n      add\n        /* \"#utility.yul\":2330:2336   */\n      dup5\n        /* \"#utility.yul\":2286:2357   */\n      tag_59\n      jump\t// in\n    tag_87:\n        /* \"#utility.yul\":2142:2364   */\n      swap3\n      swap2\n      pop\n      pop\n      jump\t// out\n        /* \"#utility.yul\":2370:2550   */\n    tag_60:\n        /* \"#utility.yul\":2418:2495   */\n      0x4e487b7100000000000000000000000000000000000000000000000000000000\n        /* \"#utility.yul\":2415:2416   */\n      0x00\n        /* \"#utility.yul\":2408:2496   */\n      mstore\n        /* \"#utility.yul\":2515:2519   */\n      0x22\n        /* \"#utility.yul\":2512:2513   */\n      0x04\n        /* \"#utility.yul\":2505:2520   */\n      mstore\n        /* \"#utility.yul\":2539:2543   */\n      0x24\n        /* \"#utility.yul\":2536:2537   */\n      0x00\n        /* \"#utility.yul\":2529:2544   */\n      revert\n        /* \"#utility.yul\":2556:2876   */\n    tag_40:\n        /* \"#utility.yul\":2600:2606   */\n      0x00\n        /* \"#utility.yul\":2637:2638   */\n      0x02\n        /* \"#utility.yul\":2631:2635   */\n      dup3\n        /* \"#utility.yul\":2627:2639   */\n      div\n        /* \"#utility.yul\":2617:2639   */\n      swap1\n      pop\n        /* \"#utility.yul\":2684:2685   */\n      0x01\n        /* \"#utility.yul\":2678:2682   */\n      dup3\n        /* \"#utility.yul\":2674:2686   */\n      and\n        /* \"#utility.yul\":2705:2723   */\n      dup1\n        /* \"#utility.yul\":2695:2776   */\n      tag_90\n      jumpi\n        /* \"#utility.yul\":2761:2765   */\n      0x7f\n        /* \"#utility.yul\":2753:2759   */\n      dup3\n        /* \"#utility.yul\":2749:2766   */\n      and\n        /* \"#utility.yul\":2739:2766   */\n      swap2\n      pop\n        /* \"#utility.yul\":2695:2776   */\n    tag_90:\n        /* \"#utility.yul\":2823:2825   */\n      0x20\n        /* \"#utility.yul\":2815:2821   */\n      dup3\n        /* \"#utility.yul\":2812:2826   */\n      lt\n        /* \"#utility.yul\":2792:2810   */\n      dup2\n        /* \"#utility.yul\":2789:2827   */\n      sub\n        /* \"#utility.yul\":2786:2870   */\n      tag_91\n      jumpi\n        /* \"#utility.yul\":2842:2860   */\n      tag_92\n      tag_60\n      jump\t// in\n    tag_92:\n        /* \"#utility.yul\":2786:2870   */\n    tag_91:\n        /* \"#utility.yul\":2607:2876   */\n      pop\n        /* \"#utility.yul\":2556:2876   */\n      swap2\n      swap1\n      pop\n      jump\t// out\n\n    auxdata: 0xa2646970667358221220297bb24cd482709222bea6e6fc0ef68b5ebbed7328c563f32505624eb88d949e64736f6c63430008120033\n}\n",
				"bytecode": {
					"linkReferences": {},
					"object": "6080604052486000554660015541600260006101000a81548173ffffffffffffffffffffffffffffffffffffffff021916908373ffffffffffffffffffffffffffffffffffffffff1602179055504260035533600460006101000a81548173ffffffffffffffffffffffffffffffffffffffff021916908373ffffffffffffffffffffffffffffffffffffffff1602179055506040518060400160405280600581526020017f457468657200000000000000000000000000000000000000000000000000000081525060059081620000d89190620003b4565b506040518060400160405280600381526020017f4554480000000000000000000000000000000000000000000000000000000000815250600690816200011f9190620003b4565b506127106007553480156200013357600080fd5b506200049b565b600081519050919050565b7f4e487b7100000000000000000000000000000000000000000000000000000000600052604160045260246000fd5b7f4e487b7100000000000000000000000000000000000000000000000000000000600052602260045260246000fd5b60006002820490506001821680620001bc57607f821691505b602082108103620001d257620001d162000174565b5b50919050565b60008190508160005260206000209050919050565b60006020601f8301049050919050565b600082821b905092915050565b6000600883026200023c7fffffffffffffffffffffffffffffffffffffffffffffffffffffffffffffffff82620001fd565b620002488683620001fd565b95508019841693508086168417925050509392505050565b6000819050919050565b6000819050919050565b6000620002956200028f620002898462000260565b6200026a565b62000260565b9050919050565b6000819050919050565b620002b18362000274565b620002c9620002c0826200029c565b8484546200020a565b825550505050565b600090565b620002e0620002d1565b620002ed818484620002a6565b505050565b5b81811015620003155762000309600082620002d6565b600181019050620002f3565b5050565b601f82111562000364576200032e81620001d8565b6200033984620001ed565b8101602085101562000349578190505b620003616200035885620001ed565b830182620002f2565b50505b505050565b600082821c905092915050565b6000620003896000198460080262000369565b1980831691505092915050565b6000620003a4838362000376565b9150826002028217905092915050565b620003bf826200013a565b67ffffffffffffffff811115620003db57620003da62000145565b5b620003e78254620001a3565b620003f482828562000319565b600060209050601f8311600181146200042c576000841562000417578287015190505b62000423858262000396565b86555062000493565b601f1984166200043c86620001d8565b60005b8281101562000466578489015182556001820191506020850194506020810190506200043f565b8683101562000486578489015162000482601f89168262000376565b8355505b6001600288020188555050505b505050505050565b6104d580620004ab6000396000f3fe608060405234801561001057600080fd5b50600436106100885760003560e01c8063ba95fabb1161005b578063ba95fabb14610105578063e810c38f14610123578063e94dcb9614610141578063f7abab9e1461015f57610088565b80634daedf2c1461008d5780636c02a931146100ab5780636cffd71f146100c95780637b61c320146100e7575b600080fd5b61009561017d565b6040516100a2919061033e565b60405180910390f35b6100b36101a3565b6040516100c091906103e9565b60405180910390f35b6100d1610231565b6040516100de9190610424565b60405180910390f35b6100ef610237565b6040516100fc91906103e9565b60405180910390f35b61010d6102c5565b60405161011a919061033e565b60405180910390f35b61012b6102eb565b6040516101389190610424565b60405180910390f35b6101496102f1565b6040516101569190610424565b60405180910390f35b6101676102f7565b6040516101749190610424565b60405180910390f35b600460009054906101000a900473ffffffffffffffffffffffffffffffffffffffff1681565b600580546101b09061046e565b80601f01602080910402602001604051908101604052809291908181526020018280546101dc9061046e565b80156102295780601f106101fe57610100808354040283529160200191610229565b820191906000526020600020905b81548152906001019060200180831161020c57829003601f168201915b505050505081565b60015481565b600680546102449061046e565b80601f01602080910402602001604051908101604052809291908181526020018280546102709061046e565b80156102bd5780601f10610292576101008083540402835291602001916102bd565b820191906000526020600020905b8154815290600101906020018083116102a057829003601f168201915b505050505081565b600260009054906101000a900473ffffffffffffffffffffffffffffffffffffffff1681565b60035481565b60005481565b60075481565b600073ffffffffffffffffffffffffffffffffffffffff82169050919050565b6000610328826102fd565b9050919050565b6103388161031d565b82525050565b6000602082019050610353600083018461032f565b92915050565b600081519050919050565b600082825260208201905092915050565b60005b83811015610393578082015181840152602081019050610378565b60008484015250505050565b6000601f19601f8301169050919050565b60006103bb82610359565b6103c58185610364565b93506103d5818560208601610375565b6103de8161039f565b840191505092915050565b6000602082019050818103600083015261040381846103b0565b905092915050565b6000819050919050565b61041e8161040b565b82525050565b60006020820190506104396000830184610415565b92915050565b7f4e487b7100000000000000000000000000000000000000000000000000000000600052602260045260246000fd5b6000600282049050600182168061048657607f821691505b6020821081036104995761049861043f565b5b5091905056fea2646970667358221220297bb24cd482709222bea6e6fc0ef68b5ebbed7328c563f32505624eb88d949e64736f6c63430008120033",
					"opcodes": "PUSH1 0x80 PUSH1 0x40 MSTORE BASEFEE PUSH1 0x0 SSTORE CHAINID PUSH1 0x1 SSTORE COINBASE PUSH1 0x2 PUSH1 0x0 PUSH2 0x100 EXP DUP2 SLOAD DUP2 PUSH20 0xFFFFFFFFFFFFFFFFFFFFFFFFFFFFFFFFFFFFFFFF MUL NOT AND SWAP1 DUP4 PUSH20 0xFFFFFFFFFFFFFFFFFFFFFFFFFFFFFFFFFFFFFFFF AND MUL OR SWAP1 SSTORE POP TIMESTAMP PUSH1 0x3 SSTORE CALLER PUSH1 0x4 PUSH1 0x0 PUSH2 0x100 EXP DUP2 SLOAD DUP2 PUSH20 0xFFFFFFFFFFFFFFFFFFFFFFFFFFFFFFFFFFFFFFFF MUL NOT AND SWAP1 DUP4 PUSH20 0xFFFFFFFFFFFFFFFFFFFFFFFFFFFFFFFFFFFFFFFF AND MUL OR SWAP1 SSTORE POP PUSH1 0x40 MLOAD DUP1 PUSH1 0x40 ADD PUSH1 0x40 MSTORE DUP1 PUSH1 0x5 DUP2 MSTORE PUSH1 0x20 ADD PUSH32 0x4574686572000000000000000000000000000000000000000000000000000000 DUP2 MSTORE POP PUSH1 0x5 SWAP1 DUP2 PUSH3 0xD8 SWAP2 SWAP1 PUSH3 0x3B4 JUMP JUMPDEST POP PUSH1 0x40 MLOAD DUP1 PUSH1 0x40 ADD PUSH1 0x40 MSTORE DUP1 PUSH1 0x3 DUP2 MSTORE PUSH1 0x20 ADD PUSH32 0x4554480000000000000000000000000000000000000000000000000000000000 DUP2 MSTORE POP PUSH1 0x6 SWAP1 DUP2 PUSH3 0x11F SWAP2 SWAP1 PUSH3 0x3B4 JUMP JUMPDEST POP PUSH2 0x2710 PUSH1 0x7 SSTORE CALLVALUE DUP1 ISZERO PUSH3 0x133 JUMPI PUSH1 0x0 DUP1 REVERT JUMPDEST POP PUSH3 0x49B JUMP JUMPDEST PUSH1 0x0 DUP2 MLOAD SWAP1 POP SWAP2 SWAP1 POP JUMP JUMPDEST PUSH32 0x4E487B7100000000000000000000000000000000000000000000000000000000 PUSH1 0x0 MSTORE PUSH1 0x41 PUSH1 0x4 MSTORE PUSH1 0x24 PUSH1 0x0 REVERT JUMPDEST PUSH32 0x4E487B7100000000000000000000000000000000000000000000000000000000 PUSH1 0x0 MSTORE PUSH1 0x22 PUSH1 0x4 MSTORE PUSH1 0x24 PUSH1 0x0 REVERT JUMPDEST PUSH1 0x0 PUSH1 0x2 DUP3 DIV SWAP1 POP PUSH1 0x1 DUP3 AND DUP1 PUSH3 0x1BC JUMPI PUSH1 0x7F DUP3 AND SWAP2 POP JUMPDEST PUSH1 0x20 DUP3 LT DUP2 SUB PUSH3 0x1D2 JUMPI PUSH3 0x1D1 PUSH3 0x174 JUMP JUMPDEST JUMPDEST POP SWAP2 SWAP1 POP JUMP JUMPDEST PUSH1 0x0 DUP2 SWAP1 POP DUP2 PUSH1 0x0 MSTORE PUSH1 0x20 PUSH1 0x0 KECCAK256 SWAP1 POP SWAP2 SWAP1 POP JUMP JUMPDEST PUSH1 0x0 PUSH1 0x20 PUSH1 0x1F DUP4 ADD DIV SWAP1 POP SWAP2 SWAP1 POP JUMP JUMPDEST PUSH1 0x0 DUP3 DUP3 SHL SWAP1 POP SWAP3 SWAP2 POP POP JUMP JUMPDEST PUSH1 0x0 PUSH1 0x8 DUP4 MUL PUSH3 0x23C PUSH32 0xFFFFFFFFFFFFFFFFFFFFFFFFFFFFFFFFFFFFFFFFFFFFFFFFFFFFFFFFFFFFFFFF DUP3 PUSH3 0x1FD JUMP JUMPDEST PUSH3 0x248 DUP7 DUP4 PUSH3 0x1FD JUMP JUMPDEST SWAP6 POP DUP1 NOT DUP5 AND SWAP4 POP DUP1 DUP7 AND DUP5 OR SWAP3 POP POP POP SWAP4 SWAP3 POP POP POP JUMP JUMPDEST PUSH1 0x0 DUP2 SWAP1 POP SWAP2 SWAP1 POP JUMP JUMPDEST PUSH1 0x0 DUP2 SWAP1 POP SWAP2 SWAP1 POP JUMP JUMPDEST PUSH1 0x0 PUSH3 0x295 PUSH3 0x28F PUSH3 0x289 DUP5 PUSH3 0x260 JUMP JUMPDEST PUSH3 0x26A JUMP JUMPDEST PUSH3 0x260 JUMP JUMPDEST SWAP1 POP SWAP2 SWAP1 POP JUMP JUMPDEST PUSH1 0x0 DUP2 SWAP1 POP SWAP2 SWAP1 POP JUMP JUMPDEST PUSH3 0x2B1 DUP4 PUSH3 0x274 JUMP JUMPDEST PUSH3 0x2C9 PUSH3 0x2C0 DUP3 PUSH3 0x29C JUMP JUMPDEST DUP5 DUP5 SLOAD PUSH3 0x20A JUMP JUMPDEST DUP3 SSTORE POP POP POP POP JUMP JUMPDEST PUSH1 0x0 SWAP1 JUMP JUMPDEST PUSH3 0x2E0 PUSH3 0x2D1 JUMP JUMPDEST PUSH3 0x2ED DUP2 DUP5 DUP5 PUSH3 0x2A6 JUMP JUMPDEST POP POP POP JUMP JUMPDEST JUMPDEST DUP2 DUP2 LT ISZERO PUSH3 0x315 JUMPI PUSH3 0x309 PUSH1 0x0 DUP3 PUSH3 0x2D6 JUMP JUMPDEST PUSH1 0x1 DUP2 ADD SWAP1 POP PUSH3 0x2F3 JUMP JUMPDEST POP POP JUMP JUMPDEST PUSH1 0x1F DUP3 GT ISZERO PUSH3 0x364 JUMPI PUSH3 0x32E DUP2 PUSH3 0x1D8 JUMP JUMPDEST PUSH3 0x339 DUP5 PUSH3 0x1ED JUMP JUMPDEST DUP2 ADD PUSH1 0x20 DUP6 LT ISZERO PUSH3 0x349 JUMPI DUP2 SWAP1 POP JUMPDEST PUSH3 0x361 PUSH3 0x358 DUP6 PUSH3 0x1ED JUMP JUMPDEST DUP4 ADD DUP3 PUSH3 0x2F2 JUMP JUMPDEST POP POP JUMPDEST POP POP POP JUMP JUMPDEST PUSH1 0x0 DUP3 DUP3 SHR SWAP1 POP SWAP3 SWAP2 POP POP JUMP JUMPDEST PUSH1 0x0 PUSH3 0x389 PUSH1 0x0 NOT DUP5 PUSH1 0x8 MUL PUSH3 0x369 JUMP JUMPDEST NOT DUP1 DUP4 AND SWAP2 POP POP SWAP3 SWAP2 POP POP JUMP JUMPDEST PUSH1 0x0 PUSH3 0x3A4 DUP4 DUP4 PUSH3 0x376 JUMP JUMPDEST SWAP2 POP DUP3 PUSH1 0x2 MUL DUP3 OR SWAP1 POP SWAP3 SWAP2 POP POP JUMP JUMPDEST PUSH3 0x3BF DUP3 PUSH3 0x13A JUMP JUMPDEST PUSH8 0xFFFFFFFFFFFFFFFF DUP2 GT ISZERO PUSH3 0x3DB JUMPI PUSH3 0x3DA PUSH3 0x145 JUMP JUMPDEST JUMPDEST PUSH3 0x3E7 DUP3 SLOAD PUSH3 0x1A3 JUMP JUMPDEST PUSH3 0x3F4 DUP3 DUP3 DUP6 PUSH3 0x319 JUMP JUMPDEST PUSH1 0x0 PUSH1 0x20 SWAP1 POP PUSH1 0x1F DUP4 GT PUSH1 0x1 DUP2 EQ PUSH3 0x42C JUMPI PUSH1 0x0 DUP5 ISZERO PUSH3 0x417 JUMPI DUP3 DUP8 ADD MLOAD SWAP1 POP JUMPDEST PUSH3 0x423 DUP6 DUP3 PUSH3 0x396 JUMP JUMPDEST DUP7 SSTORE POP PUSH3 0x493 JUMP JUMPDEST PUSH1 0x1F NOT DUP5 AND PUSH3 0x43C DUP7 PUSH3 0x1D8 JUMP JUMPDEST PUSH1 0x0 JUMPDEST DUP3 DUP2 LT ISZERO PUSH3 0x466 JUMPI DUP5 DUP10 ADD MLOAD DUP3 SSTORE PUSH1 0x1 DUP3 ADD SWAP2 POP PUSH1 0x20 DUP6 ADD SWAP5 POP PUSH1 0x20 DUP2 ADD SWAP1 POP PUSH3 0x43F JUMP JUMPDEST DUP7 DUP4 LT ISZERO PUSH3 0x486 JUMPI DUP5 DUP10 ADD MLOAD PUSH3 0x482 PUSH1 0x1F DUP10 AND DUP3 PUSH3 0x376 JUMP JUMPDEST DUP4 SSTORE POP JUMPDEST PUSH1 0x1 PUSH1 0x2 DUP9 MUL ADD DUP9 SSTORE POP POP POP JUMPDEST POP POP POP POP POP POP JUMP JUMPDEST PUSH2 0x4D5 DUP1 PUSH3 0x4AB PUSH1 0x0 CODECOPY PUSH1 0x0 RETURN INVALID PUSH1 0x80 PUSH1 0x40 MSTORE CALLVALUE DUP1 ISZERO PUSH2 0x10 JUMPI PUSH1 0x0 DUP1 REVERT JUMPDEST POP PUSH1 0x4 CALLDATASIZE LT PUSH2 0x88 JUMPI PUSH1 0x0 CALLDATALOAD PUSH1 0xE0 SHR DUP1 PUSH4 0xBA95FABB GT PUSH2 0x5B JUMPI DUP1 PUSH4 0xBA95FABB EQ PUSH2 0x105 JUMPI DUP1 PUSH4 0xE810C38F EQ PUSH2 0x123 JUMPI DUP1 PUSH4 0xE94DCB96 EQ PUSH2 0x141 JUMPI DUP1 PUSH4 0xF7ABAB9E EQ PUSH2 0x15F JUMPI PUSH2 0x88 JUMP JUMPDEST DUP1 PUSH4 0x4DAEDF2C EQ PUSH2 0x8D JUMPI DUP1 PUSH4 0x6C02A931 EQ PUSH2 0xAB JUMPI DUP1 PUSH4 0x6CFFD71F EQ PUSH2 0xC9 JUMPI DUP1 PUSH4 0x7B61C320 EQ PUSH2 0xE7 JUMPI JUMPDEST PUSH1 0x0 DUP1 REVERT JUMPDEST PUSH2 0x95 PUSH2 0x17D JUMP JUMPDEST PUSH1 0x40 MLOAD PUSH2 0xA2 SWAP2 SWAP1 PUSH2 0x33E JUMP JUMPDEST PUSH1 0x40 MLOAD DUP1 SWAP2 SUB SWAP1 RETURN JUMPDEST PUSH2 0xB3 PUSH2 0x1A3 JUMP JUMPDEST PUSH1 0x40 MLOAD PUSH2 0xC0 SWAP2 SWAP1 PUSH2 0x3E9 JUMP JUMPDEST PUSH1 0x40 MLOAD DUP1 SWAP2 SUB SWAP1 RETURN JUMPDEST PUSH2 0xD1 PUSH2 0x231 JUMP JUMPDEST PUSH1 0x40 MLOAD PUSH2 0xDE SWAP2 SWAP1 PUSH2 0x424 JUMP JUMPDEST PUSH1 0x40 MLOAD DUP1 SWAP2 SUB SWAP1 RETURN JUMPDEST PUSH2 0xEF PUSH2 0x237 JUMP JUMPDEST PUSH1 0x40 MLOAD PUSH2 0xFC SWAP2 SWAP1 PUSH2 0x3E9 JUMP JUMPDEST PUSH1 0x40 MLOAD DUP1 SWAP2 SUB SWAP1 RETURN JUMPDEST PUSH2 0x10D PUSH2 0x2C5 JUMP JUMPDEST PUSH1 0x40 MLOAD PUSH2 0x11A SWAP2 SWAP1 PUSH2 0x33E JUMP JUMPDEST PUSH1 0x40 MLOAD DUP1 SWAP2 SUB SWAP1 RETURN JUMPDEST PUSH2 0x12B PUSH2 0x2EB JUMP JUMPDEST PUSH1 0x40 MLOAD PUSH2 0x138 SWAP2 SWAP1 PUSH2 0x424 JUMP JUMPDEST PUSH1 0x40 MLOAD DUP1 SWAP2 SUB SWAP1 RETURN JUMPDEST PUSH2 0x149 PUSH2 0x2F1 JUMP JUMPDEST PUSH1 0x40 MLOAD PUSH2 0x156 SWAP2 SWAP1 PUSH2 0x424 JUMP JUMPDEST PUSH1 0x40 MLOAD DUP1 SWAP2 SUB SWAP1 RETURN JUMPDEST PUSH2 0x167 PUSH2 0x2F7 JUMP JUMPDEST PUSH1 0x40 MLOAD PUSH2 0x174 SWAP2 SWAP1 PUSH2 0x424 JUMP JUMPDEST PUSH1 0x40 MLOAD DUP1 SWAP2 SUB SWAP1 RETURN JUMPDEST PUSH1 0x4 PUSH1 0x0 SWAP1 SLOAD SWAP1 PUSH2 0x100 EXP SWAP1 DIV PUSH20 0xFFFFFFFFFFFFFFFFFFFFFFFFFFFFFFFFFFFFFFFF AND DUP2 JUMP JUMPDEST PUSH1 0x5 DUP1 SLOAD PUSH2 0x1B0 SWAP1 PUSH2 0x46E JUMP JUMPDEST DUP1 PUSH1 0x1F ADD PUSH1 0x20 DUP1 SWAP2 DIV MUL PUSH1 0x20 ADD PUSH1 0x40 MLOAD SWAP1 DUP2 ADD PUSH1 0x40 MSTORE DUP1 SWAP3 SWAP2 SWAP1 DUP2 DUP2 MSTORE PUSH1 0x20 ADD DUP3 DUP1 SLOAD PUSH2 0x1DC SWAP1 PUSH2 0x46E JUMP JUMPDEST DUP1 ISZERO PUSH2 0x229 JUMPI DUP1 PUSH1 0x1F LT PUSH2 0x1FE JUMPI PUSH2 0x100 DUP1 DUP4 SLOAD DIV MUL DUP4 MSTORE SWAP2 PUSH1 0x20 ADD SWAP2 PUSH2 0x229 JUMP JUMPDEST DUP3 ADD SWAP2 SWAP1 PUSH1 0x0 MSTORE PUSH1 0x20 PUSH1 0x0 KECCAK256 SWAP1 JUMPDEST DUP2 SLOAD DUP2 MSTORE SWAP1 PUSH1 0x1 ADD SWAP1 PUSH1 0x20 ADD DUP1 DUP4 GT PUSH2 0x20C JUMPI DUP3 SWAP1 SUB PUSH1 0x1F AND DUP3 ADD SWAP2 JUMPDEST POP POP POP POP POP DUP2 JUMP JUMPDEST PUSH1 0x1 SLOAD DUP2 JUMP JUMPDEST PUSH1 0x6 DUP1 SLOAD PUSH2 0x244 SWAP1 PUSH2 0x46E JUMP JUMPDEST DUP1 PUSH1 0x1F ADD PUSH1 0x20 DUP1 SWAP2 DIV MUL PUSH1 0x20 ADD PUSH1 0x40 MLOAD SWAP1 DUP2 ADD PUSH1 0x40 MSTORE DUP1 SWAP3 SWAP2 SWAP1 DUP2 DUP2 MSTORE PUSH1 0x20 ADD DUP3 DUP1 SLOAD PUSH2 0x270 SWAP1 PUSH2 0x46E JUMP JUMPDEST DUP1 ISZERO PUSH2 0x2BD JUMPI DUP1 PUSH1 0x1F LT PUSH2 0x292 JUMPI PUSH2 0x100 DUP1 DUP4 SLOAD DIV MUL DUP4 MSTORE SWAP2 PUSH1 0x20 ADD SWAP2 PUSH2 0x2BD JUMP JUMPDEST DUP3 ADD SWAP2 SWAP1 PUSH1 0x0 MSTORE PUSH1 0x20 PUSH1 0x0 KECCAK256 SWAP1 JUMPDEST DUP2 SLOAD DUP2 MSTORE SWAP1 PUSH1 0x1 ADD SWAP1 PUSH1 0x20 ADD DUP1 DUP4 GT PUSH2 0x2A0 JUMPI DUP3 SWAP1 SUB PUSH1 0x1F AND DUP3 ADD SWAP2 JUMPDEST POP POP POP POP POP DUP2 JUMP JUMPDEST PUSH1 0x2 PUSH1 0x0 SWAP1 SLOAD SWAP1 PUSH2 0x100 EXP SWAP1 DIV PUSH20 0xFFFFFFFFFFFFFFFFFFFFFFFFFFFFFFFFFFFFFFFF AND DUP2 JUMP JUMPDEST PUSH1 0x3 SLOAD DUP2 JUMP JUMPDEST PUSH1 0x0 SLOAD DUP2 JUMP JUMPDEST PUSH1 0x7 SLOAD DUP2 JUMP JUMPDEST PUSH1 0x0 PUSH20 0xFFFFFFFFFFFFFFFFFFFFFFFFFFFFFFFFFFFFFFFF DUP3 AND SWAP1 POP SWAP2 SWAP1 POP JUMP JUMPDEST PUSH1 0x0 PUSH2 0x328 DUP3 PUSH2 0x2FD JUMP JUMPDEST SWAP1 POP SWAP2 SWAP1 POP JUMP JUMPDEST PUSH2 0x338 DUP2 PUSH2 0x31D JUMP JUMPDEST DUP3 MSTORE POP POP JUMP JUMPDEST PUSH1 0x0 PUSH1 0x20 DUP3 ADD SWAP1 POP PUSH2 0x353 PUSH1 0x0 DUP4 ADD DUP5 PUSH2 0x32F JUMP JUMPDEST SWAP3 SWAP2 POP POP JUMP JUMPDEST PUSH1 0x0 DUP2 MLOAD SWAP1 POP SWAP2 SWAP1 POP JUMP JUMPDEST PUSH1 0x0 DUP3 DUP3 MSTORE PUSH1 0x20 DUP3 ADD SWAP1 POP SWAP3 SWAP2 POP POP JUMP JUMPDEST PUSH1 0x0 JUMPDEST DUP4 DUP2 LT ISZERO PUSH2 0x393 JUMPI DUP1 DUP3 ADD MLOAD DUP2 DUP5 ADD MSTORE PUSH1 0x20 DUP2 ADD SWAP1 POP PUSH2 0x378 JUMP JUMPDEST PUSH1 0x0 DUP5 DUP5 ADD MSTORE POP POP POP POP JUMP JUMPDEST PUSH1 0x0 PUSH1 0x1F NOT PUSH1 0x1F DUP4 ADD AND SWAP1 POP SWAP2 SWAP1 POP JUMP JUMPDEST PUSH1 0x0 PUSH2 0x3BB DUP3 PUSH2 0x359 JUMP JUMPDEST PUSH2 0x3C5 DUP2 DUP6 PUSH2 0x364 JUMP JUMPDEST SWAP4 POP PUSH2 0x3D5 DUP2 DUP6 PUSH1 0x20 DUP7 ADD PUSH2 0x375 JUMP JUMPDEST PUSH2 0x3DE DUP2 PUSH2 0x39F JUMP JUMPDEST DUP5 ADD SWAP2 POP POP SWAP3 SWAP2 POP POP JUMP JUMPDEST PUSH1 0x0 PUSH1 0x20 DUP3 ADD SWAP1 POP DUP2 DUP2 SUB PUSH1 0x0 DUP4 ADD MSTORE PUSH2 0x403 DUP2 DUP5 PUSH2 0x3B0 JUMP JUMPDEST SWAP1 POP SWAP3 SWAP2 POP POP JUMP JUMPDEST PUSH1 0x0 DUP2 SWAP1 POP SWAP2 SWAP1 POP JUMP JUMPDEST PUSH2 0x41E DUP2 PUSH2 0x40B JUMP JUMPDEST DUP3 MSTORE POP POP JUMP JUMPDEST PUSH1 0x0 PUSH1 0x20 DUP3 ADD SWAP1 POP PUSH2 0x439 PUSH1 0x0 DUP4 ADD DUP5 PUSH2 0x415 JUMP JUMPDEST SWAP3 SWAP2 POP POP JUMP JUMPDEST PUSH32 0x4E487B7100000000000000000000000000000000000000000000000000000000 PUSH1 0x0 MSTORE PUSH1 0x22 PUSH1 0x4 MSTORE PUSH1 0x24 PUSH1 0x0 REVERT JUMPDEST PUSH1 0x0 PUSH1 0x2 DUP3 DIV SWAP1 POP PUSH1 0x1 DUP3 AND DUP1 PUSH2 0x486 JUMPI PUSH1 0x7F DUP3 AND SWAP2 POP JUMPDEST PUSH1 0x20 DUP3 LT DUP2 SUB PUSH2 0x499 JUMPI PUSH2 0x498 PUSH2 0x43F JUMP JUMPDEST JUMPDEST POP SWAP2 SWAP1 POP JUMP INVALID LOG2 PUSH5 0x6970667358 0x22 SLT KECCAK256 0x29 PUSH28 0xB24CD482709222BEA6E6FC0EF68B5EBBED7328C563F32505624EB88D SWAP5 SWAP15 PUSH5 0x736F6C6343 STOP ADDMOD SLT STOP CALLER "
				},
				"gasEstimates": {
					"creation": {
						"codeDepositCost": "247400",
						"executionCost": "infinite",
						"totalCost": "infinite"
					},
					"external": {
						"_block_Basefee()": "2473",
						"_block_chainid()": "2474",
						"_block_coinbase()": "2514",
						"_block_timestamp()": "2451",
						"_msg_sender()": "2515",
						"tokenName()": "infinite",
						"tokenSymbol()": "infinite",
						"tokenTotalSupply()": "2495"
					}
				},
				"methodIdentifiers": {
					"_block_Basefee()": "e94dcb96",
					"_block_chainid()": "6cffd71f",
					"_block_coinbase()": "ba95fabb",
					"_block_timestamp()": "e810c38f",
					"_msg_sender()": "4daedf2c",
					"tokenName()": "6c02a931",
					"tokenSymbol()": "7b61c320",
					"tokenTotalSupply()": "f7abab9e"
				}
			},
			"storageLayout": {
				"storage": [
					{
						"astId": 5,
						"contract": "sol/03_quiz.sol:test",
						"label": "_block_Basefee",
						"offset": 0,
						"slot": "0",
						"type": "t_uint256"
					},
					{
						"astId": 9,
						"contract": "sol/03_quiz.sol:test",
						"label": "_block_chainid",
						"offset": 0,
						"slot": "1",
						"type": "t_uint256"
					},
					{
						"astId": 13,
						"contract": "sol/03_quiz.sol:test",
						"label": "_block_coinbase",
						"offset": 0,
						"slot": "2",
						"type": "t_address"
					},
					{
						"astId": 17,
						"contract": "sol/03_quiz.sol:test",
						"label": "_block_timestamp",
						"offset": 0,
						"slot": "3",
						"type": "t_uint256"
					},
					{
						"astId": 21,
						"contract": "sol/03_quiz.sol:test",
						"label": "_msg_sender",
						"offset": 0,
						"slot": "4",
						"type": "t_address"
					},
					{
						"astId": 24,
						"contract": "sol/03_quiz.sol:test",
						"label": "tokenName",
						"offset": 0,
						"slot": "5",
						"type": "t_string_storage"
					},
					{
						"astId": 27,
						"contract": "sol/03_quiz.sol:test",
						"label": "tokenSymbol",
						"offset": 0,
						"slot": "6",
						"type": "t_string_storage"
					},
					{
						"astId": 30,
						"contract": "sol/03_quiz.sol:test",
						"label": "tokenTotalSupply",
						"offset": 0,
						"slot": "7",
						"type": "t_uint256"
					}
				],
				"types": {
					"t_address": {
						"encoding": "inplace",
						"label": "address",
						"numberOfBytes": "20"
					},
					"t_string_storage": {
						"encoding": "bytes",
						"label": "string",
						"numberOfBytes": "32"
					},
					"t_uint256": {
						"encoding": "inplace",
						"label": "uint256",
						"numberOfBytes": "32"
					}
				}
			},
			"userdoc": {
				"kind": "user",
				"methods": {},
				"version": 1
			}
		}
	}
}