{
	"sol/07.sol": {
		"exam": {
			"abi": [
				{
					"inputs": [],
					"name": "fun1",
					"outputs": [
						{
							"internalType": "uint256",
							"name": "",
							"type": "uint256"
						},
						{
							"internalType": "uint256",
							"name": "",
							"type": "uint256"
						},
						{
							"internalType": "uint256",
							"name": "",
							"type": "uint256"
						}
					],
					"stateMutability": "view",
					"type": "function"
				},
				{
					"inputs": [],
					"name": "fun4",
					"outputs": [
						{
							"internalType": "uint256",
							"name": "",
							"type": "uint256"
						}
					],
					"stateMutability": "pure",
					"type": "function"
				},
				{
					"inputs": [],
					"name": "fun5",
					"outputs": [
						{
							"internalType": "uint256",
							"name": "",
							"type": "uint256"
						}
					],
					"stateMutability": "view",
					"type": "function"
				},
				{
					"inputs": [],
					"name": "var1",
					"outputs": [
						{
							"internalType": "uint256",
							"name": "",
							"type": "uint256"
						}
					],
					"stateMutability": "view",
					"type": "function"
				}
			],
			"devdoc": {
				"kind": "dev",
				"methods": {},
				"version": 1
			},
			"evm": {
				"assembly": "    /* \"sol/07.sol\":58:879  contract exam {... */\n  mstore(0x40, 0x80)\n    /* \"sol/07.sol\":98:99  1 */\n  0x01\n    /* \"sol/07.sol\":79:99  uint public var1 = 1 */\n  0x00\n  sstore\n    /* \"sol/07.sol\":118:119  2 */\n  0x02\n    /* \"sol/07.sol\":106:119  uint var2 = 2 */\n  0x01\n  sstore\n    /* \"sol/07.sol\":205:206  3 */\n  0x03\n    /* \"sol/07.sol\":184:206  uint internal var3 = 3 */\n  0x02\n  sstore\n    /* \"sol/07.sol\":58:879  contract exam {... */\n  callvalue\n  dup1\n  iszero\n  tag_1\n  jumpi\n  0x00\n  dup1\n  revert\ntag_1:\n  pop\n  dataSize(sub_0)\n  dup1\n  dataOffset(sub_0)\n  0x00\n  codecopy\n  0x00\n  return\nstop\n\nsub_0: assembly {\n        /* \"sol/07.sol\":58:879  contract exam {... */\n      mstore(0x40, 0x80)\n      callvalue\n      dup1\n      iszero\n      tag_1\n      jumpi\n      0x00\n      dup1\n      revert\n    tag_1:\n      pop\n      jumpi(tag_2, lt(calldatasize, 0x04))\n      shr(0xe0, calldataload(0x00))\n      dup1\n      0x446a45b7\n      eq\n      tag_3\n      jumpi\n      dup1\n      0x67e919b6\n      eq\n      tag_4\n      jumpi\n      dup1\n      0xb1048dd0\n      eq\n      tag_5\n      jumpi\n      dup1\n      0xb306fda7\n      eq\n      tag_6\n      jumpi\n    tag_2:\n      0x00\n      dup1\n      revert\n        /* \"sol/07.sol\":309:410  function fun1() public view returns (uint, uint, uint) {... */\n    tag_3:\n      tag_7\n      tag_8\n      jump\t// in\n    tag_7:\n      mload(0x40)\n      tag_9\n      swap4\n      swap3\n      swap2\n      swap1\n      tag_10\n      jump\t// in\n    tag_9:\n      mload(0x40)\n      dup1\n      swap2\n      sub\n      swap1\n      return\n        /* \"sol/07.sol\":79:99  uint public var1 = 1 */\n    tag_4:\n      tag_11\n      tag_12\n      jump\t// in\n    tag_11:\n      mload(0x40)\n      tag_13\n      swap2\n      swap1\n      tag_14\n      jump\t// in\n    tag_13:\n      mload(0x40)\n      dup1\n      swap2\n      sub\n      swap1\n      return\n        /* \"sol/07.sol\":794:874  function fun5() public view returns (uint) {... */\n    tag_5:\n      tag_15\n      tag_16\n      jump\t// in\n    tag_15:\n      mload(0x40)\n      tag_17\n      swap2\n      swap1\n      tag_14\n      jump\t// in\n    tag_17:\n      mload(0x40)\n      dup1\n      swap2\n      sub\n      swap1\n      return\n        /* \"sol/07.sol\":714:786  function fun4() external pure returns (uint) {... */\n    tag_6:\n      tag_18\n      tag_19\n      jump\t// in\n    tag_18:\n      mload(0x40)\n      tag_20\n      swap2\n      swap1\n      tag_14\n      jump\t// in\n    tag_20:\n      mload(0x40)\n      dup1\n      swap2\n      sub\n      swap1\n      return\n        /* \"sol/07.sol\":309:410  function fun1() public view returns (uint, uint, uint) {... */\n    tag_8:\n        /* \"sol/07.sol\":346:350  uint */\n      0x00\n        /* \"sol/07.sol\":352:356  uint */\n      dup1\n        /* \"sol/07.sol\":358:362  uint */\n      0x00\n        /* \"sol/07.sol\":383:387  var1 */\n      dup1\n      sload\n        /* \"sol/07.sol\":389:393  var2 */\n      sload(0x01)\n        /* \"sol/07.sol\":395:399  var3 */\n      sload(0x02)\n        /* \"sol/07.sol\":375:400  return (var1, var2, var3) */\n      swap3\n      pop\n      swap3\n      pop\n      swap3\n      pop\n        /* \"sol/07.sol\":309:410  function fun1() public view returns (uint, uint, uint) {... */\n      swap1\n      swap2\n      swap3\n      jump\t// out\n        /* \"sol/07.sol\":79:99  uint public var1 = 1 */\n    tag_12:\n      sload(0x00)\n      dup2\n      jump\t// out\n        /* \"sol/07.sol\":794:874  function fun5() public view returns (uint) {... */\n    tag_16:\n        /* \"sol/07.sol\":831:835  uint */\n      0x00\n        /* \"sol/07.sol\":855:859  this */\n      address\n        /* \"sol/07.sol\":855:864  this.fun4 */\n      0xffffffffffffffffffffffffffffffffffffffff\n      and\n      0xb306fda7\n        /* \"sol/07.sol\":855:866  this.fun4() */\n      mload(0x40)\n      dup2\n      0xffffffff\n      and\n      0xe0\n      shl\n      dup2\n      mstore\n      0x04\n      add\n      0x20\n      mload(0x40)\n      dup1\n      dup4\n      sub\n      dup2\n      dup7\n      gas\n      staticcall\n      iszero\n      dup1\n      iszero\n      tag_24\n      jumpi\n      returndatasize\n      0x00\n      dup1\n      returndatacopy\n      revert(0x00, returndatasize)\n    tag_24:\n      pop\n      pop\n      pop\n      pop\n      mload(0x40)\n      returndatasize\n      not(0x1f)\n      0x1f\n      dup3\n      add\n      and\n      dup3\n      add\n      dup1\n      0x40\n      mstore\n      pop\n      dup2\n      add\n      swap1\n      tag_25\n      swap2\n      swap1\n      tag_26\n      jump\t// in\n    tag_25:\n        /* \"sol/07.sol\":848:866  return this.fun4() */\n      swap1\n      pop\n        /* \"sol/07.sol\":794:874  function fun5() public view returns (uint) {... */\n      swap1\n      jump\t// out\n        /* \"sol/07.sol\":714:786  function fun4() external pure returns (uint) {... */\n    tag_19:\n        /* \"sol/07.sol\":753:757  uint */\n      0x00\n        /* \"sol/07.sol\":777:778  2 */\n      0x02\n        /* \"sol/07.sol\":770:778  return 2 */\n      swap1\n      pop\n        /* \"sol/07.sol\":714:786  function fun4() external pure returns (uint) {... */\n      swap1\n      jump\t// out\n        /* \"#utility.yul\":7:84   */\n    tag_28:\n        /* \"#utility.yul\":44:51   */\n      0x00\n        /* \"#utility.yul\":73:78   */\n      dup2\n        /* \"#utility.yul\":62:78   */\n      swap1\n      pop\n        /* \"#utility.yul\":7:84   */\n      swap2\n      swap1\n      pop\n      jump\t// out\n        /* \"#utility.yul\":90:208   */\n    tag_29:\n        /* \"#utility.yul\":177:201   */\n      tag_38\n        /* \"#utility.yul\":195:200   */\n      dup2\n        /* \"#utility.yul\":177:201   */\n      tag_28\n      jump\t// in\n    tag_38:\n        /* \"#utility.yul\":172:175   */\n      dup3\n        /* \"#utility.yul\":165:202   */\n      mstore\n        /* \"#utility.yul\":90:208   */\n      pop\n      pop\n      jump\t// out\n        /* \"#utility.yul\":214:656   */\n    tag_10:\n        /* \"#utility.yul\":363:367   */\n      0x00\n        /* \"#utility.yul\":401:403   */\n      0x60\n        /* \"#utility.yul\":390:399   */\n      dup3\n        /* \"#utility.yul\":386:404   */\n      add\n        /* \"#utility.yul\":378:404   */\n      swap1\n      pop\n        /* \"#utility.yul\":414:485   */\n      tag_40\n        /* \"#utility.yul\":482:483   */\n      0x00\n        /* \"#utility.yul\":471:480   */\n      dup4\n        /* \"#utility.yul\":467:484   */\n      add\n        /* \"#utility.yul\":458:464   */\n      dup7\n        /* \"#utility.yul\":414:485   */\n      tag_29\n      jump\t// in\n    tag_40:\n        /* \"#utility.yul\":495:567   */\n      tag_41\n        /* \"#utility.yul\":563:565   */\n      0x20\n        /* \"#utility.yul\":552:561   */\n      dup4\n        /* \"#utility.yul\":548:566   */\n      add\n        /* \"#utility.yul\":539:545   */\n      dup6\n        /* \"#utility.yul\":495:567   */\n      tag_29\n      jump\t// in\n    tag_41:\n        /* \"#utility.yul\":577:649   */\n      tag_42\n        /* \"#utility.yul\":645:647   */\n      0x40\n        /* \"#utility.yul\":634:643   */\n      dup4\n        /* \"#utility.yul\":630:648   */\n      add\n        /* \"#utility.yul\":621:627   */\n      dup5\n        /* \"#utility.yul\":577:649   */\n      tag_29\n      jump\t// in\n    tag_42:\n        /* \"#utility.yul\":214:656   */\n      swap5\n      swap4\n      pop\n      pop\n      pop\n      pop\n      jump\t// out\n        /* \"#utility.yul\":662:884   */\n    tag_14:\n        /* \"#utility.yul\":755:759   */\n      0x00\n        /* \"#utility.yul\":793:795   */\n      0x20\n        /* \"#utility.yul\":782:791   */\n      dup3\n        /* \"#utility.yul\":778:796   */\n      add\n        /* \"#utility.yul\":770:796   */\n      swap1\n      pop\n        /* \"#utility.yul\":806:877   */\n      tag_44\n        /* \"#utility.yul\":874:875   */\n      0x00\n        /* \"#utility.yul\":863:872   */\n      dup4\n        /* \"#utility.yul\":859:876   */\n      add\n        /* \"#utility.yul\":850:856   */\n      dup5\n        /* \"#utility.yul\":806:877   */\n      tag_29\n      jump\t// in\n    tag_44:\n        /* \"#utility.yul\":662:884   */\n      swap3\n      swap2\n      pop\n      pop\n      jump\t// out\n        /* \"#utility.yul\":971:1088   */\n    tag_31:\n        /* \"#utility.yul\":1080:1081   */\n      0x00\n        /* \"#utility.yul\":1077:1078   */\n      dup1\n        /* \"#utility.yul\":1070:1082   */\n      revert\n        /* \"#utility.yul\":1217:1339   */\n    tag_33:\n        /* \"#utility.yul\":1290:1314   */\n      tag_49\n        /* \"#utility.yul\":1308:1313   */\n      dup2\n        /* \"#utility.yul\":1290:1314   */\n      tag_28\n      jump\t// in\n    tag_49:\n        /* \"#utility.yul\":1283:1288   */\n      dup2\n        /* \"#utility.yul\":1280:1315   */\n      eq\n        /* \"#utility.yul\":1270:1333   */\n      tag_50\n      jumpi\n        /* \"#utility.yul\":1329:1330   */\n      0x00\n        /* \"#utility.yul\":1326:1327   */\n      dup1\n        /* \"#utility.yul\":1319:1331   */\n      revert\n        /* \"#utility.yul\":1270:1333   */\n    tag_50:\n        /* \"#utility.yul\":1217:1339   */\n      pop\n      jump\t// out\n        /* \"#utility.yul\":1345:1488   */\n    tag_34:\n        /* \"#utility.yul\":1402:1407   */\n      0x00\n        /* \"#utility.yul\":1433:1439   */\n      dup2\n        /* \"#utility.yul\":1427:1440   */\n      mload\n        /* \"#utility.yul\":1418:1440   */\n      swap1\n      pop\n        /* \"#utility.yul\":1449:1482   */\n      tag_52\n        /* \"#utility.yul\":1476:1481   */\n      dup2\n        /* \"#utility.yul\":1449:1482   */\n      tag_33\n      jump\t// in\n    tag_52:\n        /* \"#utility.yul\":1345:1488   */\n      swap3\n      swap2\n      pop\n      pop\n      jump\t// out\n        /* \"#utility.yul\":1494:1845   */\n    tag_26:\n        /* \"#utility.yul\":1564:1570   */\n      0x00\n        /* \"#utility.yul\":1613:1615   */\n      0x20\n        /* \"#utility.yul\":1601:1610   */\n      dup3\n        /* \"#utility.yul\":1592:1599   */\n      dup5\n        /* \"#utility.yul\":1588:1611   */\n      sub\n        /* \"#utility.yul\":1584:1616   */\n      slt\n        /* \"#utility.yul\":1581:1700   */\n      iszero\n      tag_54\n      jumpi\n        /* \"#utility.yul\":1619:1698   */\n      tag_55\n      tag_31\n      jump\t// in\n    tag_55:\n        /* \"#utility.yul\":1581:1700   */\n    tag_54:\n        /* \"#utility.yul\":1739:1740   */\n      0x00\n        /* \"#utility.yul\":1764:1828   */\n      tag_56\n        /* \"#utility.yul\":1820:1827   */\n      dup5\n        /* \"#utility.yul\":1811:1817   */\n      dup3\n        /* \"#utility.yul\":1800:1809   */\n      dup6\n        /* \"#utility.yul\":1796:1818   */\n      add\n        /* \"#utility.yul\":1764:1828   */\n      tag_34\n      jump\t// in\n    tag_56:\n        /* \"#utility.yul\":1754:1828   */\n      swap2\n      pop\n        /* \"#utility.yul\":1710:1838   */\n      pop\n        /* \"#utility.yul\":1494:1845   */\n      swap3\n      swap2\n      pop\n      pop\n      jump\t// out\n\n    auxdata: 0xa2646970667358221220884f1b582da49cd9c1ca41023777ff8a511d7fde1dd020417ffe5323e8306fd664736f6c63430008120033\n}\n",
				"bytecode": {
					"linkReferences": {},
					"object": "608060405260016000556002600155600360025534801561001f57600080fd5b506102678061002f6000396000f3fe608060405234801561001057600080fd5b506004361061004c5760003560e01c8063446a45b71461005157806367e919b614610071578063b1048dd01461008f578063b306fda7146100ad575b600080fd5b6100596100cb565b60405161006893929190610181565b60405180910390f35b6100796100e3565b60405161008691906101b8565b60405180910390f35b6100976100e9565b6040516100a491906101b8565b60405180910390f35b6100b561015f565b6040516100c291906101b8565b60405180910390f35b60008060008054600154600254925092509250909192565b60005481565b60003073ffffffffffffffffffffffffffffffffffffffff1663b306fda76040518163ffffffff1660e01b8152600401602060405180830381865afa158015610136573d6000803e3d6000fd5b505050506040513d601f19601f8201168201806040525081019061015a9190610204565b905090565b60006002905090565b6000819050919050565b61017b81610168565b82525050565b60006060820190506101966000830186610172565b6101a36020830185610172565b6101b06040830184610172565b949350505050565b60006020820190506101cd6000830184610172565b92915050565b600080fd5b6101e181610168565b81146101ec57600080fd5b50565b6000815190506101fe816101d8565b92915050565b60006020828403121561021a576102196101d3565b5b6000610228848285016101ef565b9150509291505056fea2646970667358221220884f1b582da49cd9c1ca41023777ff8a511d7fde1dd020417ffe5323e8306fd664736f6c63430008120033",
					"opcodes": "PUSH1 0x80 PUSH1 0x40 MSTORE PUSH1 0x1 PUSH1 0x0 SSTORE PUSH1 0x2 PUSH1 0x1 SSTORE PUSH1 0x3 PUSH1 0x2 SSTORE CALLVALUE DUP1 ISZERO PUSH2 0x1F JUMPI PUSH1 0x0 DUP1 REVERT JUMPDEST POP PUSH2 0x267 DUP1 PUSH2 0x2F PUSH1 0x0 CODECOPY PUSH1 0x0 RETURN INVALID PUSH1 0x80 PUSH1 0x40 MSTORE CALLVALUE DUP1 ISZERO PUSH2 0x10 JUMPI PUSH1 0x0 DUP1 REVERT JUMPDEST POP PUSH1 0x4 CALLDATASIZE LT PUSH2 0x4C JUMPI PUSH1 0x0 CALLDATALOAD PUSH1 0xE0 SHR DUP1 PUSH4 0x446A45B7 EQ PUSH2 0x51 JUMPI DUP1 PUSH4 0x67E919B6 EQ PUSH2 0x71 JUMPI DUP1 PUSH4 0xB1048DD0 EQ PUSH2 0x8F JUMPI DUP1 PUSH4 0xB306FDA7 EQ PUSH2 0xAD JUMPI JUMPDEST PUSH1 0x0 DUP1 REVERT JUMPDEST PUSH2 0x59 PUSH2 0xCB JUMP JUMPDEST PUSH1 0x40 MLOAD PUSH2 0x68 SWAP4 SWAP3 SWAP2 SWAP1 PUSH2 0x181 JUMP JUMPDEST PUSH1 0x40 MLOAD DUP1 SWAP2 SUB SWAP1 RETURN JUMPDEST PUSH2 0x79 PUSH2 0xE3 JUMP JUMPDEST PUSH1 0x40 MLOAD PUSH2 0x86 SWAP2 SWAP1 PUSH2 0x1B8 JUMP JUMPDEST PUSH1 0x40 MLOAD DUP1 SWAP2 SUB SWAP1 RETURN JUMPDEST PUSH2 0x97 PUSH2 0xE9 JUMP JUMPDEST PUSH1 0x40 MLOAD PUSH2 0xA4 SWAP2 SWAP1 PUSH2 0x1B8 JUMP JUMPDEST PUSH1 0x40 MLOAD DUP1 SWAP2 SUB SWAP1 RETURN JUMPDEST PUSH2 0xB5 PUSH2 0x15F JUMP JUMPDEST PUSH1 0x40 MLOAD PUSH2 0xC2 SWAP2 SWAP1 PUSH2 0x1B8 JUMP JUMPDEST PUSH1 0x40 MLOAD DUP1 SWAP2 SUB SWAP1 RETURN JUMPDEST PUSH1 0x0 DUP1 PUSH1 0x0 DUP1 SLOAD PUSH1 0x1 SLOAD PUSH1 0x2 SLOAD SWAP3 POP SWAP3 POP SWAP3 POP SWAP1 SWAP2 SWAP3 JUMP JUMPDEST PUSH1 0x0 SLOAD DUP2 JUMP JUMPDEST PUSH1 0x0 ADDRESS PUSH20 0xFFFFFFFFFFFFFFFFFFFFFFFFFFFFFFFFFFFFFFFF AND PUSH4 0xB306FDA7 PUSH1 0x40 MLOAD DUP2 PUSH4 0xFFFFFFFF AND PUSH1 0xE0 SHL DUP2 MSTORE PUSH1 0x4 ADD PUSH1 0x20 PUSH1 0x40 MLOAD DUP1 DUP4 SUB DUP2 DUP7 GAS STATICCALL ISZERO DUP1 ISZERO PUSH2 0x136 JUMPI RETURNDATASIZE PUSH1 0x0 DUP1 RETURNDATACOPY RETURNDATASIZE PUSH1 0x0 REVERT JUMPDEST POP POP POP POP PUSH1 0x40 MLOAD RETURNDATASIZE PUSH1 0x1F NOT PUSH1 0x1F DUP3 ADD AND DUP3 ADD DUP1 PUSH1 0x40 MSTORE POP DUP2 ADD SWAP1 PUSH2 0x15A SWAP2 SWAP1 PUSH2 0x204 JUMP JUMPDEST SWAP1 POP SWAP1 JUMP JUMPDEST PUSH1 0x0 PUSH1 0x2 SWAP1 POP SWAP1 JUMP JUMPDEST PUSH1 0x0 DUP2 SWAP1 POP SWAP2 SWAP1 POP JUMP JUMPDEST PUSH2 0x17B DUP2 PUSH2 0x168 JUMP JUMPDEST DUP3 MSTORE POP POP JUMP JUMPDEST PUSH1 0x0 PUSH1 0x60 DUP3 ADD SWAP1 POP PUSH2 0x196 PUSH1 0x0 DUP4 ADD DUP7 PUSH2 0x172 JUMP JUMPDEST PUSH2 0x1A3 PUSH1 0x20 DUP4 ADD DUP6 PUSH2 0x172 JUMP JUMPDEST PUSH2 0x1B0 PUSH1 0x40 DUP4 ADD DUP5 PUSH2 0x172 JUMP JUMPDEST SWAP5 SWAP4 POP POP POP POP JUMP JUMPDEST PUSH1 0x0 PUSH1 0x20 DUP3 ADD SWAP1 POP PUSH2 0x1CD PUSH1 0x0 DUP4 ADD DUP5 PUSH2 0x172 JUMP JUMPDEST SWAP3 SWAP2 POP POP JUMP JUMPDEST PUSH1 0x0 DUP1 REVERT JUMPDEST PUSH2 0x1E1 DUP2 PUSH2 0x168 JUMP JUMPDEST DUP2 EQ PUSH2 0x1EC JUMPI PUSH1 0x0 DUP1 REVERT JUMPDEST POP JUMP JUMPDEST PUSH1 0x0 DUP2 MLOAD SWAP1 POP PUSH2 0x1FE DUP2 PUSH2 0x1D8 JUMP JUMPDEST SWAP3 SWAP2 POP POP JUMP JUMPDEST PUSH1 0x0 PUSH1 0x20 DUP3 DUP5 SUB SLT ISZERO PUSH2 0x21A JUMPI PUSH2 0x219 PUSH2 0x1D3 JUMP JUMPDEST JUMPDEST PUSH1 0x0 PUSH2 0x228 DUP5 DUP3 DUP6 ADD PUSH2 0x1EF JUMP JUMPDEST SWAP2 POP POP SWAP3 SWAP2 POP POP JUMP INVALID LOG2 PUSH5 0x6970667358 0x22 SLT KECCAK256 DUP9 0x4F SHL PC 0x2D LOG4 SWAP13 0xD9 0xC1 0xCA COINBASE MUL CALLDATACOPY PUSH24 0xFF8A511D7FDE1DD020417FFE5323E8306FD664736F6C6343 STOP ADDMOD SLT STOP CALLER "
				},
				"gasEstimates": {
					"creation": {
						"codeDepositCost": "123000",
						"executionCost": "66489",
						"totalCost": "189489"
					},
					"external": {
						"fun1()": "infinite",
						"fun4()": "381",
						"fun5()": "infinite",
						"var1()": "2429"
					},
					"internal": {
						"fun2()": "infinite",
						"fun3()": "infinite"
					}
				},
				"methodIdentifiers": {
					"fun1()": "446a45b7",
					"fun4()": "b306fda7",
					"fun5()": "b1048dd0",
					"var1()": "67e919b6"
				}
			},
			"storageLayout": {
				"storage": [
					{
						"astId": 4,
						"contract": "sol/07.sol:exam",
						"label": "var1",
						"offset": 0,
						"slot": "0",
						"type": "t_uint256"
					},
					{
						"astId": 7,
						"contract": "sol/07.sol:exam",
						"label": "var2",
						"offset": 0,
						"slot": "1",
						"type": "t_uint256"
					},
					{
						"astId": 10,
						"contract": "sol/07.sol:exam",
						"label": "var3",
						"offset": 0,
						"slot": "2",
						"type": "t_uint256"
					}
				],
				"types": {
					"t_uint256": {
						"encoding": "inplace",
						"label": "uint256",
						"numberOfBytes": "32"
					}
				}
			},
			"userdoc": {
				"kind": "user",
				"methods": {},
				"version": 1
			}
		}
	}
}