{
	"sol/wikibook/02.sol": {
		"Ex2_2": {
			"abi": [
				{
					"inputs": [],
					"name": "assignment",
					"outputs": [
						{
							"internalType": "string",
							"name": "",
							"type": "string"
						},
						{
							"internalType": "uint256",
							"name": "",
							"type": "uint256"
						},
						{
							"internalType": "uint256",
							"name": "",
							"type": "uint256"
						},
						{
							"internalType": "uint256",
							"name": "",
							"type": "uint256"
						},
						{
							"internalType": "uint256",
							"name": "",
							"type": "uint256"
						},
						{
							"internalType": "uint256",
							"name": "",
							"type": "uint256"
						}
					],
					"stateMutability": "nonpayable",
					"type": "function"
				}
			],
			"devdoc": {
				"kind": "dev",
				"methods": {},
				"version": 1
			},
			"evm": {
				"assembly": "    /* \"sol/wikibook/02.sol\":73:612  contract Ex2_2 {... */\n  mstore(0x40, 0x80)\n    /* \"sol/wikibook/02.sol\":95:113  string a = 'Hello' */\n  mload(0x40)\n  dup1\n  0x40\n  add\n  0x40\n  mstore\n  dup1\n  0x05\n  dup2\n  mstore\n  0x20\n  add\n  0x48656c6c6f000000000000000000000000000000000000000000000000000000\n  dup2\n  mstore\n  pop\n  0x00\n  swap1\n  dup2\n  tag_1\n  swap2\n  swap1\n  tag_2\n  jump\t// in\ntag_1:\n  pop\n    /* \"sol/wikibook/02.sol\":129:130  5 */\n  0x05\n    /* \"sol/wikibook/02.sol\":120:130  uint b = 5 */\n  0x01\n  sstore\n    /* \"sol/wikibook/02.sol\":146:147  5 */\n  0x05\n    /* \"sol/wikibook/02.sol\":137:147  uint c = 5 */\n  0x02\n  sstore\n    /* \"sol/wikibook/02.sol\":163:164  5 */\n  0x05\n    /* \"sol/wikibook/02.sol\":154:164  uint d = 5 */\n  0x03\n  sstore\n    /* \"sol/wikibook/02.sol\":180:181  5 */\n  0x05\n    /* \"sol/wikibook/02.sol\":171:181  uint e = 5 */\n  0x04\n  sstore\n    /* \"sol/wikibook/02.sol\":197:198  5 */\n  0x05\n    /* \"sol/wikibook/02.sol\":188:198  uint f = 5 */\n  dup1\n  sstore\n    /* \"sol/wikibook/02.sol\":73:612  contract Ex2_2 {... */\n  callvalue\n  dup1\n  iszero\n  tag_3\n  jumpi\n  0x00\n  dup1\n  revert\ntag_3:\n  pop\n  jump(tag_4)\n    /* \"#utility.yul\":7:106   */\ntag_5:\n    /* \"#utility.yul\":59:65   */\n  0x00\n    /* \"#utility.yul\":93:98   */\n  dup2\n    /* \"#utility.yul\":87:99   */\n  mload\n    /* \"#utility.yul\":77:99   */\n  swap1\n  pop\n    /* \"#utility.yul\":7:106   */\n  swap2\n  swap1\n  pop\n  jump\t// out\n    /* \"#utility.yul\":112:292   */\ntag_6:\n    /* \"#utility.yul\":160:237   */\n  0x4e487b7100000000000000000000000000000000000000000000000000000000\n    /* \"#utility.yul\":157:158   */\n  0x00\n    /* \"#utility.yul\":150:238   */\n  mstore\n    /* \"#utility.yul\":257:261   */\n  0x41\n    /* \"#utility.yul\":254:255   */\n  0x04\n    /* \"#utility.yul\":247:262   */\n  mstore\n    /* \"#utility.yul\":281:285   */\n  0x24\n    /* \"#utility.yul\":278:279   */\n  0x00\n    /* \"#utility.yul\":271:286   */\n  revert\n    /* \"#utility.yul\":298:478   */\ntag_7:\n    /* \"#utility.yul\":346:423   */\n  0x4e487b7100000000000000000000000000000000000000000000000000000000\n    /* \"#utility.yul\":343:344   */\n  0x00\n    /* \"#utility.yul\":336:424   */\n  mstore\n    /* \"#utility.yul\":443:447   */\n  0x22\n    /* \"#utility.yul\":440:441   */\n  0x04\n    /* \"#utility.yul\":433:448   */\n  mstore\n    /* \"#utility.yul\":467:471   */\n  0x24\n    /* \"#utility.yul\":464:465   */\n  0x00\n    /* \"#utility.yul\":457:472   */\n  revert\n    /* \"#utility.yul\":484:804   */\ntag_8:\n    /* \"#utility.yul\":528:534   */\n  0x00\n    /* \"#utility.yul\":565:566   */\n  0x02\n    /* \"#utility.yul\":559:563   */\n  dup3\n    /* \"#utility.yul\":555:567   */\n  div\n    /* \"#utility.yul\":545:567   */\n  swap1\n  pop\n    /* \"#utility.yul\":612:613   */\n  0x01\n    /* \"#utility.yul\":606:610   */\n  dup3\n    /* \"#utility.yul\":602:614   */\n  and\n    /* \"#utility.yul\":633:651   */\n  dup1\n    /* \"#utility.yul\":623:704   */\n  tag_30\n  jumpi\n    /* \"#utility.yul\":689:693   */\n  0x7f\n    /* \"#utility.yul\":681:687   */\n  dup3\n    /* \"#utility.yul\":677:694   */\n  and\n    /* \"#utility.yul\":667:694   */\n  swap2\n  pop\n    /* \"#utility.yul\":623:704   */\ntag_30:\n    /* \"#utility.yul\":751:753   */\n  0x20\n    /* \"#utility.yul\":743:749   */\n  dup3\n    /* \"#utility.yul\":740:754   */\n  lt\n    /* \"#utility.yul\":720:738   */\n  dup2\n    /* \"#utility.yul\":717:755   */\n  sub\n    /* \"#utility.yul\":714:798   */\n  tag_31\n  jumpi\n    /* \"#utility.yul\":770:788   */\n  tag_32\n  tag_7\n  jump\t// in\ntag_32:\n    /* \"#utility.yul\":714:798   */\ntag_31:\n    /* \"#utility.yul\":535:804   */\n  pop\n    /* \"#utility.yul\":484:804   */\n  swap2\n  swap1\n  pop\n  jump\t// out\n    /* \"#utility.yul\":810:951   */\ntag_9:\n    /* \"#utility.yul\":859:863   */\n  0x00\n    /* \"#utility.yul\":882:885   */\n  dup2\n    /* \"#utility.yul\":874:885   */\n  swap1\n  pop\n    /* \"#utility.yul\":905:908   */\n  dup2\n    /* \"#utility.yul\":902:903   */\n  0x00\n    /* \"#utility.yul\":895:909   */\n  mstore\n    /* \"#utility.yul\":939:943   */\n  0x20\n    /* \"#utility.yul\":936:937   */\n  0x00\n    /* \"#utility.yul\":926:944   */\n  keccak256\n    /* \"#utility.yul\":918:944   */\n  swap1\n  pop\n    /* \"#utility.yul\":810:951   */\n  swap2\n  swap1\n  pop\n  jump\t// out\n    /* \"#utility.yul\":957:1050   */\ntag_10:\n    /* \"#utility.yul\":994:1000   */\n  0x00\n    /* \"#utility.yul\":1041:1043   */\n  0x20\n    /* \"#utility.yul\":1036:1038   */\n  0x1f\n    /* \"#utility.yul\":1029:1034   */\n  dup4\n    /* \"#utility.yul\":1025:1039   */\n  add\n    /* \"#utility.yul\":1021:1044   */\n  div\n    /* \"#utility.yul\":1011:1044   */\n  swap1\n  pop\n    /* \"#utility.yul\":957:1050   */\n  swap2\n  swap1\n  pop\n  jump\t// out\n    /* \"#utility.yul\":1056:1163   */\ntag_11:\n    /* \"#utility.yul\":1100:1108   */\n  0x00\n    /* \"#utility.yul\":1150:1155   */\n  dup3\n    /* \"#utility.yul\":1144:1148   */\n  dup3\n    /* \"#utility.yul\":1140:1156   */\n  shl\n    /* \"#utility.yul\":1119:1156   */\n  swap1\n  pop\n    /* \"#utility.yul\":1056:1163   */\n  swap3\n  swap2\n  pop\n  pop\n  jump\t// out\n    /* \"#utility.yul\":1169:1562   */\ntag_12:\n    /* \"#utility.yul\":1238:1244   */\n  0x00\n    /* \"#utility.yul\":1288:1289   */\n  0x08\n    /* \"#utility.yul\":1276:1286   */\n  dup4\n    /* \"#utility.yul\":1272:1290   */\n  mul\n    /* \"#utility.yul\":1311:1408   */\n  tag_37\n    /* \"#utility.yul\":1341:1407   */\n  0xffffffffffffffffffffffffffffffffffffffffffffffffffffffffffffffff\n    /* \"#utility.yul\":1330:1339   */\n  dup3\n    /* \"#utility.yul\":1311:1408   */\n  tag_11\n  jump\t// in\ntag_37:\n    /* \"#utility.yul\":1429:1468   */\n  tag_38\n    /* \"#utility.yul\":1459:1467   */\n  dup7\n    /* \"#utility.yul\":1448:1457   */\n  dup4\n    /* \"#utility.yul\":1429:1468   */\n  tag_11\n  jump\t// in\ntag_38:\n    /* \"#utility.yul\":1417:1468   */\n  swap6\n  pop\n    /* \"#utility.yul\":1501:1505   */\n  dup1\n    /* \"#utility.yul\":1497:1506   */\n  not\n    /* \"#utility.yul\":1490:1495   */\n  dup5\n    /* \"#utility.yul\":1486:1507   */\n  and\n    /* \"#utility.yul\":1477:1507   */\n  swap4\n  pop\n    /* \"#utility.yul\":1550:1554   */\n  dup1\n    /* \"#utility.yul\":1540:1548   */\n  dup7\n    /* \"#utility.yul\":1536:1555   */\n  and\n    /* \"#utility.yul\":1529:1534   */\n  dup5\n    /* \"#utility.yul\":1526:1556   */\n  or\n    /* \"#utility.yul\":1516:1556   */\n  swap3\n  pop\n    /* \"#utility.yul\":1245:1562   */\n  pop\n  pop\n    /* \"#utility.yul\":1169:1562   */\n  swap4\n  swap3\n  pop\n  pop\n  pop\n  jump\t// out\n    /* \"#utility.yul\":1568:1645   */\ntag_13:\n    /* \"#utility.yul\":1605:1612   */\n  0x00\n    /* \"#utility.yul\":1634:1639   */\n  dup2\n    /* \"#utility.yul\":1623:1639   */\n  swap1\n  pop\n    /* \"#utility.yul\":1568:1645   */\n  swap2\n  swap1\n  pop\n  jump\t// out\n    /* \"#utility.yul\":1651:1711   */\ntag_14:\n    /* \"#utility.yul\":1679:1682   */\n  0x00\n    /* \"#utility.yul\":1700:1705   */\n  dup2\n    /* \"#utility.yul\":1693:1705   */\n  swap1\n  pop\n    /* \"#utility.yul\":1651:1711   */\n  swap2\n  swap1\n  pop\n  jump\t// out\n    /* \"#utility.yul\":1717:1859   */\ntag_15:\n    /* \"#utility.yul\":1767:1776   */\n  0x00\n    /* \"#utility.yul\":1800:1853   */\n  tag_42\n    /* \"#utility.yul\":1818:1852   */\n  tag_43\n    /* \"#utility.yul\":1827:1851   */\n  tag_44\n    /* \"#utility.yul\":1845:1850   */\n  dup5\n    /* \"#utility.yul\":1827:1851   */\n  tag_13\n  jump\t// in\ntag_44:\n    /* \"#utility.yul\":1818:1852   */\n  tag_14\n  jump\t// in\ntag_43:\n    /* \"#utility.yul\":1800:1853   */\n  tag_13\n  jump\t// in\ntag_42:\n    /* \"#utility.yul\":1787:1853   */\n  swap1\n  pop\n    /* \"#utility.yul\":1717:1859   */\n  swap2\n  swap1\n  pop\n  jump\t// out\n    /* \"#utility.yul\":1865:1940   */\ntag_16:\n    /* \"#utility.yul\":1908:1911   */\n  0x00\n    /* \"#utility.yul\":1929:1934   */\n  dup2\n    /* \"#utility.yul\":1922:1934   */\n  swap1\n  pop\n    /* \"#utility.yul\":1865:1940   */\n  swap2\n  swap1\n  pop\n  jump\t// out\n    /* \"#utility.yul\":1946:2215   */\ntag_17:\n    /* \"#utility.yul\":2056:2095   */\n  tag_47\n    /* \"#utility.yul\":2087:2094   */\n  dup4\n    /* \"#utility.yul\":2056:2095   */\n  tag_15\n  jump\t// in\ntag_47:\n    /* \"#utility.yul\":2117:2208   */\n  tag_48\n    /* \"#utility.yul\":2166:2207   */\n  tag_49\n    /* \"#utility.yul\":2190:2206   */\n  dup3\n    /* \"#utility.yul\":2166:2207   */\n  tag_16\n  jump\t// in\ntag_49:\n    /* \"#utility.yul\":2158:2164   */\n  dup5\n    /* \"#utility.yul\":2151:2155   */\n  dup5\n    /* \"#utility.yul\":2145:2156   */\n  sload\n    /* \"#utility.yul\":2117:2208   */\n  tag_12\n  jump\t// in\ntag_48:\n    /* \"#utility.yul\":2111:2115   */\n  dup3\n    /* \"#utility.yul\":2104:2209   */\n  sstore\n    /* \"#utility.yul\":2022:2215   */\n  pop\n    /* \"#utility.yul\":1946:2215   */\n  pop\n  pop\n  pop\n  jump\t// out\n    /* \"#utility.yul\":2221:2294   */\ntag_18:\n    /* \"#utility.yul\":2266:2269   */\n  0x00\n    /* \"#utility.yul\":2221:2294   */\n  swap1\n  jump\t// out\n    /* \"#utility.yul\":2300:2489   */\ntag_19:\n    /* \"#utility.yul\":2377:2409   */\n  tag_52\n  tag_18\n  jump\t// in\ntag_52:\n    /* \"#utility.yul\":2418:2483   */\n  tag_53\n    /* \"#utility.yul\":2476:2482   */\n  dup2\n    /* \"#utility.yul\":2468:2474   */\n  dup5\n    /* \"#utility.yul\":2462:2466   */\n  dup5\n    /* \"#utility.yul\":2418:2483   */\n  tag_17\n  jump\t// in\ntag_53:\n    /* \"#utility.yul\":2353:2489   */\n  pop\n    /* \"#utility.yul\":2300:2489   */\n  pop\n  pop\n  jump\t// out\n    /* \"#utility.yul\":2495:2681   */\ntag_20:\n    /* \"#utility.yul\":2555:2675   */\ntag_55:\n    /* \"#utility.yul\":2572:2575   */\n  dup2\n    /* \"#utility.yul\":2565:2570   */\n  dup2\n    /* \"#utility.yul\":2562:2576   */\n  lt\n    /* \"#utility.yul\":2555:2675   */\n  iszero\n  tag_57\n  jumpi\n    /* \"#utility.yul\":2626:2665   */\n  tag_58\n    /* \"#utility.yul\":2663:2664   */\n  0x00\n    /* \"#utility.yul\":2656:2661   */\n  dup3\n    /* \"#utility.yul\":2626:2665   */\n  tag_19\n  jump\t// in\ntag_58:\n    /* \"#utility.yul\":2599:2600   */\n  0x01\n    /* \"#utility.yul\":2592:2597   */\n  dup2\n    /* \"#utility.yul\":2588:2601   */\n  add\n    /* \"#utility.yul\":2579:2601   */\n  swap1\n  pop\n    /* \"#utility.yul\":2555:2675   */\n  jump(tag_55)\ntag_57:\n    /* \"#utility.yul\":2495:2681   */\n  pop\n  pop\n  jump\t// out\n    /* \"#utility.yul\":2687:3230   */\ntag_21:\n    /* \"#utility.yul\":2788:2790   */\n  0x1f\n    /* \"#utility.yul\":2783:2786   */\n  dup3\n    /* \"#utility.yul\":2780:2791   */\n  gt\n    /* \"#utility.yul\":2777:3223   */\n  iszero\n  tag_60\n  jumpi\n    /* \"#utility.yul\":2822:2860   */\n  tag_61\n    /* \"#utility.yul\":2854:2859   */\n  dup2\n    /* \"#utility.yul\":2822:2860   */\n  tag_9\n  jump\t// in\ntag_61:\n    /* \"#utility.yul\":2906:2935   */\n  tag_62\n    /* \"#utility.yul\":2924:2934   */\n  dup5\n    /* \"#utility.yul\":2906:2935   */\n  tag_10\n  jump\t// in\ntag_62:\n    /* \"#utility.yul\":2896:2904   */\n  dup2\n    /* \"#utility.yul\":2892:2936   */\n  add\n    /* \"#utility.yul\":3089:3091   */\n  0x20\n    /* \"#utility.yul\":3077:3087   */\n  dup6\n    /* \"#utility.yul\":3074:3092   */\n  lt\n    /* \"#utility.yul\":3071:3120   */\n  iszero\n  tag_63\n  jumpi\n    /* \"#utility.yul\":3110:3118   */\n  dup2\n    /* \"#utility.yul\":3095:3118   */\n  swap1\n  pop\n    /* \"#utility.yul\":3071:3120   */\ntag_63:\n    /* \"#utility.yul\":3133:3213   */\n  tag_64\n    /* \"#utility.yul\":3189:3211   */\n  tag_65\n    /* \"#utility.yul\":3207:3210   */\n  dup6\n    /* \"#utility.yul\":3189:3211   */\n  tag_10\n  jump\t// in\ntag_65:\n    /* \"#utility.yul\":3179:3187   */\n  dup4\n    /* \"#utility.yul\":3175:3212   */\n  add\n    /* \"#utility.yul\":3162:3173   */\n  dup3\n    /* \"#utility.yul\":3133:3213   */\n  tag_20\n  jump\t// in\ntag_64:\n    /* \"#utility.yul\":2792:3223   */\n  pop\n  pop\n    /* \"#utility.yul\":2777:3223   */\ntag_60:\n    /* \"#utility.yul\":2687:3230   */\n  pop\n  pop\n  pop\n  jump\t// out\n    /* \"#utility.yul\":3236:3353   */\ntag_22:\n    /* \"#utility.yul\":3290:3298   */\n  0x00\n    /* \"#utility.yul\":3340:3345   */\n  dup3\n    /* \"#utility.yul\":3334:3338   */\n  dup3\n    /* \"#utility.yul\":3330:3346   */\n  shr\n    /* \"#utility.yul\":3309:3346   */\n  swap1\n  pop\n    /* \"#utility.yul\":3236:3353   */\n  swap3\n  swap2\n  pop\n  pop\n  jump\t// out\n    /* \"#utility.yul\":3359:3528   */\ntag_23:\n    /* \"#utility.yul\":3403:3409   */\n  0x00\n    /* \"#utility.yul\":3436:3487   */\n  tag_68\n    /* \"#utility.yul\":3484:3485   */\n  0x00\n    /* \"#utility.yul\":3480:3486   */\n  not\n    /* \"#utility.yul\":3472:3477   */\n  dup5\n    /* \"#utility.yul\":3469:3470   */\n  0x08\n    /* \"#utility.yul\":3465:3478   */\n  mul\n    /* \"#utility.yul\":3436:3487   */\n  tag_22\n  jump\t// in\ntag_68:\n    /* \"#utility.yul\":3432:3488   */\n  not\n    /* \"#utility.yul\":3517:3521   */\n  dup1\n    /* \"#utility.yul\":3511:3515   */\n  dup4\n    /* \"#utility.yul\":3507:3522   */\n  and\n    /* \"#utility.yul\":3497:3522   */\n  swap2\n  pop\n    /* \"#utility.yul\":3410:3528   */\n  pop\n    /* \"#utility.yul\":3359:3528   */\n  swap3\n  swap2\n  pop\n  pop\n  jump\t// out\n    /* \"#utility.yul\":3533:3828   */\ntag_24:\n    /* \"#utility.yul\":3609:3613   */\n  0x00\n    /* \"#utility.yul\":3755:3784   */\n  tag_70\n    /* \"#utility.yul\":3780:3783   */\n  dup4\n    /* \"#utility.yul\":3774:3778   */\n  dup4\n    /* \"#utility.yul\":3755:3784   */\n  tag_23\n  jump\t// in\ntag_70:\n    /* \"#utility.yul\":3747:3784   */\n  swap2\n  pop\n    /* \"#utility.yul\":3817:3820   */\n  dup3\n    /* \"#utility.yul\":3814:3815   */\n  0x02\n    /* \"#utility.yul\":3810:3821   */\n  mul\n    /* \"#utility.yul\":3804:3808   */\n  dup3\n    /* \"#utility.yul\":3801:3822   */\n  or\n    /* \"#utility.yul\":3793:3822   */\n  swap1\n  pop\n    /* \"#utility.yul\":3533:3828   */\n  swap3\n  swap2\n  pop\n  pop\n  jump\t// out\n    /* \"#utility.yul\":3833:5228   */\ntag_2:\n    /* \"#utility.yul\":3950:3987   */\n  tag_72\n    /* \"#utility.yul\":3983:3986   */\n  dup3\n    /* \"#utility.yul\":3950:3987   */\n  tag_5\n  jump\t// in\ntag_72:\n    /* \"#utility.yul\":4052:4070   */\n  0xffffffffffffffff\n    /* \"#utility.yul\":4044:4050   */\n  dup2\n    /* \"#utility.yul\":4041:4071   */\n  gt\n    /* \"#utility.yul\":4038:4094   */\n  iszero\n  tag_73\n  jumpi\n    /* \"#utility.yul\":4074:4092   */\n  tag_74\n  tag_6\n  jump\t// in\ntag_74:\n    /* \"#utility.yul\":4038:4094   */\ntag_73:\n    /* \"#utility.yul\":4118:4156   */\n  tag_75\n    /* \"#utility.yul\":4150:4154   */\n  dup3\n    /* \"#utility.yul\":4144:4155   */\n  sload\n    /* \"#utility.yul\":4118:4156   */\n  tag_8\n  jump\t// in\ntag_75:\n    /* \"#utility.yul\":4203:4270   */\n  tag_76\n    /* \"#utility.yul\":4263:4269   */\n  dup3\n    /* \"#utility.yul\":4255:4261   */\n  dup3\n    /* \"#utility.yul\":4249:4253   */\n  dup6\n    /* \"#utility.yul\":4203:4270   */\n  tag_21\n  jump\t// in\ntag_76:\n    /* \"#utility.yul\":4297:4298   */\n  0x00\n    /* \"#utility.yul\":4321:4325   */\n  0x20\n    /* \"#utility.yul\":4308:4325   */\n  swap1\n  pop\n    /* \"#utility.yul\":4353:4355   */\n  0x1f\n    /* \"#utility.yul\":4345:4351   */\n  dup4\n    /* \"#utility.yul\":4342:4356   */\n  gt\n    /* \"#utility.yul\":4370:4371   */\n  0x01\n    /* \"#utility.yul\":4365:4983   */\n  dup2\n  eq\n  tag_78\n  jumpi\n    /* \"#utility.yul\":5027:5028   */\n  0x00\n    /* \"#utility.yul\":5044:5050   */\n  dup5\n    /* \"#utility.yul\":5041:5118   */\n  iszero\n  tag_79\n  jumpi\n    /* \"#utility.yul\":5093:5102   */\n  dup3\n    /* \"#utility.yul\":5088:5091   */\n  dup8\n    /* \"#utility.yul\":5084:5103   */\n  add\n    /* \"#utility.yul\":5078:5104   */\n  mload\n    /* \"#utility.yul\":5069:5104   */\n  swap1\n  pop\n    /* \"#utility.yul\":5041:5118   */\ntag_79:\n    /* \"#utility.yul\":5144:5211   */\n  tag_80\n    /* \"#utility.yul\":5204:5210   */\n  dup6\n    /* \"#utility.yul\":5197:5202   */\n  dup3\n    /* \"#utility.yul\":5144:5211   */\n  tag_24\n  jump\t// in\ntag_80:\n    /* \"#utility.yul\":5138:5142   */\n  dup7\n    /* \"#utility.yul\":5131:5212   */\n  sstore\n    /* \"#utility.yul\":5000:5222   */\n  pop\n    /* \"#utility.yul\":4335:5222   */\n  jump(tag_77)\n    /* \"#utility.yul\":4365:4983   */\ntag_78:\n    /* \"#utility.yul\":4417:4421   */\n  0x1f\n    /* \"#utility.yul\":4413:4422   */\n  not\n    /* \"#utility.yul\":4405:4411   */\n  dup5\n    /* \"#utility.yul\":4401:4423   */\n  and\n    /* \"#utility.yul\":4451:4488   */\n  tag_81\n    /* \"#utility.yul\":4483:4487   */\n  dup7\n    /* \"#utility.yul\":4451:4488   */\n  tag_9\n  jump\t// in\ntag_81:\n    /* \"#utility.yul\":4510:4511   */\n  0x00\n    /* \"#utility.yul\":4524:4732   */\ntag_82:\n    /* \"#utility.yul\":4538:4545   */\n  dup3\n    /* \"#utility.yul\":4535:4536   */\n  dup2\n    /* \"#utility.yul\":4532:4546   */\n  lt\n    /* \"#utility.yul\":4524:4732   */\n  iszero\n  tag_84\n  jumpi\n    /* \"#utility.yul\":4617:4626   */\n  dup5\n    /* \"#utility.yul\":4612:4615   */\n  dup10\n    /* \"#utility.yul\":4608:4627   */\n  add\n    /* \"#utility.yul\":4602:4628   */\n  mload\n    /* \"#utility.yul\":4594:4600   */\n  dup3\n    /* \"#utility.yul\":4587:4629   */\n  sstore\n    /* \"#utility.yul\":4668:4669   */\n  0x01\n    /* \"#utility.yul\":4660:4666   */\n  dup3\n    /* \"#utility.yul\":4656:4670   */\n  add\n    /* \"#utility.yul\":4646:4670   */\n  swap2\n  pop\n    /* \"#utility.yul\":4715:4717   */\n  0x20\n    /* \"#utility.yul\":4704:4713   */\n  dup6\n    /* \"#utility.yul\":4700:4718   */\n  add\n    /* \"#utility.yul\":4687:4718   */\n  swap5\n  pop\n    /* \"#utility.yul\":4561:4565   */\n  0x20\n    /* \"#utility.yul\":4558:4559   */\n  dup2\n    /* \"#utility.yul\":4554:4566   */\n  add\n    /* \"#utility.yul\":4549:4566   */\n  swap1\n  pop\n    /* \"#utility.yul\":4524:4732   */\n  jump(tag_82)\ntag_84:\n    /* \"#utility.yul\":4760:4766   */\n  dup7\n    /* \"#utility.yul\":4751:4758   */\n  dup4\n    /* \"#utility.yul\":4748:4767   */\n  lt\n    /* \"#utility.yul\":4745:4924   */\n  iszero\n  tag_85\n  jumpi\n    /* \"#utility.yul\":4818:4827   */\n  dup5\n    /* \"#utility.yul\":4813:4816   */\n  dup10\n    /* \"#utility.yul\":4809:4828   */\n  add\n    /* \"#utility.yul\":4803:4829   */\n  mload\n    /* \"#utility.yul\":4861:4909   */\n  tag_86\n    /* \"#utility.yul\":4903:4907   */\n  0x1f\n    /* \"#utility.yul\":4895:4901   */\n  dup10\n    /* \"#utility.yul\":4891:4908   */\n  and\n    /* \"#utility.yul\":4880:4889   */\n  dup3\n    /* \"#utility.yul\":4861:4909   */\n  tag_23\n  jump\t// in\ntag_86:\n    /* \"#utility.yul\":4853:4859   */\n  dup4\n    /* \"#utility.yul\":4846:4910   */\n  sstore\n    /* \"#utility.yul\":4768:4924   */\n  pop\n    /* \"#utility.yul\":4745:4924   */\ntag_85:\n    /* \"#utility.yul\":4970:4971   */\n  0x01\n    /* \"#utility.yul\":4966:4967   */\n  0x02\n    /* \"#utility.yul\":4958:4964   */\n  dup9\n    /* \"#utility.yul\":4954:4968   */\n  mul\n    /* \"#utility.yul\":4950:4972   */\n  add\n    /* \"#utility.yul\":4944:4948   */\n  dup9\n    /* \"#utility.yul\":4937:4973   */\n  sstore\n    /* \"#utility.yul\":4372:4983   */\n  pop\n  pop\n  pop\n    /* \"#utility.yul\":4335:5222   */\ntag_77:\n  pop\n    /* \"#utility.yul\":3925:5228   */\n  pop\n  pop\n  pop\n    /* \"#utility.yul\":3833:5228   */\n  pop\n  pop\n  jump\t// out\n    /* \"sol/wikibook/02.sol\":73:612  contract Ex2_2 {... */\ntag_4:\n  dataSize(sub_0)\n  dup1\n  dataOffset(sub_0)\n  0x00\n  codecopy\n  0x00\n  return\nstop\n\nsub_0: assembly {\n        /* \"sol/wikibook/02.sol\":73:612  contract Ex2_2 {... */\n      mstore(0x40, 0x80)\n      callvalue\n      dup1\n      iszero\n      tag_1\n      jumpi\n      0x00\n      dup1\n      revert\n    tag_1:\n      pop\n      jumpi(tag_2, lt(calldatasize, 0x04))\n      shr(0xe0, calldataload(0x00))\n      dup1\n      0x71ca2ecf\n      eq\n      tag_3\n      jumpi\n    tag_2:\n      0x00\n      dup1\n      revert\n        /* \"sol/wikibook/02.sol\":207:609  function assignment() public returns(string memory, uint, uint, uint, uint, uint) {... */\n    tag_3:\n      tag_4\n      tag_5\n      jump\t// in\n    tag_4:\n      mload(0x40)\n      tag_6\n      swap7\n      swap6\n      swap5\n      swap4\n      swap3\n      swap2\n      swap1\n      tag_7\n      jump\t// in\n    tag_6:\n      mload(0x40)\n      dup1\n      swap2\n      sub\n      swap1\n      return\n    tag_5:\n        /* \"sol/wikibook/02.sol\":244:257  string memory */\n      0x60\n        /* \"sol/wikibook/02.sol\":259:263  uint */\n      0x00\n        /* \"sol/wikibook/02.sol\":265:269  uint */\n      dup1\n        /* \"sol/wikibook/02.sol\":271:275  uint */\n      0x00\n        /* \"sol/wikibook/02.sol\":277:281  uint */\n      dup1\n        /* \"sol/wikibook/02.sol\":283:287  uint */\n      0x00\n        /* \"sol/wikibook/02.sol\":310:330  a = 'Hello Solidity' */\n      mload(0x40)\n      dup1\n      0x40\n      add\n      0x40\n      mstore\n      dup1\n      0x0e\n      dup2\n      mstore\n      0x20\n      add\n      0x48656c6c6f20536f6c6964697479000000000000000000000000000000000000\n      dup2\n      mstore\n      pop\n        /* \"sol/wikibook/02.sol\":310:311  a */\n      0x00\n        /* \"sol/wikibook/02.sol\":310:330  a = 'Hello Solidity' */\n      swap1\n      dup2\n      tag_9\n      swap2\n      swap1\n      tag_10\n      jump\t// in\n    tag_9:\n      pop\n        /* \"sol/wikibook/02.sol\":347:348  2 */\n      0x02\n        /* \"sol/wikibook/02.sol\":342:343  b */\n      0x01\n      0x00\n        /* \"sol/wikibook/02.sol\":342:348  b += 2 */\n      dup3\n      dup3\n      sload\n      tag_11\n      swap2\n      swap1\n      tag_12\n      jump\t// in\n    tag_11:\n      swap3\n      pop\n      pop\n      dup2\n      swap1\n      sstore\n      pop\n        /* \"sol/wikibook/02.sol\":378:379  2 */\n      0x02\n        /* \"sol/wikibook/02.sol\":373:374  c */\n      dup1\n      0x00\n        /* \"sol/wikibook/02.sol\":373:379  c -= 2 */\n      dup3\n      dup3\n      sload\n      tag_13\n      swap2\n      swap1\n      tag_14\n      jump\t// in\n    tag_13:\n      swap3\n      pop\n      pop\n      dup2\n      swap1\n      sstore\n      pop\n        /* \"sol/wikibook/02.sol\":408:409  2 */\n      0x02\n        /* \"sol/wikibook/02.sol\":403:404  d */\n      0x03\n      0x00\n        /* \"sol/wikibook/02.sol\":403:409  d *= 2 */\n      dup3\n      dup3\n      sload\n      tag_15\n      swap2\n      swap1\n      tag_16\n      jump\t// in\n    tag_15:\n      swap3\n      pop\n      pop\n      dup2\n      swap1\n      sstore\n      pop\n        /* \"sol/wikibook/02.sol\":438:439  2 */\n      0x02\n        /* \"sol/wikibook/02.sol\":433:434  e */\n      0x04\n      0x00\n        /* \"sol/wikibook/02.sol\":433:439  e /= 2 */\n      dup3\n      dup3\n      sload\n      tag_17\n      swap2\n      swap1\n      tag_18\n      jump\t// in\n    tag_17:\n      swap3\n      pop\n      pop\n      dup2\n      swap1\n      sstore\n      pop\n        /* \"sol/wikibook/02.sol\":468:469  2 */\n      0x02\n        /* \"sol/wikibook/02.sol\":463:464  f */\n      0x05\n      0x00\n        /* \"sol/wikibook/02.sol\":463:469  f %= 2 */\n      dup3\n      dup3\n      sload\n      tag_19\n      swap2\n      swap1\n      tag_20\n      jump\t// in\n    tag_19:\n      swap3\n      pop\n      pop\n      dup2\n      swap1\n      sstore\n      pop\n        /* \"sol/wikibook/02.sol\":504:505  a */\n      0x00\n        /* \"sol/wikibook/02.sol\":507:508  b */\n      sload(0x01)\n        /* \"sol/wikibook/02.sol\":510:511  c */\n      sload(0x02)\n        /* \"sol/wikibook/02.sol\":513:514  d */\n      sload(0x03)\n        /* \"sol/wikibook/02.sol\":516:517  e */\n      sload(0x04)\n        /* \"sol/wikibook/02.sol\":519:520  f */\n      sload(0x05)\n        /* \"sol/wikibook/02.sol\":497:521  return(a, b, c, d, e, f) */\n      dup6\n      dup1\n      sload\n      tag_21\n      swap1\n      tag_22\n      jump\t// in\n    tag_21:\n      dup1\n      0x1f\n      add\n      0x20\n      dup1\n      swap2\n      div\n      mul\n      0x20\n      add\n      mload(0x40)\n      swap1\n      dup2\n      add\n      0x40\n      mstore\n      dup1\n      swap3\n      swap2\n      swap1\n      dup2\n      dup2\n      mstore\n      0x20\n      add\n      dup3\n      dup1\n      sload\n      tag_23\n      swap1\n      tag_22\n      jump\t// in\n    tag_23:\n      dup1\n      iszero\n      tag_24\n      jumpi\n      dup1\n      0x1f\n      lt\n      tag_25\n      jumpi\n      0x0100\n      dup1\n      dup4\n      sload\n      div\n      mul\n      dup4\n      mstore\n      swap2\n      0x20\n      add\n      swap2\n      jump(tag_24)\n    tag_25:\n      dup3\n      add\n      swap2\n      swap1\n      0x00\n      mstore\n      keccak256(0x00, 0x20)\n      swap1\n    tag_26:\n      dup2\n      sload\n      dup2\n      mstore\n      swap1\n      0x01\n      add\n      swap1\n      0x20\n      add\n      dup1\n      dup4\n      gt\n      tag_26\n      jumpi\n      dup3\n      swap1\n      sub\n      0x1f\n      and\n      dup3\n      add\n      swap2\n    tag_24:\n      pop\n      pop\n      pop\n      pop\n      pop\n      swap6\n      pop\n      swap6\n      pop\n      swap6\n      pop\n      swap6\n      pop\n      swap6\n      pop\n      swap6\n      pop\n      swap6\n      pop\n        /* \"sol/wikibook/02.sol\":207:609  function assignment() public returns(string memory, uint, uint, uint, uint, uint) {... */\n      swap1\n      swap2\n      swap3\n      swap4\n      swap5\n      swap6\n      jump\t// out\n        /* \"#utility.yul\":7:106   */\n    tag_27:\n        /* \"#utility.yul\":59:65   */\n      0x00\n        /* \"#utility.yul\":93:98   */\n      dup2\n        /* \"#utility.yul\":87:99   */\n      mload\n        /* \"#utility.yul\":77:99   */\n      swap1\n      pop\n        /* \"#utility.yul\":7:106   */\n      swap2\n      swap1\n      pop\n      jump\t// out\n        /* \"#utility.yul\":112:281   */\n    tag_28:\n        /* \"#utility.yul\":196:207   */\n      0x00\n        /* \"#utility.yul\":230:236   */\n      dup3\n        /* \"#utility.yul\":225:228   */\n      dup3\n        /* \"#utility.yul\":218:237   */\n      mstore\n        /* \"#utility.yul\":270:274   */\n      0x20\n        /* \"#utility.yul\":265:268   */\n      dup3\n        /* \"#utility.yul\":261:275   */\n      add\n        /* \"#utility.yul\":246:275   */\n      swap1\n      pop\n        /* \"#utility.yul\":112:281   */\n      swap3\n      swap2\n      pop\n      pop\n      jump\t// out\n        /* \"#utility.yul\":287:533   */\n    tag_29:\n        /* \"#utility.yul\":368:369   */\n      0x00\n        /* \"#utility.yul\":378:491   */\n    tag_57:\n        /* \"#utility.yul\":392:398   */\n      dup4\n        /* \"#utility.yul\":389:390   */\n      dup2\n        /* \"#utility.yul\":386:399   */\n      lt\n        /* \"#utility.yul\":378:491   */\n      iszero\n      tag_59\n      jumpi\n        /* \"#utility.yul\":477:478   */\n      dup1\n        /* \"#utility.yul\":472:475   */\n      dup3\n        /* \"#utility.yul\":468:479   */\n      add\n        /* \"#utility.yul\":462:480   */\n      mload\n        /* \"#utility.yul\":458:459   */\n      dup2\n        /* \"#utility.yul\":453:456   */\n      dup5\n        /* \"#utility.yul\":449:460   */\n      add\n        /* \"#utility.yul\":442:481   */\n      mstore\n        /* \"#utility.yul\":414:416   */\n      0x20\n        /* \"#utility.yul\":411:412   */\n      dup2\n        /* \"#utility.yul\":407:417   */\n      add\n        /* \"#utility.yul\":402:417   */\n      swap1\n      pop\n        /* \"#utility.yul\":378:491   */\n      jump(tag_57)\n    tag_59:\n        /* \"#utility.yul\":525:526   */\n      0x00\n        /* \"#utility.yul\":516:522   */\n      dup5\n        /* \"#utility.yul\":511:514   */\n      dup5\n        /* \"#utility.yul\":507:523   */\n      add\n        /* \"#utility.yul\":500:527   */\n      mstore\n        /* \"#utility.yul\":349:533   */\n      pop\n        /* \"#utility.yul\":287:533   */\n      pop\n      pop\n      pop\n      jump\t// out\n        /* \"#utility.yul\":539:641   */\n    tag_30:\n        /* \"#utility.yul\":580:586   */\n      0x00\n        /* \"#utility.yul\":631:633   */\n      0x1f\n        /* \"#utility.yul\":627:634   */\n      not\n        /* \"#utility.yul\":622:624   */\n      0x1f\n        /* \"#utility.yul\":615:620   */\n      dup4\n        /* \"#utility.yul\":611:625   */\n      add\n        /* \"#utility.yul\":607:635   */\n      and\n        /* \"#utility.yul\":597:635   */\n      swap1\n      pop\n        /* \"#utility.yul\":539:641   */\n      swap2\n      swap1\n      pop\n      jump\t// out\n        /* \"#utility.yul\":647:1024   */\n    tag_31:\n        /* \"#utility.yul\":735:738   */\n      0x00\n        /* \"#utility.yul\":763:802   */\n      tag_62\n        /* \"#utility.yul\":796:801   */\n      dup3\n        /* \"#utility.yul\":763:802   */\n      tag_27\n      jump\t// in\n    tag_62:\n        /* \"#utility.yul\":818:889   */\n      tag_63\n        /* \"#utility.yul\":882:888   */\n      dup2\n        /* \"#utility.yul\":877:880   */\n      dup6\n        /* \"#utility.yul\":818:889   */\n      tag_28\n      jump\t// in\n    tag_63:\n        /* \"#utility.yul\":811:889   */\n      swap4\n      pop\n        /* \"#utility.yul\":898:963   */\n      tag_64\n        /* \"#utility.yul\":956:962   */\n      dup2\n        /* \"#utility.yul\":951:954   */\n      dup6\n        /* \"#utility.yul\":944:948   */\n      0x20\n        /* \"#utility.yul\":937:942   */\n      dup7\n        /* \"#utility.yul\":933:949   */\n      add\n        /* \"#utility.yul\":898:963   */\n      tag_29\n      jump\t// in\n    tag_64:\n        /* \"#utility.yul\":988:1017   */\n      tag_65\n        /* \"#utility.yul\":1010:1016   */\n      dup2\n        /* \"#utility.yul\":988:1017   */\n      tag_30\n      jump\t// in\n    tag_65:\n        /* \"#utility.yul\":983:986   */\n      dup5\n        /* \"#utility.yul\":979:1018   */\n      add\n        /* \"#utility.yul\":972:1018   */\n      swap2\n      pop\n        /* \"#utility.yul\":739:1024   */\n      pop\n        /* \"#utility.yul\":647:1024   */\n      swap3\n      swap2\n      pop\n      pop\n      jump\t// out\n        /* \"#utility.yul\":1030:1107   */\n    tag_32:\n        /* \"#utility.yul\":1067:1074   */\n      0x00\n        /* \"#utility.yul\":1096:1101   */\n      dup2\n        /* \"#utility.yul\":1085:1101   */\n      swap1\n      pop\n        /* \"#utility.yul\":1030:1107   */\n      swap2\n      swap1\n      pop\n      jump\t// out\n        /* \"#utility.yul\":1113:1231   */\n    tag_33:\n        /* \"#utility.yul\":1200:1224   */\n      tag_68\n        /* \"#utility.yul\":1218:1223   */\n      dup2\n        /* \"#utility.yul\":1200:1224   */\n      tag_32\n      jump\t// in\n    tag_68:\n        /* \"#utility.yul\":1195:1198   */\n      dup3\n        /* \"#utility.yul\":1188:1225   */\n      mstore\n        /* \"#utility.yul\":1113:1231   */\n      pop\n      pop\n      jump\t// out\n        /* \"#utility.yul\":1237:2103   */\n    tag_7:\n        /* \"#utility.yul\":1490:1494   */\n      0x00\n        /* \"#utility.yul\":1528:1531   */\n      0xc0\n        /* \"#utility.yul\":1517:1526   */\n      dup3\n        /* \"#utility.yul\":1513:1532   */\n      add\n        /* \"#utility.yul\":1505:1532   */\n      swap1\n      pop\n        /* \"#utility.yul\":1578:1587   */\n      dup2\n        /* \"#utility.yul\":1572:1576   */\n      dup2\n        /* \"#utility.yul\":1568:1588   */\n      sub\n        /* \"#utility.yul\":1564:1565   */\n      0x00\n        /* \"#utility.yul\":1553:1562   */\n      dup4\n        /* \"#utility.yul\":1549:1566   */\n      add\n        /* \"#utility.yul\":1542:1589   */\n      mstore\n        /* \"#utility.yul\":1606:1684   */\n      tag_70\n        /* \"#utility.yul\":1679:1683   */\n      dup2\n        /* \"#utility.yul\":1670:1676   */\n      dup10\n        /* \"#utility.yul\":1606:1684   */\n      tag_31\n      jump\t// in\n    tag_70:\n        /* \"#utility.yul\":1598:1684   */\n      swap1\n      pop\n        /* \"#utility.yul\":1694:1766   */\n      tag_71\n        /* \"#utility.yul\":1762:1764   */\n      0x20\n        /* \"#utility.yul\":1751:1760   */\n      dup4\n        /* \"#utility.yul\":1747:1765   */\n      add\n        /* \"#utility.yul\":1738:1744   */\n      dup9\n        /* \"#utility.yul\":1694:1766   */\n      tag_33\n      jump\t// in\n    tag_71:\n        /* \"#utility.yul\":1776:1848   */\n      tag_72\n        /* \"#utility.yul\":1844:1846   */\n      0x40\n        /* \"#utility.yul\":1833:1842   */\n      dup4\n        /* \"#utility.yul\":1829:1847   */\n      add\n        /* \"#utility.yul\":1820:1826   */\n      dup8\n        /* \"#utility.yul\":1776:1848   */\n      tag_33\n      jump\t// in\n    tag_72:\n        /* \"#utility.yul\":1858:1930   */\n      tag_73\n        /* \"#utility.yul\":1926:1928   */\n      0x60\n        /* \"#utility.yul\":1915:1924   */\n      dup4\n        /* \"#utility.yul\":1911:1929   */\n      add\n        /* \"#utility.yul\":1902:1908   */\n      dup7\n        /* \"#utility.yul\":1858:1930   */\n      tag_33\n      jump\t// in\n    tag_73:\n        /* \"#utility.yul\":1940:2013   */\n      tag_74\n        /* \"#utility.yul\":2008:2011   */\n      0x80\n        /* \"#utility.yul\":1997:2006   */\n      dup4\n        /* \"#utility.yul\":1993:2012   */\n      add\n        /* \"#utility.yul\":1984:1990   */\n      dup6\n        /* \"#utility.yul\":1940:2013   */\n      tag_33\n      jump\t// in\n    tag_74:\n        /* \"#utility.yul\":2023:2096   */\n      tag_75\n        /* \"#utility.yul\":2091:2094   */\n      0xa0\n        /* \"#utility.yul\":2080:2089   */\n      dup4\n        /* \"#utility.yul\":2076:2095   */\n      add\n        /* \"#utility.yul\":2067:2073   */\n      dup5\n        /* \"#utility.yul\":2023:2096   */\n      tag_33\n      jump\t// in\n    tag_75:\n        /* \"#utility.yul\":1237:2103   */\n      swap8\n      swap7\n      pop\n      pop\n      pop\n      pop\n      pop\n      pop\n      pop\n      jump\t// out\n        /* \"#utility.yul\":2109:2289   */\n    tag_34:\n        /* \"#utility.yul\":2157:2234   */\n      0x4e487b7100000000000000000000000000000000000000000000000000000000\n        /* \"#utility.yul\":2154:2155   */\n      0x00\n        /* \"#utility.yul\":2147:2235   */\n      mstore\n        /* \"#utility.yul\":2254:2258   */\n      0x41\n        /* \"#utility.yul\":2251:2252   */\n      0x04\n        /* \"#utility.yul\":2244:2259   */\n      mstore\n        /* \"#utility.yul\":2278:2282   */\n      0x24\n        /* \"#utility.yul\":2275:2276   */\n      0x00\n        /* \"#utility.yul\":2268:2283   */\n      revert\n        /* \"#utility.yul\":2295:2475   */\n    tag_35:\n        /* \"#utility.yul\":2343:2420   */\n      0x4e487b7100000000000000000000000000000000000000000000000000000000\n        /* \"#utility.yul\":2340:2341   */\n      0x00\n        /* \"#utility.yul\":2333:2421   */\n      mstore\n        /* \"#utility.yul\":2440:2444   */\n      0x22\n        /* \"#utility.yul\":2437:2438   */\n      0x04\n        /* \"#utility.yul\":2430:2445   */\n      mstore\n        /* \"#utility.yul\":2464:2468   */\n      0x24\n        /* \"#utility.yul\":2461:2462   */\n      0x00\n        /* \"#utility.yul\":2454:2469   */\n      revert\n        /* \"#utility.yul\":2481:2801   */\n    tag_22:\n        /* \"#utility.yul\":2525:2531   */\n      0x00\n        /* \"#utility.yul\":2562:2563   */\n      0x02\n        /* \"#utility.yul\":2556:2560   */\n      dup3\n        /* \"#utility.yul\":2552:2564   */\n      div\n        /* \"#utility.yul\":2542:2564   */\n      swap1\n      pop\n        /* \"#utility.yul\":2609:2610   */\n      0x01\n        /* \"#utility.yul\":2603:2607   */\n      dup3\n        /* \"#utility.yul\":2599:2611   */\n      and\n        /* \"#utility.yul\":2630:2648   */\n      dup1\n        /* \"#utility.yul\":2620:2701   */\n      tag_79\n      jumpi\n        /* \"#utility.yul\":2686:2690   */\n      0x7f\n        /* \"#utility.yul\":2678:2684   */\n      dup3\n        /* \"#utility.yul\":2674:2691   */\n      and\n        /* \"#utility.yul\":2664:2691   */\n      swap2\n      pop\n        /* \"#utility.yul\":2620:2701   */\n    tag_79:\n        /* \"#utility.yul\":2748:2750   */\n      0x20\n        /* \"#utility.yul\":2740:2746   */\n      dup3\n        /* \"#utility.yul\":2737:2751   */\n      lt\n        /* \"#utility.yul\":2717:2735   */\n      dup2\n        /* \"#utility.yul\":2714:2752   */\n      sub\n        /* \"#utility.yul\":2711:2795   */\n      tag_80\n      jumpi\n        /* \"#utility.yul\":2767:2785   */\n      tag_81\n      tag_35\n      jump\t// in\n    tag_81:\n        /* \"#utility.yul\":2711:2795   */\n    tag_80:\n        /* \"#utility.yul\":2532:2801   */\n      pop\n        /* \"#utility.yul\":2481:2801   */\n      swap2\n      swap1\n      pop\n      jump\t// out\n        /* \"#utility.yul\":2807:2948   */\n    tag_36:\n        /* \"#utility.yul\":2856:2860   */\n      0x00\n        /* \"#utility.yul\":2879:2882   */\n      dup2\n        /* \"#utility.yul\":2871:2882   */\n      swap1\n      pop\n        /* \"#utility.yul\":2902:2905   */\n      dup2\n        /* \"#utility.yul\":2899:2900   */\n      0x00\n        /* \"#utility.yul\":2892:2906   */\n      mstore\n        /* \"#utility.yul\":2936:2940   */\n      0x20\n        /* \"#utility.yul\":2933:2934   */\n      0x00\n        /* \"#utility.yul\":2923:2941   */\n      keccak256\n        /* \"#utility.yul\":2915:2941   */\n      swap1\n      pop\n        /* \"#utility.yul\":2807:2948   */\n      swap2\n      swap1\n      pop\n      jump\t// out\n        /* \"#utility.yul\":2954:3047   */\n    tag_37:\n        /* \"#utility.yul\":2991:2997   */\n      0x00\n        /* \"#utility.yul\":3038:3040   */\n      0x20\n        /* \"#utility.yul\":3033:3035   */\n      0x1f\n        /* \"#utility.yul\":3026:3031   */\n      dup4\n        /* \"#utility.yul\":3022:3036   */\n      add\n        /* \"#utility.yul\":3018:3041   */\n      div\n        /* \"#utility.yul\":3008:3041   */\n      swap1\n      pop\n        /* \"#utility.yul\":2954:3047   */\n      swap2\n      swap1\n      pop\n      jump\t// out\n        /* \"#utility.yul\":3053:3160   */\n    tag_38:\n        /* \"#utility.yul\":3097:3105   */\n      0x00\n        /* \"#utility.yul\":3147:3152   */\n      dup3\n        /* \"#utility.yul\":3141:3145   */\n      dup3\n        /* \"#utility.yul\":3137:3153   */\n      shl\n        /* \"#utility.yul\":3116:3153   */\n      swap1\n      pop\n        /* \"#utility.yul\":3053:3160   */\n      swap3\n      swap2\n      pop\n      pop\n      jump\t// out\n        /* \"#utility.yul\":3166:3559   */\n    tag_39:\n        /* \"#utility.yul\":3235:3241   */\n      0x00\n        /* \"#utility.yul\":3285:3286   */\n      0x08\n        /* \"#utility.yul\":3273:3283   */\n      dup4\n        /* \"#utility.yul\":3269:3287   */\n      mul\n        /* \"#utility.yul\":3308:3405   */\n      tag_86\n        /* \"#utility.yul\":3338:3404   */\n      0xffffffffffffffffffffffffffffffffffffffffffffffffffffffffffffffff\n        /* \"#utility.yul\":3327:3336   */\n      dup3\n        /* \"#utility.yul\":3308:3405   */\n      tag_38\n      jump\t// in\n    tag_86:\n        /* \"#utility.yul\":3426:3465   */\n      tag_87\n        /* \"#utility.yul\":3456:3464   */\n      dup7\n        /* \"#utility.yul\":3445:3454   */\n      dup4\n        /* \"#utility.yul\":3426:3465   */\n      tag_38\n      jump\t// in\n    tag_87:\n        /* \"#utility.yul\":3414:3465   */\n      swap6\n      pop\n        /* \"#utility.yul\":3498:3502   */\n      dup1\n        /* \"#utility.yul\":3494:3503   */\n      not\n        /* \"#utility.yul\":3487:3492   */\n      dup5\n        /* \"#utility.yul\":3483:3504   */\n      and\n        /* \"#utility.yul\":3474:3504   */\n      swap4\n      pop\n        /* \"#utility.yul\":3547:3551   */\n      dup1\n        /* \"#utility.yul\":3537:3545   */\n      dup7\n        /* \"#utility.yul\":3533:3552   */\n      and\n        /* \"#utility.yul\":3526:3531   */\n      dup5\n        /* \"#utility.yul\":3523:3553   */\n      or\n        /* \"#utility.yul\":3513:3553   */\n      swap3\n      pop\n        /* \"#utility.yul\":3242:3559   */\n      pop\n      pop\n        /* \"#utility.yul\":3166:3559   */\n      swap4\n      swap3\n      pop\n      pop\n      pop\n      jump\t// out\n        /* \"#utility.yul\":3565:3625   */\n    tag_40:\n        /* \"#utility.yul\":3593:3596   */\n      0x00\n        /* \"#utility.yul\":3614:3619   */\n      dup2\n        /* \"#utility.yul\":3607:3619   */\n      swap1\n      pop\n        /* \"#utility.yul\":3565:3625   */\n      swap2\n      swap1\n      pop\n      jump\t// out\n        /* \"#utility.yul\":3631:3773   */\n    tag_41:\n        /* \"#utility.yul\":3681:3690   */\n      0x00\n        /* \"#utility.yul\":3714:3767   */\n      tag_90\n        /* \"#utility.yul\":3732:3766   */\n      tag_91\n        /* \"#utility.yul\":3741:3765   */\n      tag_92\n        /* \"#utility.yul\":3759:3764   */\n      dup5\n        /* \"#utility.yul\":3741:3765   */\n      tag_32\n      jump\t// in\n    tag_92:\n        /* \"#utility.yul\":3732:3766   */\n      tag_40\n      jump\t// in\n    tag_91:\n        /* \"#utility.yul\":3714:3767   */\n      tag_32\n      jump\t// in\n    tag_90:\n        /* \"#utility.yul\":3701:3767   */\n      swap1\n      pop\n        /* \"#utility.yul\":3631:3773   */\n      swap2\n      swap1\n      pop\n      jump\t// out\n        /* \"#utility.yul\":3779:3854   */\n    tag_42:\n        /* \"#utility.yul\":3822:3825   */\n      0x00\n        /* \"#utility.yul\":3843:3848   */\n      dup2\n        /* \"#utility.yul\":3836:3848   */\n      swap1\n      pop\n        /* \"#utility.yul\":3779:3854   */\n      swap2\n      swap1\n      pop\n      jump\t// out\n        /* \"#utility.yul\":3860:4129   */\n    tag_43:\n        /* \"#utility.yul\":3970:4009   */\n      tag_95\n        /* \"#utility.yul\":4001:4008   */\n      dup4\n        /* \"#utility.yul\":3970:4009   */\n      tag_41\n      jump\t// in\n    tag_95:\n        /* \"#utility.yul\":4031:4122   */\n      tag_96\n        /* \"#utility.yul\":4080:4121   */\n      tag_97\n        /* \"#utility.yul\":4104:4120   */\n      dup3\n        /* \"#utility.yul\":4080:4121   */\n      tag_42\n      jump\t// in\n    tag_97:\n        /* \"#utility.yul\":4072:4078   */\n      dup5\n        /* \"#utility.yul\":4065:4069   */\n      dup5\n        /* \"#utility.yul\":4059:4070   */\n      sload\n        /* \"#utility.yul\":4031:4122   */\n      tag_39\n      jump\t// in\n    tag_96:\n        /* \"#utility.yul\":4025:4029   */\n      dup3\n        /* \"#utility.yul\":4018:4123   */\n      sstore\n        /* \"#utility.yul\":3936:4129   */\n      pop\n        /* \"#utility.yul\":3860:4129   */\n      pop\n      pop\n      pop\n      jump\t// out\n        /* \"#utility.yul\":4135:4208   */\n    tag_44:\n        /* \"#utility.yul\":4180:4183   */\n      0x00\n        /* \"#utility.yul\":4135:4208   */\n      swap1\n      jump\t// out\n        /* \"#utility.yul\":4214:4403   */\n    tag_45:\n        /* \"#utility.yul\":4291:4323   */\n      tag_100\n      tag_44\n      jump\t// in\n    tag_100:\n        /* \"#utility.yul\":4332:4397   */\n      tag_101\n        /* \"#utility.yul\":4390:4396   */\n      dup2\n        /* \"#utility.yul\":4382:4388   */\n      dup5\n        /* \"#utility.yul\":4376:4380   */\n      dup5\n        /* \"#utility.yul\":4332:4397   */\n      tag_43\n      jump\t// in\n    tag_101:\n        /* \"#utility.yul\":4267:4403   */\n      pop\n        /* \"#utility.yul\":4214:4403   */\n      pop\n      pop\n      jump\t// out\n        /* \"#utility.yul\":4409:4595   */\n    tag_46:\n        /* \"#utility.yul\":4469:4589   */\n    tag_103:\n        /* \"#utility.yul\":4486:4489   */\n      dup2\n        /* \"#utility.yul\":4479:4484   */\n      dup2\n        /* \"#utility.yul\":4476:4490   */\n      lt\n        /* \"#utility.yul\":4469:4589   */\n      iszero\n      tag_105\n      jumpi\n        /* \"#utility.yul\":4540:4579   */\n      tag_106\n        /* \"#utility.yul\":4577:4578   */\n      0x00\n        /* \"#utility.yul\":4570:4575   */\n      dup3\n        /* \"#utility.yul\":4540:4579   */\n      tag_45\n      jump\t// in\n    tag_106:\n        /* \"#utility.yul\":4513:4514   */\n      0x01\n        /* \"#utility.yul\":4506:4511   */\n      dup2\n        /* \"#utility.yul\":4502:4515   */\n      add\n        /* \"#utility.yul\":4493:4515   */\n      swap1\n      pop\n        /* \"#utility.yul\":4469:4589   */\n      jump(tag_103)\n    tag_105:\n        /* \"#utility.yul\":4409:4595   */\n      pop\n      pop\n      jump\t// out\n        /* \"#utility.yul\":4601:5144   */\n    tag_47:\n        /* \"#utility.yul\":4702:4704   */\n      0x1f\n        /* \"#utility.yul\":4697:4700   */\n      dup3\n        /* \"#utility.yul\":4694:4705   */\n      gt\n        /* \"#utility.yul\":4691:5137   */\n      iszero\n      tag_108\n      jumpi\n        /* \"#utility.yul\":4736:4774   */\n      tag_109\n        /* \"#utility.yul\":4768:4773   */\n      dup2\n        /* \"#utility.yul\":4736:4774   */\n      tag_36\n      jump\t// in\n    tag_109:\n        /* \"#utility.yul\":4820:4849   */\n      tag_110\n        /* \"#utility.yul\":4838:4848   */\n      dup5\n        /* \"#utility.yul\":4820:4849   */\n      tag_37\n      jump\t// in\n    tag_110:\n        /* \"#utility.yul\":4810:4818   */\n      dup2\n        /* \"#utility.yul\":4806:4850   */\n      add\n        /* \"#utility.yul\":5003:5005   */\n      0x20\n        /* \"#utility.yul\":4991:5001   */\n      dup6\n        /* \"#utility.yul\":4988:5006   */\n      lt\n        /* \"#utility.yul\":4985:5034   */\n      iszero\n      tag_111\n      jumpi\n        /* \"#utility.yul\":5024:5032   */\n      dup2\n        /* \"#utility.yul\":5009:5032   */\n      swap1\n      pop\n        /* \"#utility.yul\":4985:5034   */\n    tag_111:\n        /* \"#utility.yul\":5047:5127   */\n      tag_112\n        /* \"#utility.yul\":5103:5125   */\n      tag_113\n        /* \"#utility.yul\":5121:5124   */\n      dup6\n        /* \"#utility.yul\":5103:5125   */\n      tag_37\n      jump\t// in\n    tag_113:\n        /* \"#utility.yul\":5093:5101   */\n      dup4\n        /* \"#utility.yul\":5089:5126   */\n      add\n        /* \"#utility.yul\":5076:5087   */\n      dup3\n        /* \"#utility.yul\":5047:5127   */\n      tag_46\n      jump\t// in\n    tag_112:\n        /* \"#utility.yul\":4706:5137   */\n      pop\n      pop\n        /* \"#utility.yul\":4691:5137   */\n    tag_108:\n        /* \"#utility.yul\":4601:5144   */\n      pop\n      pop\n      pop\n      jump\t// out\n        /* \"#utility.yul\":5150:5267   */\n    tag_48:\n        /* \"#utility.yul\":5204:5212   */\n      0x00\n        /* \"#utility.yul\":5254:5259   */\n      dup3\n        /* \"#utility.yul\":5248:5252   */\n      dup3\n        /* \"#utility.yul\":5244:5260   */\n      shr\n        /* \"#utility.yul\":5223:5260   */\n      swap1\n      pop\n        /* \"#utility.yul\":5150:5267   */\n      swap3\n      swap2\n      pop\n      pop\n      jump\t// out\n        /* \"#utility.yul\":5273:5442   */\n    tag_49:\n        /* \"#utility.yul\":5317:5323   */\n      0x00\n        /* \"#utility.yul\":5350:5401   */\n      tag_116\n        /* \"#utility.yul\":5398:5399   */\n      0x00\n        /* \"#utility.yul\":5394:5400   */\n      not\n        /* \"#utility.yul\":5386:5391   */\n      dup5\n        /* \"#utility.yul\":5383:5384   */\n      0x08\n        /* \"#utility.yul\":5379:5392   */\n      mul\n        /* \"#utility.yul\":5350:5401   */\n      tag_48\n      jump\t// in\n    tag_116:\n        /* \"#utility.yul\":5346:5402   */\n      not\n        /* \"#utility.yul\":5431:5435   */\n      dup1\n        /* \"#utility.yul\":5425:5429   */\n      dup4\n        /* \"#utility.yul\":5421:5436   */\n      and\n        /* \"#utility.yul\":5411:5436   */\n      swap2\n      pop\n        /* \"#utility.yul\":5324:5442   */\n      pop\n        /* \"#utility.yul\":5273:5442   */\n      swap3\n      swap2\n      pop\n      pop\n      jump\t// out\n        /* \"#utility.yul\":5447:5742   */\n    tag_50:\n        /* \"#utility.yul\":5523:5527   */\n      0x00\n        /* \"#utility.yul\":5669:5698   */\n      tag_118\n        /* \"#utility.yul\":5694:5697   */\n      dup4\n        /* \"#utility.yul\":5688:5692   */\n      dup4\n        /* \"#utility.yul\":5669:5698   */\n      tag_49\n      jump\t// in\n    tag_118:\n        /* \"#utility.yul\":5661:5698   */\n      swap2\n      pop\n        /* \"#utility.yul\":5731:5734   */\n      dup3\n        /* \"#utility.yul\":5728:5729   */\n      0x02\n        /* \"#utility.yul\":5724:5735   */\n      mul\n        /* \"#utility.yul\":5718:5722   */\n      dup3\n        /* \"#utility.yul\":5715:5736   */\n      or\n        /* \"#utility.yul\":5707:5736   */\n      swap1\n      pop\n        /* \"#utility.yul\":5447:5742   */\n      swap3\n      swap2\n      pop\n      pop\n      jump\t// out\n        /* \"#utility.yul\":5747:7142   */\n    tag_10:\n        /* \"#utility.yul\":5864:5901   */\n      tag_120\n        /* \"#utility.yul\":5897:5900   */\n      dup3\n        /* \"#utility.yul\":5864:5901   */\n      tag_27\n      jump\t// in\n    tag_120:\n        /* \"#utility.yul\":5966:5984   */\n      0xffffffffffffffff\n        /* \"#utility.yul\":5958:5964   */\n      dup2\n        /* \"#utility.yul\":5955:5985   */\n      gt\n        /* \"#utility.yul\":5952:6008   */\n      iszero\n      tag_121\n      jumpi\n        /* \"#utility.yul\":5988:6006   */\n      tag_122\n      tag_34\n      jump\t// in\n    tag_122:\n        /* \"#utility.yul\":5952:6008   */\n    tag_121:\n        /* \"#utility.yul\":6032:6070   */\n      tag_123\n        /* \"#utility.yul\":6064:6068   */\n      dup3\n        /* \"#utility.yul\":6058:6069   */\n      sload\n        /* \"#utility.yul\":6032:6070   */\n      tag_22\n      jump\t// in\n    tag_123:\n        /* \"#utility.yul\":6117:6184   */\n      tag_124\n        /* \"#utility.yul\":6177:6183   */\n      dup3\n        /* \"#utility.yul\":6169:6175   */\n      dup3\n        /* \"#utility.yul\":6163:6167   */\n      dup6\n        /* \"#utility.yul\":6117:6184   */\n      tag_47\n      jump\t// in\n    tag_124:\n        /* \"#utility.yul\":6211:6212   */\n      0x00\n        /* \"#utility.yul\":6235:6239   */\n      0x20\n        /* \"#utility.yul\":6222:6239   */\n      swap1\n      pop\n        /* \"#utility.yul\":6267:6269   */\n      0x1f\n        /* \"#utility.yul\":6259:6265   */\n      dup4\n        /* \"#utility.yul\":6256:6270   */\n      gt\n        /* \"#utility.yul\":6284:6285   */\n      0x01\n        /* \"#utility.yul\":6279:6897   */\n      dup2\n      eq\n      tag_126\n      jumpi\n        /* \"#utility.yul\":6941:6942   */\n      0x00\n        /* \"#utility.yul\":6958:6964   */\n      dup5\n        /* \"#utility.yul\":6955:7032   */\n      iszero\n      tag_127\n      jumpi\n        /* \"#utility.yul\":7007:7016   */\n      dup3\n        /* \"#utility.yul\":7002:7005   */\n      dup8\n        /* \"#utility.yul\":6998:7017   */\n      add\n        /* \"#utility.yul\":6992:7018   */\n      mload\n        /* \"#utility.yul\":6983:7018   */\n      swap1\n      pop\n        /* \"#utility.yul\":6955:7032   */\n    tag_127:\n        /* \"#utility.yul\":7058:7125   */\n      tag_128\n        /* \"#utility.yul\":7118:7124   */\n      dup6\n        /* \"#utility.yul\":7111:7116   */\n      dup3\n        /* \"#utility.yul\":7058:7125   */\n      tag_50\n      jump\t// in\n    tag_128:\n        /* \"#utility.yul\":7052:7056   */\n      dup7\n        /* \"#utility.yul\":7045:7126   */\n      sstore\n        /* \"#utility.yul\":6914:7136   */\n      pop\n        /* \"#utility.yul\":6249:7136   */\n      jump(tag_125)\n        /* \"#utility.yul\":6279:6897   */\n    tag_126:\n        /* \"#utility.yul\":6331:6335   */\n      0x1f\n        /* \"#utility.yul\":6327:6336   */\n      not\n        /* \"#utility.yul\":6319:6325   */\n      dup5\n        /* \"#utility.yul\":6315:6337   */\n      and\n        /* \"#utility.yul\":6365:6402   */\n      tag_129\n        /* \"#utility.yul\":6397:6401   */\n      dup7\n        /* \"#utility.yul\":6365:6402   */\n      tag_36\n      jump\t// in\n    tag_129:\n        /* \"#utility.yul\":6424:6425   */\n      0x00\n        /* \"#utility.yul\":6438:6646   */\n    tag_130:\n        /* \"#utility.yul\":6452:6459   */\n      dup3\n        /* \"#utility.yul\":6449:6450   */\n      dup2\n        /* \"#utility.yul\":6446:6460   */\n      lt\n        /* \"#utility.yul\":6438:6646   */\n      iszero\n      tag_132\n      jumpi\n        /* \"#utility.yul\":6531:6540   */\n      dup5\n        /* \"#utility.yul\":6526:6529   */\n      dup10\n        /* \"#utility.yul\":6522:6541   */\n      add\n        /* \"#utility.yul\":6516:6542   */\n      mload\n        /* \"#utility.yul\":6508:6514   */\n      dup3\n        /* \"#utility.yul\":6501:6543   */\n      sstore\n        /* \"#utility.yul\":6582:6583   */\n      0x01\n        /* \"#utility.yul\":6574:6580   */\n      dup3\n        /* \"#utility.yul\":6570:6584   */\n      add\n        /* \"#utility.yul\":6560:6584   */\n      swap2\n      pop\n        /* \"#utility.yul\":6629:6631   */\n      0x20\n        /* \"#utility.yul\":6618:6627   */\n      dup6\n        /* \"#utility.yul\":6614:6632   */\n      add\n        /* \"#utility.yul\":6601:6632   */\n      swap5\n      pop\n        /* \"#utility.yul\":6475:6479   */\n      0x20\n        /* \"#utility.yul\":6472:6473   */\n      dup2\n        /* \"#utility.yul\":6468:6480   */\n      add\n        /* \"#utility.yul\":6463:6480   */\n      swap1\n      pop\n        /* \"#utility.yul\":6438:6646   */\n      jump(tag_130)\n    tag_132:\n        /* \"#utility.yul\":6674:6680   */\n      dup7\n        /* \"#utility.yul\":6665:6672   */\n      dup4\n        /* \"#utility.yul\":6662:6681   */\n      lt\n        /* \"#utility.yul\":6659:6838   */\n      iszero\n      tag_133\n      jumpi\n        /* \"#utility.yul\":6732:6741   */\n      dup5\n        /* \"#utility.yul\":6727:6730   */\n      dup10\n        /* \"#utility.yul\":6723:6742   */\n      add\n        /* \"#utility.yul\":6717:6743   */\n      mload\n        /* \"#utility.yul\":6775:6823   */\n      tag_134\n        /* \"#utility.yul\":6817:6821   */\n      0x1f\n        /* \"#utility.yul\":6809:6815   */\n      dup10\n        /* \"#utility.yul\":6805:6822   */\n      and\n        /* \"#utility.yul\":6794:6803   */\n      dup3\n        /* \"#utility.yul\":6775:6823   */\n      tag_49\n      jump\t// in\n    tag_134:\n        /* \"#utility.yul\":6767:6773   */\n      dup4\n        /* \"#utility.yul\":6760:6824   */\n      sstore\n        /* \"#utility.yul\":6682:6838   */\n      pop\n        /* \"#utility.yul\":6659:6838   */\n    tag_133:\n        /* \"#utility.yul\":6884:6885   */\n      0x01\n        /* \"#utility.yul\":6880:6881   */\n      0x02\n        /* \"#utility.yul\":6872:6878   */\n      dup9\n        /* \"#utility.yul\":6868:6882   */\n      mul\n        /* \"#utility.yul\":6864:6886   */\n      add\n        /* \"#utility.yul\":6858:6862   */\n      dup9\n        /* \"#utility.yul\":6851:6887   */\n      sstore\n        /* \"#utility.yul\":6286:6897   */\n      pop\n      pop\n      pop\n        /* \"#utility.yul\":6249:7136   */\n    tag_125:\n      pop\n        /* \"#utility.yul\":5839:7142   */\n      pop\n      pop\n      pop\n        /* \"#utility.yul\":5747:7142   */\n      pop\n      pop\n      jump\t// out\n        /* \"#utility.yul\":7148:7328   */\n    tag_51:\n        /* \"#utility.yul\":7196:7273   */\n      0x4e487b7100000000000000000000000000000000000000000000000000000000\n        /* \"#utility.yul\":7193:7194   */\n      0x00\n        /* \"#utility.yul\":7186:7274   */\n      mstore\n        /* \"#utility.yul\":7293:7297   */\n      0x11\n        /* \"#utility.yul\":7290:7291   */\n      0x04\n        /* \"#utility.yul\":7283:7298   */\n      mstore\n        /* \"#utility.yul\":7317:7321   */\n      0x24\n        /* \"#utility.yul\":7314:7315   */\n      0x00\n        /* \"#utility.yul\":7307:7322   */\n      revert\n        /* \"#utility.yul\":7334:7525   */\n    tag_12:\n        /* \"#utility.yul\":7374:7377   */\n      0x00\n        /* \"#utility.yul\":7393:7413   */\n      tag_137\n        /* \"#utility.yul\":7411:7412   */\n      dup3\n        /* \"#utility.yul\":7393:7413   */\n      tag_32\n      jump\t// in\n    tag_137:\n        /* \"#utility.yul\":7388:7413   */\n      swap2\n      pop\n        /* \"#utility.yul\":7427:7447   */\n      tag_138\n        /* \"#utility.yul\":7445:7446   */\n      dup4\n        /* \"#utility.yul\":7427:7447   */\n      tag_32\n      jump\t// in\n    tag_138:\n        /* \"#utility.yul\":7422:7447   */\n      swap3\n      pop\n        /* \"#utility.yul\":7470:7471   */\n      dup3\n        /* \"#utility.yul\":7467:7468   */\n      dup3\n        /* \"#utility.yul\":7463:7472   */\n      add\n        /* \"#utility.yul\":7456:7472   */\n      swap1\n      pop\n        /* \"#utility.yul\":7491:7494   */\n      dup1\n        /* \"#utility.yul\":7488:7489   */\n      dup3\n        /* \"#utility.yul\":7485:7495   */\n      gt\n        /* \"#utility.yul\":7482:7518   */\n      iszero\n      tag_139\n      jumpi\n        /* \"#utility.yul\":7498:7516   */\n      tag_140\n      tag_51\n      jump\t// in\n    tag_140:\n        /* \"#utility.yul\":7482:7518   */\n    tag_139:\n        /* \"#utility.yul\":7334:7525   */\n      swap3\n      swap2\n      pop\n      pop\n      jump\t// out\n        /* \"#utility.yul\":7531:7725   */\n    tag_14:\n        /* \"#utility.yul\":7571:7575   */\n      0x00\n        /* \"#utility.yul\":7591:7611   */\n      tag_142\n        /* \"#utility.yul\":7609:7610   */\n      dup3\n        /* \"#utility.yul\":7591:7611   */\n      tag_32\n      jump\t// in\n    tag_142:\n        /* \"#utility.yul\":7586:7611   */\n      swap2\n      pop\n        /* \"#utility.yul\":7625:7645   */\n      tag_143\n        /* \"#utility.yul\":7643:7644   */\n      dup4\n        /* \"#utility.yul\":7625:7645   */\n      tag_32\n      jump\t// in\n    tag_143:\n        /* \"#utility.yul\":7620:7645   */\n      swap3\n      pop\n        /* \"#utility.yul\":7669:7670   */\n      dup3\n        /* \"#utility.yul\":7666:7667   */\n      dup3\n        /* \"#utility.yul\":7662:7671   */\n      sub\n        /* \"#utility.yul\":7654:7671   */\n      swap1\n      pop\n        /* \"#utility.yul\":7693:7694   */\n      dup2\n        /* \"#utility.yul\":7687:7691   */\n      dup2\n        /* \"#utility.yul\":7684:7695   */\n      gt\n        /* \"#utility.yul\":7681:7718   */\n      iszero\n      tag_144\n      jumpi\n        /* \"#utility.yul\":7698:7716   */\n      tag_145\n      tag_51\n      jump\t// in\n    tag_145:\n        /* \"#utility.yul\":7681:7718   */\n    tag_144:\n        /* \"#utility.yul\":7531:7725   */\n      swap3\n      swap2\n      pop\n      pop\n      jump\t// out\n        /* \"#utility.yul\":7731:8141   */\n    tag_16:\n        /* \"#utility.yul\":7771:7778   */\n      0x00\n        /* \"#utility.yul\":7794:7814   */\n      tag_147\n        /* \"#utility.yul\":7812:7813   */\n      dup3\n        /* \"#utility.yul\":7794:7814   */\n      tag_32\n      jump\t// in\n    tag_147:\n        /* \"#utility.yul\":7789:7814   */\n      swap2\n      pop\n        /* \"#utility.yul\":7828:7848   */\n      tag_148\n        /* \"#utility.yul\":7846:7847   */\n      dup4\n        /* \"#utility.yul\":7828:7848   */\n      tag_32\n      jump\t// in\n    tag_148:\n        /* \"#utility.yul\":7823:7848   */\n      swap3\n      pop\n        /* \"#utility.yul\":7883:7884   */\n      dup3\n        /* \"#utility.yul\":7880:7881   */\n      dup3\n        /* \"#utility.yul\":7876:7885   */\n      mul\n        /* \"#utility.yul\":7905:7935   */\n      tag_149\n        /* \"#utility.yul\":7923:7934   */\n      dup2\n        /* \"#utility.yul\":7905:7935   */\n      tag_32\n      jump\t// in\n    tag_149:\n        /* \"#utility.yul\":7894:7935   */\n      swap2\n      pop\n        /* \"#utility.yul\":8084:8085   */\n      dup3\n        /* \"#utility.yul\":8075:8082   */\n      dup3\n        /* \"#utility.yul\":8071:8086   */\n      div\n        /* \"#utility.yul\":8068:8069   */\n      dup5\n        /* \"#utility.yul\":8065:8087   */\n      eq\n        /* \"#utility.yul\":8045:8046   */\n      dup4\n        /* \"#utility.yul\":8038:8047   */\n      iszero\n        /* \"#utility.yul\":8018:8101   */\n      or\n        /* \"#utility.yul\":7995:8134   */\n      tag_150\n      jumpi\n        /* \"#utility.yul\":8114:8132   */\n      tag_151\n      tag_51\n      jump\t// in\n    tag_151:\n        /* \"#utility.yul\":7995:8134   */\n    tag_150:\n        /* \"#utility.yul\":7779:8141   */\n      pop\n        /* \"#utility.yul\":7731:8141   */\n      swap3\n      swap2\n      pop\n      pop\n      jump\t// out\n        /* \"#utility.yul\":8147:8327   */\n    tag_52:\n        /* \"#utility.yul\":8195:8272   */\n      0x4e487b7100000000000000000000000000000000000000000000000000000000\n        /* \"#utility.yul\":8192:8193   */\n      0x00\n        /* \"#utility.yul\":8185:8273   */\n      mstore\n        /* \"#utility.yul\":8292:8296   */\n      0x12\n        /* \"#utility.yul\":8289:8290   */\n      0x04\n        /* \"#utility.yul\":8282:8297   */\n      mstore\n        /* \"#utility.yul\":8316:8320   */\n      0x24\n        /* \"#utility.yul\":8313:8314   */\n      0x00\n        /* \"#utility.yul\":8306:8321   */\n      revert\n        /* \"#utility.yul\":8333:8518   */\n    tag_18:\n        /* \"#utility.yul\":8373:8374   */\n      0x00\n        /* \"#utility.yul\":8390:8410   */\n      tag_154\n        /* \"#utility.yul\":8408:8409   */\n      dup3\n        /* \"#utility.yul\":8390:8410   */\n      tag_32\n      jump\t// in\n    tag_154:\n        /* \"#utility.yul\":8385:8410   */\n      swap2\n      pop\n        /* \"#utility.yul\":8424:8444   */\n      tag_155\n        /* \"#utility.yul\":8442:8443   */\n      dup4\n        /* \"#utility.yul\":8424:8444   */\n      tag_32\n      jump\t// in\n    tag_155:\n        /* \"#utility.yul\":8419:8444   */\n      swap3\n      pop\n        /* \"#utility.yul\":8463:8464   */\n      dup3\n        /* \"#utility.yul\":8453:8488   */\n      tag_156\n      jumpi\n        /* \"#utility.yul\":8468:8486   */\n      tag_157\n      tag_52\n      jump\t// in\n    tag_157:\n        /* \"#utility.yul\":8453:8488   */\n    tag_156:\n        /* \"#utility.yul\":8510:8511   */\n      dup3\n        /* \"#utility.yul\":8507:8508   */\n      dup3\n        /* \"#utility.yul\":8503:8512   */\n      div\n        /* \"#utility.yul\":8498:8512   */\n      swap1\n      pop\n        /* \"#utility.yul\":8333:8518   */\n      swap3\n      swap2\n      pop\n      pop\n      jump\t// out\n        /* \"#utility.yul\":8524:8700   */\n    tag_20:\n        /* \"#utility.yul\":8556:8557   */\n      0x00\n        /* \"#utility.yul\":8573:8593   */\n      tag_159\n        /* \"#utility.yul\":8591:8592   */\n      dup3\n        /* \"#utility.yul\":8573:8593   */\n      tag_32\n      jump\t// in\n    tag_159:\n        /* \"#utility.yul\":8568:8593   */\n      swap2\n      pop\n        /* \"#utility.yul\":8607:8627   */\n      tag_160\n        /* \"#utility.yul\":8625:8626   */\n      dup4\n        /* \"#utility.yul\":8607:8627   */\n      tag_32\n      jump\t// in\n    tag_160:\n        /* \"#utility.yul\":8602:8627   */\n      swap3\n      pop\n        /* \"#utility.yul\":8646:8647   */\n      dup3\n        /* \"#utility.yul\":8636:8671   */\n      tag_161\n      jumpi\n        /* \"#utility.yul\":8651:8669   */\n      tag_162\n      tag_52\n      jump\t// in\n    tag_162:\n        /* \"#utility.yul\":8636:8671   */\n    tag_161:\n        /* \"#utility.yul\":8692:8693   */\n      dup3\n        /* \"#utility.yul\":8689:8690   */\n      dup3\n        /* \"#utility.yul\":8685:8694   */\n      mod\n        /* \"#utility.yul\":8680:8694   */\n      swap1\n      pop\n        /* \"#utility.yul\":8524:8700   */\n      swap3\n      swap2\n      pop\n      pop\n      jump\t// out\n\n    auxdata: 0xa2646970667358221220434456c0b4508cd4a07c139e463ab43ef8378d1cb2012ddbc7900f20ae9805d764736f6c63430008120033\n}\n",
				"bytecode": {
					"linkReferences": {},
					"object": "60806040526040518060400160405280600581526020017f48656c6c6f000000000000000000000000000000000000000000000000000000815250600090816200004a9190620002f1565b506005600155600560025560056003556005600455600580553480156200007057600080fd5b50620003d8565b600081519050919050565b7f4e487b7100000000000000000000000000000000000000000000000000000000600052604160045260246000fd5b7f4e487b7100000000000000000000000000000000000000000000000000000000600052602260045260246000fd5b60006002820490506001821680620000f957607f821691505b6020821081036200010f576200010e620000b1565b5b50919050565b60008190508160005260206000209050919050565b60006020601f8301049050919050565b600082821b905092915050565b600060088302620001797fffffffffffffffffffffffffffffffffffffffffffffffffffffffffffffffff826200013a565b6200018586836200013a565b95508019841693508086168417925050509392505050565b6000819050919050565b6000819050919050565b6000620001d2620001cc620001c6846200019d565b620001a7565b6200019d565b9050919050565b6000819050919050565b620001ee83620001b1565b62000206620001fd82620001d9565b84845462000147565b825550505050565b600090565b6200021d6200020e565b6200022a818484620001e3565b505050565b5b8181101562000252576200024660008262000213565b60018101905062000230565b5050565b601f821115620002a1576200026b8162000115565b62000276846200012a565b8101602085101562000286578190505b6200029e62000295856200012a565b8301826200022f565b50505b505050565b600082821c905092915050565b6000620002c660001984600802620002a6565b1980831691505092915050565b6000620002e18383620002b3565b9150826002028217905092915050565b620002fc8262000077565b67ffffffffffffffff81111562000318576200031762000082565b5b620003248254620000e0565b6200033182828562000256565b600060209050601f83116001811462000369576000841562000354578287015190505b620003608582620002d3565b865550620003d0565b601f198416620003798662000115565b60005b82811015620003a3578489015182556001820191506020850194506020810190506200037c565b86831015620003c35784890151620003bf601f891682620002b3565b8355505b6001600288020188555050505b505050505050565b61079280620003e86000396000f3fe608060405234801561001057600080fd5b506004361061002b5760003560e01c806371ca2ecf14610030575b600080fd5b610038610053565b60405161004a9695949392919061027d565b60405180910390f35b606060008060008060006040518060400160405280600e81526020017f48656c6c6f20536f6c6964697479000000000000000000000000000000000000815250600090816100a19190610520565b506002600160008282546100b59190610621565b9250508190555060028060008282546100ce9190610655565b925050819055506002600360008282546100e89190610689565b9250508190555060026004600082825461010291906106fa565b9250508190555060026005600082825461011c919061072b565b92505081905550600060015460025460035460045460055485805461014090610343565b80601f016020809104026020016040519081016040528092919081815260200182805461016c90610343565b80156101b95780601f1061018e576101008083540402835291602001916101b9565b820191906000526020600020905b81548152906001019060200180831161019c57829003601f168201915b50505050509550955095509550955095509550909192939495565b600081519050919050565b600082825260208201905092915050565b60005b8381101561020e5780820151818401526020810190506101f3565b60008484015250505050565b6000601f19601f8301169050919050565b6000610236826101d4565b61024081856101df565b93506102508185602086016101f0565b6102598161021a565b840191505092915050565b6000819050919050565b61027781610264565b82525050565b600060c0820190508181036000830152610297818961022b565b90506102a6602083018861026e565b6102b3604083018761026e565b6102c0606083018661026e565b6102cd608083018561026e565b6102da60a083018461026e565b979650505050505050565b7f4e487b7100000000000000000000000000000000000000000000000000000000600052604160045260246000fd5b7f4e487b7100000000000000000000000000000000000000000000000000000000600052602260045260246000fd5b6000600282049050600182168061035b57607f821691505b60208210810361036e5761036d610314565b5b50919050565b60008190508160005260206000209050919050565b60006020601f8301049050919050565b600082821b905092915050565b6000600883026103d67fffffffffffffffffffffffffffffffffffffffffffffffffffffffffffffffff82610399565b6103e08683610399565b95508019841693508086168417925050509392505050565b6000819050919050565b600061041d61041861041384610264565b6103f8565b610264565b9050919050565b6000819050919050565b61043783610402565b61044b61044382610424565b8484546103a6565b825550505050565b600090565b610460610453565b61046b81848461042e565b505050565b5b8181101561048f57610484600082610458565b600181019050610471565b5050565b601f8211156104d4576104a581610374565b6104ae84610389565b810160208510156104bd578190505b6104d16104c985610389565b830182610470565b50505b505050565b600082821c905092915050565b60006104f7600019846008026104d9565b1980831691505092915050565b600061051083836104e6565b9150826002028217905092915050565b610529826101d4565b67ffffffffffffffff811115610542576105416102e5565b5b61054c8254610343565b610557828285610493565b600060209050601f83116001811461058a5760008415610578578287015190505b6105828582610504565b8655506105ea565b601f19841661059886610374565b60005b828110156105c05784890151825560018201915060208501945060208101905061059b565b868310156105dd57848901516105d9601f8916826104e6565b8355505b6001600288020188555050505b505050505050565b7f4e487b7100000000000000000000000000000000000000000000000000000000600052601160045260246000fd5b600061062c82610264565b915061063783610264565b925082820190508082111561064f5761064e6105f2565b5b92915050565b600061066082610264565b915061066b83610264565b9250828203905081811115610683576106826105f2565b5b92915050565b600061069482610264565b915061069f83610264565b92508282026106ad81610264565b915082820484148315176106c4576106c36105f2565b5b5092915050565b7f4e487b7100000000000000000000000000000000000000000000000000000000600052601260045260246000fd5b600061070582610264565b915061071083610264565b9250826107205761071f6106cb565b5b828204905092915050565b600061073682610264565b915061074183610264565b925082610751576107506106cb565b5b82820690509291505056fea2646970667358221220434456c0b4508cd4a07c139e463ab43ef8378d1cb2012ddbc7900f20ae9805d764736f6c63430008120033",
					"opcodes": "PUSH1 0x80 PUSH1 0x40 MSTORE PUSH1 0x40 MLOAD DUP1 PUSH1 0x40 ADD PUSH1 0x40 MSTORE DUP1 PUSH1 0x5 DUP2 MSTORE PUSH1 0x20 ADD PUSH32 0x48656C6C6F000000000000000000000000000000000000000000000000000000 DUP2 MSTORE POP PUSH1 0x0 SWAP1 DUP2 PUSH3 0x4A SWAP2 SWAP1 PUSH3 0x2F1 JUMP JUMPDEST POP PUSH1 0x5 PUSH1 0x1 SSTORE PUSH1 0x5 PUSH1 0x2 SSTORE PUSH1 0x5 PUSH1 0x3 SSTORE PUSH1 0x5 PUSH1 0x4 SSTORE PUSH1 0x5 DUP1 SSTORE CALLVALUE DUP1 ISZERO PUSH3 0x70 JUMPI PUSH1 0x0 DUP1 REVERT JUMPDEST POP PUSH3 0x3D8 JUMP JUMPDEST PUSH1 0x0 DUP2 MLOAD SWAP1 POP SWAP2 SWAP1 POP JUMP JUMPDEST PUSH32 0x4E487B7100000000000000000000000000000000000000000000000000000000 PUSH1 0x0 MSTORE PUSH1 0x41 PUSH1 0x4 MSTORE PUSH1 0x24 PUSH1 0x0 REVERT JUMPDEST PUSH32 0x4E487B7100000000000000000000000000000000000000000000000000000000 PUSH1 0x0 MSTORE PUSH1 0x22 PUSH1 0x4 MSTORE PUSH1 0x24 PUSH1 0x0 REVERT JUMPDEST PUSH1 0x0 PUSH1 0x2 DUP3 DIV SWAP1 POP PUSH1 0x1 DUP3 AND DUP1 PUSH3 0xF9 JUMPI PUSH1 0x7F DUP3 AND SWAP2 POP JUMPDEST PUSH1 0x20 DUP3 LT DUP2 SUB PUSH3 0x10F JUMPI PUSH3 0x10E PUSH3 0xB1 JUMP JUMPDEST JUMPDEST POP SWAP2 SWAP1 POP JUMP JUMPDEST PUSH1 0x0 DUP2 SWAP1 POP DUP2 PUSH1 0x0 MSTORE PUSH1 0x20 PUSH1 0x0 KECCAK256 SWAP1 POP SWAP2 SWAP1 POP JUMP JUMPDEST PUSH1 0x0 PUSH1 0x20 PUSH1 0x1F DUP4 ADD DIV SWAP1 POP SWAP2 SWAP1 POP JUMP JUMPDEST PUSH1 0x0 DUP3 DUP3 SHL SWAP1 POP SWAP3 SWAP2 POP POP JUMP JUMPDEST PUSH1 0x0 PUSH1 0x8 DUP4 MUL PUSH3 0x179 PUSH32 0xFFFFFFFFFFFFFFFFFFFFFFFFFFFFFFFFFFFFFFFFFFFFFFFFFFFFFFFFFFFFFFFF DUP3 PUSH3 0x13A JUMP JUMPDEST PUSH3 0x185 DUP7 DUP4 PUSH3 0x13A JUMP JUMPDEST SWAP6 POP DUP1 NOT DUP5 AND SWAP4 POP DUP1 DUP7 AND DUP5 OR SWAP3 POP POP POP SWAP4 SWAP3 POP POP POP JUMP JUMPDEST PUSH1 0x0 DUP2 SWAP1 POP SWAP2 SWAP1 POP JUMP JUMPDEST PUSH1 0x0 DUP2 SWAP1 POP SWAP2 SWAP1 POP JUMP JUMPDEST PUSH1 0x0 PUSH3 0x1D2 PUSH3 0x1CC PUSH3 0x1C6 DUP5 PUSH3 0x19D JUMP JUMPDEST PUSH3 0x1A7 JUMP JUMPDEST PUSH3 0x19D JUMP JUMPDEST SWAP1 POP SWAP2 SWAP1 POP JUMP JUMPDEST PUSH1 0x0 DUP2 SWAP1 POP SWAP2 SWAP1 POP JUMP JUMPDEST PUSH3 0x1EE DUP4 PUSH3 0x1B1 JUMP JUMPDEST PUSH3 0x206 PUSH3 0x1FD DUP3 PUSH3 0x1D9 JUMP JUMPDEST DUP5 DUP5 SLOAD PUSH3 0x147 JUMP JUMPDEST DUP3 SSTORE POP POP POP POP JUMP JUMPDEST PUSH1 0x0 SWAP1 JUMP JUMPDEST PUSH3 0x21D PUSH3 0x20E JUMP JUMPDEST PUSH3 0x22A DUP2 DUP5 DUP5 PUSH3 0x1E3 JUMP JUMPDEST POP POP POP JUMP JUMPDEST JUMPDEST DUP2 DUP2 LT ISZERO PUSH3 0x252 JUMPI PUSH3 0x246 PUSH1 0x0 DUP3 PUSH3 0x213 JUMP JUMPDEST PUSH1 0x1 DUP2 ADD SWAP1 POP PUSH3 0x230 JUMP JUMPDEST POP POP JUMP JUMPDEST PUSH1 0x1F DUP3 GT ISZERO PUSH3 0x2A1 JUMPI PUSH3 0x26B DUP2 PUSH3 0x115 JUMP JUMPDEST PUSH3 0x276 DUP5 PUSH3 0x12A JUMP JUMPDEST DUP2 ADD PUSH1 0x20 DUP6 LT ISZERO PUSH3 0x286 JUMPI DUP2 SWAP1 POP JUMPDEST PUSH3 0x29E PUSH3 0x295 DUP6 PUSH3 0x12A JUMP JUMPDEST DUP4 ADD DUP3 PUSH3 0x22F JUMP JUMPDEST POP POP JUMPDEST POP POP POP JUMP JUMPDEST PUSH1 0x0 DUP3 DUP3 SHR SWAP1 POP SWAP3 SWAP2 POP POP JUMP JUMPDEST PUSH1 0x0 PUSH3 0x2C6 PUSH1 0x0 NOT DUP5 PUSH1 0x8 MUL PUSH3 0x2A6 JUMP JUMPDEST NOT DUP1 DUP4 AND SWAP2 POP POP SWAP3 SWAP2 POP POP JUMP JUMPDEST PUSH1 0x0 PUSH3 0x2E1 DUP4 DUP4 PUSH3 0x2B3 JUMP JUMPDEST SWAP2 POP DUP3 PUSH1 0x2 MUL DUP3 OR SWAP1 POP SWAP3 SWAP2 POP POP JUMP JUMPDEST PUSH3 0x2FC DUP3 PUSH3 0x77 JUMP JUMPDEST PUSH8 0xFFFFFFFFFFFFFFFF DUP2 GT ISZERO PUSH3 0x318 JUMPI PUSH3 0x317 PUSH3 0x82 JUMP JUMPDEST JUMPDEST PUSH3 0x324 DUP3 SLOAD PUSH3 0xE0 JUMP JUMPDEST PUSH3 0x331 DUP3 DUP3 DUP6 PUSH3 0x256 JUMP JUMPDEST PUSH1 0x0 PUSH1 0x20 SWAP1 POP PUSH1 0x1F DUP4 GT PUSH1 0x1 DUP2 EQ PUSH3 0x369 JUMPI PUSH1 0x0 DUP5 ISZERO PUSH3 0x354 JUMPI DUP3 DUP8 ADD MLOAD SWAP1 POP JUMPDEST PUSH3 0x360 DUP6 DUP3 PUSH3 0x2D3 JUMP JUMPDEST DUP7 SSTORE POP PUSH3 0x3D0 JUMP JUMPDEST PUSH1 0x1F NOT DUP5 AND PUSH3 0x379 DUP7 PUSH3 0x115 JUMP JUMPDEST PUSH1 0x0 JUMPDEST DUP3 DUP2 LT ISZERO PUSH3 0x3A3 JUMPI DUP5 DUP10 ADD MLOAD DUP3 SSTORE PUSH1 0x1 DUP3 ADD SWAP2 POP PUSH1 0x20 DUP6 ADD SWAP5 POP PUSH1 0x20 DUP2 ADD SWAP1 POP PUSH3 0x37C JUMP JUMPDEST DUP7 DUP4 LT ISZERO PUSH3 0x3C3 JUMPI DUP5 DUP10 ADD MLOAD PUSH3 0x3BF PUSH1 0x1F DUP10 AND DUP3 PUSH3 0x2B3 JUMP JUMPDEST DUP4 SSTORE POP JUMPDEST PUSH1 0x1 PUSH1 0x2 DUP9 MUL ADD DUP9 SSTORE POP POP POP JUMPDEST POP POP POP POP POP POP JUMP JUMPDEST PUSH2 0x792 DUP1 PUSH3 0x3E8 PUSH1 0x0 CODECOPY PUSH1 0x0 RETURN INVALID PUSH1 0x80 PUSH1 0x40 MSTORE CALLVALUE DUP1 ISZERO PUSH2 0x10 JUMPI PUSH1 0x0 DUP1 REVERT JUMPDEST POP PUSH1 0x4 CALLDATASIZE LT PUSH2 0x2B JUMPI PUSH1 0x0 CALLDATALOAD PUSH1 0xE0 SHR DUP1 PUSH4 0x71CA2ECF EQ PUSH2 0x30 JUMPI JUMPDEST PUSH1 0x0 DUP1 REVERT JUMPDEST PUSH2 0x38 PUSH2 0x53 JUMP JUMPDEST PUSH1 0x40 MLOAD PUSH2 0x4A SWAP7 SWAP6 SWAP5 SWAP4 SWAP3 SWAP2 SWAP1 PUSH2 0x27D JUMP JUMPDEST PUSH1 0x40 MLOAD DUP1 SWAP2 SUB SWAP1 RETURN JUMPDEST PUSH1 0x60 PUSH1 0x0 DUP1 PUSH1 0x0 DUP1 PUSH1 0x0 PUSH1 0x40 MLOAD DUP1 PUSH1 0x40 ADD PUSH1 0x40 MSTORE DUP1 PUSH1 0xE DUP2 MSTORE PUSH1 0x20 ADD PUSH32 0x48656C6C6F20536F6C6964697479000000000000000000000000000000000000 DUP2 MSTORE POP PUSH1 0x0 SWAP1 DUP2 PUSH2 0xA1 SWAP2 SWAP1 PUSH2 0x520 JUMP JUMPDEST POP PUSH1 0x2 PUSH1 0x1 PUSH1 0x0 DUP3 DUP3 SLOAD PUSH2 0xB5 SWAP2 SWAP1 PUSH2 0x621 JUMP JUMPDEST SWAP3 POP POP DUP2 SWAP1 SSTORE POP PUSH1 0x2 DUP1 PUSH1 0x0 DUP3 DUP3 SLOAD PUSH2 0xCE SWAP2 SWAP1 PUSH2 0x655 JUMP JUMPDEST SWAP3 POP POP DUP2 SWAP1 SSTORE POP PUSH1 0x2 PUSH1 0x3 PUSH1 0x0 DUP3 DUP3 SLOAD PUSH2 0xE8 SWAP2 SWAP1 PUSH2 0x689 JUMP JUMPDEST SWAP3 POP POP DUP2 SWAP1 SSTORE POP PUSH1 0x2 PUSH1 0x4 PUSH1 0x0 DUP3 DUP3 SLOAD PUSH2 0x102 SWAP2 SWAP1 PUSH2 0x6FA JUMP JUMPDEST SWAP3 POP POP DUP2 SWAP1 SSTORE POP PUSH1 0x2 PUSH1 0x5 PUSH1 0x0 DUP3 DUP3 SLOAD PUSH2 0x11C SWAP2 SWAP1 PUSH2 0x72B JUMP JUMPDEST SWAP3 POP POP DUP2 SWAP1 SSTORE POP PUSH1 0x0 PUSH1 0x1 SLOAD PUSH1 0x2 SLOAD PUSH1 0x3 SLOAD PUSH1 0x4 SLOAD PUSH1 0x5 SLOAD DUP6 DUP1 SLOAD PUSH2 0x140 SWAP1 PUSH2 0x343 JUMP JUMPDEST DUP1 PUSH1 0x1F ADD PUSH1 0x20 DUP1 SWAP2 DIV MUL PUSH1 0x20 ADD PUSH1 0x40 MLOAD SWAP1 DUP2 ADD PUSH1 0x40 MSTORE DUP1 SWAP3 SWAP2 SWAP1 DUP2 DUP2 MSTORE PUSH1 0x20 ADD DUP3 DUP1 SLOAD PUSH2 0x16C SWAP1 PUSH2 0x343 JUMP JUMPDEST DUP1 ISZERO PUSH2 0x1B9 JUMPI DUP1 PUSH1 0x1F LT PUSH2 0x18E JUMPI PUSH2 0x100 DUP1 DUP4 SLOAD DIV MUL DUP4 MSTORE SWAP2 PUSH1 0x20 ADD SWAP2 PUSH2 0x1B9 JUMP JUMPDEST DUP3 ADD SWAP2 SWAP1 PUSH1 0x0 MSTORE PUSH1 0x20 PUSH1 0x0 KECCAK256 SWAP1 JUMPDEST DUP2 SLOAD DUP2 MSTORE SWAP1 PUSH1 0x1 ADD SWAP1 PUSH1 0x20 ADD DUP1 DUP4 GT PUSH2 0x19C JUMPI DUP3 SWAP1 SUB PUSH1 0x1F AND DUP3 ADD SWAP2 JUMPDEST POP POP POP POP POP SWAP6 POP SWAP6 POP SWAP6 POP SWAP6 POP SWAP6 POP SWAP6 POP SWAP6 POP SWAP1 SWAP2 SWAP3 SWAP4 SWAP5 SWAP6 JUMP JUMPDEST PUSH1 0x0 DUP2 MLOAD SWAP1 POP SWAP2 SWAP1 POP JUMP JUMPDEST PUSH1 0x0 DUP3 DUP3 MSTORE PUSH1 0x20 DUP3 ADD SWAP1 POP SWAP3 SWAP2 POP POP JUMP JUMPDEST PUSH1 0x0 JUMPDEST DUP4 DUP2 LT ISZERO PUSH2 0x20E JUMPI DUP1 DUP3 ADD MLOAD DUP2 DUP5 ADD MSTORE PUSH1 0x20 DUP2 ADD SWAP1 POP PUSH2 0x1F3 JUMP JUMPDEST PUSH1 0x0 DUP5 DUP5 ADD MSTORE POP POP POP POP JUMP JUMPDEST PUSH1 0x0 PUSH1 0x1F NOT PUSH1 0x1F DUP4 ADD AND SWAP1 POP SWAP2 SWAP1 POP JUMP JUMPDEST PUSH1 0x0 PUSH2 0x236 DUP3 PUSH2 0x1D4 JUMP JUMPDEST PUSH2 0x240 DUP2 DUP6 PUSH2 0x1DF JUMP JUMPDEST SWAP4 POP PUSH2 0x250 DUP2 DUP6 PUSH1 0x20 DUP7 ADD PUSH2 0x1F0 JUMP JUMPDEST PUSH2 0x259 DUP2 PUSH2 0x21A JUMP JUMPDEST DUP5 ADD SWAP2 POP POP SWAP3 SWAP2 POP POP JUMP JUMPDEST PUSH1 0x0 DUP2 SWAP1 POP SWAP2 SWAP1 POP JUMP JUMPDEST PUSH2 0x277 DUP2 PUSH2 0x264 JUMP JUMPDEST DUP3 MSTORE POP POP JUMP JUMPDEST PUSH1 0x0 PUSH1 0xC0 DUP3 ADD SWAP1 POP DUP2 DUP2 SUB PUSH1 0x0 DUP4 ADD MSTORE PUSH2 0x297 DUP2 DUP10 PUSH2 0x22B JUMP JUMPDEST SWAP1 POP PUSH2 0x2A6 PUSH1 0x20 DUP4 ADD DUP9 PUSH2 0x26E JUMP JUMPDEST PUSH2 0x2B3 PUSH1 0x40 DUP4 ADD DUP8 PUSH2 0x26E JUMP JUMPDEST PUSH2 0x2C0 PUSH1 0x60 DUP4 ADD DUP7 PUSH2 0x26E JUMP JUMPDEST PUSH2 0x2CD PUSH1 0x80 DUP4 ADD DUP6 PUSH2 0x26E JUMP JUMPDEST PUSH2 0x2DA PUSH1 0xA0 DUP4 ADD DUP5 PUSH2 0x26E JUMP JUMPDEST SWAP8 SWAP7 POP POP POP POP POP POP POP JUMP JUMPDEST PUSH32 0x4E487B7100000000000000000000000000000000000000000000000000000000 PUSH1 0x0 MSTORE PUSH1 0x41 PUSH1 0x4 MSTORE PUSH1 0x24 PUSH1 0x0 REVERT JUMPDEST PUSH32 0x4E487B7100000000000000000000000000000000000000000000000000000000 PUSH1 0x0 MSTORE PUSH1 0x22 PUSH1 0x4 MSTORE PUSH1 0x24 PUSH1 0x0 REVERT JUMPDEST PUSH1 0x0 PUSH1 0x2 DUP3 DIV SWAP1 POP PUSH1 0x1 DUP3 AND DUP1 PUSH2 0x35B JUMPI PUSH1 0x7F DUP3 AND SWAP2 POP JUMPDEST PUSH1 0x20 DUP3 LT DUP2 SUB PUSH2 0x36E JUMPI PUSH2 0x36D PUSH2 0x314 JUMP JUMPDEST JUMPDEST POP SWAP2 SWAP1 POP JUMP JUMPDEST PUSH1 0x0 DUP2 SWAP1 POP DUP2 PUSH1 0x0 MSTORE PUSH1 0x20 PUSH1 0x0 KECCAK256 SWAP1 POP SWAP2 SWAP1 POP JUMP JUMPDEST PUSH1 0x0 PUSH1 0x20 PUSH1 0x1F DUP4 ADD DIV SWAP1 POP SWAP2 SWAP1 POP JUMP JUMPDEST PUSH1 0x0 DUP3 DUP3 SHL SWAP1 POP SWAP3 SWAP2 POP POP JUMP JUMPDEST PUSH1 0x0 PUSH1 0x8 DUP4 MUL PUSH2 0x3D6 PUSH32 0xFFFFFFFFFFFFFFFFFFFFFFFFFFFFFFFFFFFFFFFFFFFFFFFFFFFFFFFFFFFFFFFF DUP3 PUSH2 0x399 JUMP JUMPDEST PUSH2 0x3E0 DUP7 DUP4 PUSH2 0x399 JUMP JUMPDEST SWAP6 POP DUP1 NOT DUP5 AND SWAP4 POP DUP1 DUP7 AND DUP5 OR SWAP3 POP POP POP SWAP4 SWAP3 POP POP POP JUMP JUMPDEST PUSH1 0x0 DUP2 SWAP1 POP SWAP2 SWAP1 POP JUMP JUMPDEST PUSH1 0x0 PUSH2 0x41D PUSH2 0x418 PUSH2 0x413 DUP5 PUSH2 0x264 JUMP JUMPDEST PUSH2 0x3F8 JUMP JUMPDEST PUSH2 0x264 JUMP JUMPDEST SWAP1 POP SWAP2 SWAP1 POP JUMP JUMPDEST PUSH1 0x0 DUP2 SWAP1 POP SWAP2 SWAP1 POP JUMP JUMPDEST PUSH2 0x437 DUP4 PUSH2 0x402 JUMP JUMPDEST PUSH2 0x44B PUSH2 0x443 DUP3 PUSH2 0x424 JUMP JUMPDEST DUP5 DUP5 SLOAD PUSH2 0x3A6 JUMP JUMPDEST DUP3 SSTORE POP POP POP POP JUMP JUMPDEST PUSH1 0x0 SWAP1 JUMP JUMPDEST PUSH2 0x460 PUSH2 0x453 JUMP JUMPDEST PUSH2 0x46B DUP2 DUP5 DUP5 PUSH2 0x42E JUMP JUMPDEST POP POP POP JUMP JUMPDEST JUMPDEST DUP2 DUP2 LT ISZERO PUSH2 0x48F JUMPI PUSH2 0x484 PUSH1 0x0 DUP3 PUSH2 0x458 JUMP JUMPDEST PUSH1 0x1 DUP2 ADD SWAP1 POP PUSH2 0x471 JUMP JUMPDEST POP POP JUMP JUMPDEST PUSH1 0x1F DUP3 GT ISZERO PUSH2 0x4D4 JUMPI PUSH2 0x4A5 DUP2 PUSH2 0x374 JUMP JUMPDEST PUSH2 0x4AE DUP5 PUSH2 0x389 JUMP JUMPDEST DUP2 ADD PUSH1 0x20 DUP6 LT ISZERO PUSH2 0x4BD JUMPI DUP2 SWAP1 POP JUMPDEST PUSH2 0x4D1 PUSH2 0x4C9 DUP6 PUSH2 0x389 JUMP JUMPDEST DUP4 ADD DUP3 PUSH2 0x470 JUMP JUMPDEST POP POP JUMPDEST POP POP POP JUMP JUMPDEST PUSH1 0x0 DUP3 DUP3 SHR SWAP1 POP SWAP3 SWAP2 POP POP JUMP JUMPDEST PUSH1 0x0 PUSH2 0x4F7 PUSH1 0x0 NOT DUP5 PUSH1 0x8 MUL PUSH2 0x4D9 JUMP JUMPDEST NOT DUP1 DUP4 AND SWAP2 POP POP SWAP3 SWAP2 POP POP JUMP JUMPDEST PUSH1 0x0 PUSH2 0x510 DUP4 DUP4 PUSH2 0x4E6 JUMP JUMPDEST SWAP2 POP DUP3 PUSH1 0x2 MUL DUP3 OR SWAP1 POP SWAP3 SWAP2 POP POP JUMP JUMPDEST PUSH2 0x529 DUP3 PUSH2 0x1D4 JUMP JUMPDEST PUSH8 0xFFFFFFFFFFFFFFFF DUP2 GT ISZERO PUSH2 0x542 JUMPI PUSH2 0x541 PUSH2 0x2E5 JUMP JUMPDEST JUMPDEST PUSH2 0x54C DUP3 SLOAD PUSH2 0x343 JUMP JUMPDEST PUSH2 0x557 DUP3 DUP3 DUP6 PUSH2 0x493 JUMP JUMPDEST PUSH1 0x0 PUSH1 0x20 SWAP1 POP PUSH1 0x1F DUP4 GT PUSH1 0x1 DUP2 EQ PUSH2 0x58A JUMPI PUSH1 0x0 DUP5 ISZERO PUSH2 0x578 JUMPI DUP3 DUP8 ADD MLOAD SWAP1 POP JUMPDEST PUSH2 0x582 DUP6 DUP3 PUSH2 0x504 JUMP JUMPDEST DUP7 SSTORE POP PUSH2 0x5EA JUMP JUMPDEST PUSH1 0x1F NOT DUP5 AND PUSH2 0x598 DUP7 PUSH2 0x374 JUMP JUMPDEST PUSH1 0x0 JUMPDEST DUP3 DUP2 LT ISZERO PUSH2 0x5C0 JUMPI DUP5 DUP10 ADD MLOAD DUP3 SSTORE PUSH1 0x1 DUP3 ADD SWAP2 POP PUSH1 0x20 DUP6 ADD SWAP5 POP PUSH1 0x20 DUP2 ADD SWAP1 POP PUSH2 0x59B JUMP JUMPDEST DUP7 DUP4 LT ISZERO PUSH2 0x5DD JUMPI DUP5 DUP10 ADD MLOAD PUSH2 0x5D9 PUSH1 0x1F DUP10 AND DUP3 PUSH2 0x4E6 JUMP JUMPDEST DUP4 SSTORE POP JUMPDEST PUSH1 0x1 PUSH1 0x2 DUP9 MUL ADD DUP9 SSTORE POP POP POP JUMPDEST POP POP POP POP POP POP JUMP JUMPDEST PUSH32 0x4E487B7100000000000000000000000000000000000000000000000000000000 PUSH1 0x0 MSTORE PUSH1 0x11 PUSH1 0x4 MSTORE PUSH1 0x24 PUSH1 0x0 REVERT JUMPDEST PUSH1 0x0 PUSH2 0x62C DUP3 PUSH2 0x264 JUMP JUMPDEST SWAP2 POP PUSH2 0x637 DUP4 PUSH2 0x264 JUMP JUMPDEST SWAP3 POP DUP3 DUP3 ADD SWAP1 POP DUP1 DUP3 GT ISZERO PUSH2 0x64F JUMPI PUSH2 0x64E PUSH2 0x5F2 JUMP JUMPDEST JUMPDEST SWAP3 SWAP2 POP POP JUMP JUMPDEST PUSH1 0x0 PUSH2 0x660 DUP3 PUSH2 0x264 JUMP JUMPDEST SWAP2 POP PUSH2 0x66B DUP4 PUSH2 0x264 JUMP JUMPDEST SWAP3 POP DUP3 DUP3 SUB SWAP1 POP DUP2 DUP2 GT ISZERO PUSH2 0x683 JUMPI PUSH2 0x682 PUSH2 0x5F2 JUMP JUMPDEST JUMPDEST SWAP3 SWAP2 POP POP JUMP JUMPDEST PUSH1 0x0 PUSH2 0x694 DUP3 PUSH2 0x264 JUMP JUMPDEST SWAP2 POP PUSH2 0x69F DUP4 PUSH2 0x264 JUMP JUMPDEST SWAP3 POP DUP3 DUP3 MUL PUSH2 0x6AD DUP2 PUSH2 0x264 JUMP JUMPDEST SWAP2 POP DUP3 DUP3 DIV DUP5 EQ DUP4 ISZERO OR PUSH2 0x6C4 JUMPI PUSH2 0x6C3 PUSH2 0x5F2 JUMP JUMPDEST JUMPDEST POP SWAP3 SWAP2 POP POP JUMP JUMPDEST PUSH32 0x4E487B7100000000000000000000000000000000000000000000000000000000 PUSH1 0x0 MSTORE PUSH1 0x12 PUSH1 0x4 MSTORE PUSH1 0x24 PUSH1 0x0 REVERT JUMPDEST PUSH1 0x0 PUSH2 0x705 DUP3 PUSH2 0x264 JUMP JUMPDEST SWAP2 POP PUSH2 0x710 DUP4 PUSH2 0x264 JUMP JUMPDEST SWAP3 POP DUP3 PUSH2 0x720 JUMPI PUSH2 0x71F PUSH2 0x6CB JUMP JUMPDEST JUMPDEST DUP3 DUP3 DIV SWAP1 POP SWAP3 SWAP2 POP POP JUMP JUMPDEST PUSH1 0x0 PUSH2 0x736 DUP3 PUSH2 0x264 JUMP JUMPDEST SWAP2 POP PUSH2 0x741 DUP4 PUSH2 0x264 JUMP JUMPDEST SWAP3 POP DUP3 PUSH2 0x751 JUMPI PUSH2 0x750 PUSH2 0x6CB JUMP JUMPDEST JUMPDEST DUP3 DUP3 MOD SWAP1 POP SWAP3 SWAP2 POP POP JUMP INVALID LOG2 PUSH5 0x6970667358 0x22 SLT KECCAK256 NUMBER PREVRANDAO JUMP 0xC0 0xB4 POP DUP13 0xD4 LOG0 PUSH29 0x139E463AB43EF8378D1CB2012DDBC7900F20AE9805D764736F6C634300 ADDMOD SLT STOP CALLER "
				},
				"gasEstimates": {
					"creation": {
						"codeDepositCost": "387600",
						"executionCost": "infinite",
						"totalCost": "infinite"
					},
					"external": {
						"assignment()": "infinite"
					}
				},
				"methodIdentifiers": {
					"assignment()": "71ca2ecf"
				}
			},
			"storageLayout": {
				"storage": [
					{
						"astId": 4,
						"contract": "sol/wikibook/02.sol:Ex2_2",
						"label": "a",
						"offset": 0,
						"slot": "0",
						"type": "t_string_storage"
					},
					{
						"astId": 7,
						"contract": "sol/wikibook/02.sol:Ex2_2",
						"label": "b",
						"offset": 0,
						"slot": "1",
						"type": "t_uint256"
					},
					{
						"astId": 10,
						"contract": "sol/wikibook/02.sol:Ex2_2",
						"label": "c",
						"offset": 0,
						"slot": "2",
						"type": "t_uint256"
					},
					{
						"astId": 13,
						"contract": "sol/wikibook/02.sol:Ex2_2",
						"label": "d",
						"offset": 0,
						"slot": "3",
						"type": "t_uint256"
					},
					{
						"astId": 16,
						"contract": "sol/wikibook/02.sol:Ex2_2",
						"label": "e",
						"offset": 0,
						"slot": "4",
						"type": "t_uint256"
					},
					{
						"astId": 19,
						"contract": "sol/wikibook/02.sol:Ex2_2",
						"label": "f",
						"offset": 0,
						"slot": "5",
						"type": "t_uint256"
					}
				],
				"types": {
					"t_string_storage": {
						"encoding": "bytes",
						"label": "string",
						"numberOfBytes": "32"
					},
					"t_uint256": {
						"encoding": "inplace",
						"label": "uint256",
						"numberOfBytes": "32"
					}
				}
			},
			"userdoc": {
				"kind": "user",
				"methods": {},
				"version": 1
			}
		}
	}
}